{
  "transactions": [
    {
      "hash": "0xdae6756c6f0b29ab2e6d6e93e6cdcdc7a84952d190e79b670b5e922d65aec446",
      "transactionType": "CALL",
      "contractName": null,
      "contractAddress": "0x31d785d1866e0345f134606df75046f565f62ec1",
      "function": "addQuestion(string,string[4],uint8,string)",
      "arguments": [
        "What is Celo?",
        "[A mobile-first blockchain platform, A cryptocurrency exchange, A digital wallet app, A mining hardware company]",
        "0",
        "Basics"
      ],
      "transaction": {
        "from": "0x1ff9ea9f062c31cff19ade558e34894f07cf7817",
        "to": "0x31d785d1866e0345f134606df75046f565f62ec1",
        "gas": "0x57d5b",
        "value": "0x0",
        "input": "0xd6a70487000000000000000000000000000000000000000000000000000000000000008000000000000000000000000000000000000000000000000000000000000000c000000000000000000000000000000000000000000000000000000000000000000000000000000000000000000000000000000000000000000000000000000260000000000000000000000000000000000000000000000000000000000000000d576861742069732043656c6f3f00000000000000000000000000000000000000000000000000000000000000000000000000000000000000000000000000008000000000000000000000000000000000000000000000000000000000000000e000000000000000000000000000000000000000000000000000000000000001200000000000000000000000000000000000000000000000000000000000000160000000000000000000000000000000000000000000000000000000000000002241206d6f62696c652d666972737420626c6f636b636861696e20706c6174666f726d0000000000000000000000000000000000000000000000000000000000000000000000000000000000000000000000000000000000000000000000000019412063727970746f63757272656e63792065786368616e676500000000000000000000000000000000000000000000000000000000000000000000000000001441206469676974616c2077616c6c657420617070000000000000000000000000000000000000000000000000000000000000000000000000000000000000001941206d696e696e6720686172647761726520636f6d70616e790000000000000000000000000000000000000000000000000000000000000000000000000000064261736963730000000000000000000000000000000000000000000000000000",
        "nonce": "0x36",
        "chainId": "0xaa044c"
      },
      "additionalContracts": [],
      "isFixedGasLimit": false
    },
    {
      "hash": "0xa48cc03b4ee73ea0ce76f68bbc6d2505f9d3c4a613eb6a7e345a47bc2d8c2238",
      "transactionType": "CALL",
      "contractName": null,
      "contractAddress": "0x31d785d1866e0345f134606df75046f565f62ec1",
      "function": "addQuestion(string,string[4],uint8,string)",
      "arguments": [
        "What is Celo\\'s native stablecoin pegged to the US Dollar?",
        "[USDT, USDC, cUSD, DAI]",
        "2",
        "Stablecoins"
      ],
      "transaction": {
        "from": "0x1ff9ea9f062c31cff19ade558e34894f07cf7817",
        "to": "0x31d785d1866e0345f134606df75046f565f62ec1",
        "gas": "0x5dd39",
        "value": "0x0",
        "input": "0xd6a70487000000000000000000000000000000000000000000000000000000000000008000000000000000000000000000000000000000000000000000000000000000e0000000000000000000000000000000000000000000000000000000000000000200000000000000000000000000000000000000000000000000000000000002600000000000000000000000000000000000000000000000000000000000000039576861742069732043656c6f2773206e617469766520737461626c65636f696e2070656767656420746f2074686520555320446f6c6c61723f00000000000000000000000000000000000000000000000000000000000000000000000000008000000000000000000000000000000000000000000000000000000000000000c00000000000000000000000000000000000000000000000000000000000000100000000000000000000000000000000000000000000000000000000000000014000000000000000000000000000000000000000000000000000000000000000045553445400000000000000000000000000000000000000000000000000000000000000000000000000000000000000000000000000000000000000000000000455534443000000000000000000000000000000000000000000000000000000000000000000000000000000000000000000000000000000000000000000000004635553440000000000000000000000000000000000000000000000000000000000000000000000000000000000000000000000000000000000000000000000034441490000000000000000000000000000000000000000000000000000000000000000000000000000000000000000000000000000000000000000000000000b537461626c65636f696e73000000000000000000000000000000000000000000",
        "nonce": "0x37",
        "chainId": "0xaa044c"
      },
      "additionalContracts": [],
      "isFixedGasLimit": false
    },
    {
      "hash": "0x961188ace98f860f15b4e5eb306774afc09c090f270538ca51d6c0ade0f4652d",
      "transactionType": "CALL",
      "contractName": null,
      "contractAddress": "0x31d785d1866e0345f134606df75046f565f62ec1",
      "function": "addQuestion(string,string[4],uint8,string)",
      "arguments": [
        "What consensus mechanism does Celo use?",
        "[Proof of Work, Proof of Stake, Delegated Proof of Stake, Proof of Authority]",
        "1",
        "Technology"
      ],
      "transaction": {
        "from": "0x1ff9ea9f062c31cff19ade558e34894f07cf7817",
        "to": "0x31d785d1866e0345f134606df75046f565f62ec1",
        "gas": "0x58c16",
        "value": "0x0",
        "input": "0xd6a70487000000000000000000000000000000000000000000000000000000000000008000000000000000000000000000000000000000000000000000000000000000e00000000000000000000000000000000000000000000000000000000000000001000000000000000000000000000000000000000000000000000000000000026000000000000000000000000000000000000000000000000000000000000000275768617420636f6e73656e737573206d656368616e69736d20646f65732043656c6f207573653f00000000000000000000000000000000000000000000000000000000000000000000000000000000000000000000000000000000000000008000000000000000000000000000000000000000000000000000000000000000c000000000000000000000000000000000000000000000000000000000000001000000000000000000000000000000000000000000000000000000000000000140000000000000000000000000000000000000000000000000000000000000000d50726f6f66206f6620576f726b00000000000000000000000000000000000000000000000000000000000000000000000000000000000000000000000000000e50726f6f66206f66205374616b65000000000000000000000000000000000000000000000000000000000000000000000000000000000000000000000000001844656c6567617465642050726f6f66206f66205374616b650000000000000000000000000000000000000000000000000000000000000000000000000000001250726f6f66206f6620417574686f726974790000000000000000000000000000000000000000000000000000000000000000000000000000000000000000000a546563686e6f6c6f677900000000000000000000000000000000000000000000",
        "nonce": "0x38",
        "chainId": "0xaa044c"
      },
      "additionalContracts": [],
      "isFixedGasLimit": false
    },
    {
      "hash": "0x84d03f978a48e8ff17b10bcf60042a851fa9893e603fbd1873480dc00d851792",
      "transactionType": "CALL",
      "contractName": null,
      "contractAddress": "0x31d785d1866e0345f134606df75046f565f62ec1",
      "function": "addQuestion(string,string[4],uint8,string)",
      "arguments": [
        "What is Celo\\'s primary mission?",
        "[To create the fastest blockchain, To build financial tools accessible to anyone with a mobile phone, To replace all traditional banks, To mine Bitcoin more efficiently]",
        "1",
        "Mission"
      ],
      "transaction": {
        "from": "0x1ff9ea9f062c31cff19ade558e34894f07cf7817",
        "to": "0x31d785d1866e0345f134606df75046f565f62ec1",
        "gas": "0x771e5",
        "value": "0x0",
        "input": "0xd6a70487000000000000000000000000000000000000000000000000000000000000008000000000000000000000000000000000000000000000000000000000000000c000000000000000000000000000000000000000000000000000000000000000010000000000000000000000000000000000000000000000000000000000000280000000000000000000000000000000000000000000000000000000000000001f576861742069732043656c6f2773207072696d617279206d697373696f6e3f00000000000000000000000000000000000000000000000000000000000000008000000000000000000000000000000000000000000000000000000000000000c0000000000000000000000000000000000000000000000000000000000000014000000000000000000000000000000000000000000000000000000000000001800000000000000000000000000000000000000000000000000000000000000020546f2063726561746520746865206661737465737420626c6f636b636861696e0000000000000000000000000000000000000000000000000000000000000041546f206275696c642066696e616e6369616c20746f6f6c732061636365737369626c6520746f20616e796f6e6520776974682061206d6f62696c652070686f6e65000000000000000000000000000000000000000000000000000000000000000000000000000000000000000000000000000000000000000000000000000020546f207265706c61636520616c6c20747261646974696f6e616c2062616e6b730000000000000000000000000000000000000000000000000000000000000020546f206d696e6520426974636f696e206d6f726520656666696369656e746c7900000000000000000000000000000000000000000000000000000000000000074d697373696f6e00000000000000000000000000000000000000000000000000",
        "nonce": "0x39",
        "chainId": "0xaa044c"
      },
      "additionalContracts": [],
      "isFixedGasLimit": false
    },
    {
      "hash": "0x1cbfb99c13975a71ab2ad1acddf8b5580ea10c221f477025189eb9b22bd80325",
      "transactionType": "CALL",
      "contractName": null,
      "contractAddress": "0x31d785d1866e0345f134606df75046f565f62ec1",
      "function": "addQuestion(string,string[4],uint8,string)",
      "arguments": [
        "What do Celo validators do?",
        "[Mine new blocks, Secure the network and validate transactions, Create new tokens, Manage user accounts]",
        "1",
        "Technology"
      ],
      "transaction": {
        "from": "0x1ff9ea9f062c31cff19ade558e34894f07cf7817",
        "to": "0x31d785d1866e0345f134606df75046f565f62ec1",
        "gas": "0x58d2c",
        "value": "0x0",
        "input": "0xd6a70487000000000000000000000000000000000000000000000000000000000000008000000000000000000000000000000000000000000000000000000000000000c000000000000000000000000000000000000000000000000000000000000000010000000000000000000000000000000000000000000000000000000000000260000000000000000000000000000000000000000000000000000000000000001b5768617420646f2043656c6f2076616c696461746f727320646f3f0000000000000000000000000000000000000000000000000000000000000000000000008000000000000000000000000000000000000000000000000000000000000000c000000000000000000000000000000000000000000000000000000000000001200000000000000000000000000000000000000000000000000000000000000160000000000000000000000000000000000000000000000000000000000000000f4d696e65206e657720626c6f636b730000000000000000000000000000000000000000000000000000000000000000000000000000000000000000000000002c53656375726520746865206e6574776f726b20616e642076616c6964617465207472616e73616374696f6e7300000000000000000000000000000000000000000000000000000000000000000000000000000000000000000000000000000011437265617465206e657720746f6b656e7300000000000000000000000000000000000000000000000000000000000000000000000000000000000000000000144d616e6167652075736572206163636f756e7473000000000000000000000000000000000000000000000000000000000000000000000000000000000000000a546563686e6f6c6f677900000000000000000000000000000000000000000000",
        "nonce": "0x3a",
        "chainId": "0xaa044c"
      },
      "additionalContracts": [],
      "isFixedGasLimit": false
    },
    {
      "hash": "0xaac564338215a91cf21f893bc4394d8cfa30695415472ad4c195806b71cee6b3",
      "transactionType": "CALL",
      "contractName": null,
      "contractAddress": "0x31d785d1866e0345f134606df75046f565f62ec1",
      "function": "addQuestion(string,string[4],uint8,string)",
      "arguments": [
        "What makes Celo unique in terms of environmental impact?",
        "[It uses solar power, It is carbon negative, It doesn\\'t use electricity, It plants trees]",
        "1",
        "Sustainability"
      ],
      "transaction": {
        "from": "0x1ff9ea9f062c31cff19ade558e34894f07cf7817",
        "to": "0x31d785d1866e0345f134606df75046f565f62ec1",
        "gas": "0x5e1e3",
        "value": "0x0",
        "input": "0xd6a70487000000000000000000000000000000000000000000000000000000000000008000000000000000000000000000000000000000000000000000000000000000e000000000000000000000000000000000000000000000000000000000000000010000000000000000000000000000000000000000000000000000000000000260000000000000000000000000000000000000000000000000000000000000003857686174206d616b65732043656c6f20756e6971756520696e207465726d73206f6620656e7669726f6e6d656e74616c20696d706163743f0000000000000000000000000000000000000000000000000000000000000000000000000000008000000000000000000000000000000000000000000000000000000000000000c00000000000000000000000000000000000000000000000000000000000000100000000000000000000000000000000000000000000000000000000000000014000000000000000000000000000000000000000000000000000000000000000134974207573657320736f6c617220706f776572000000000000000000000000000000000000000000000000000000000000000000000000000000000000000015497420697320636172626f6e206e656761746976650000000000000000000000000000000000000000000000000000000000000000000000000000000000001a497420646f65736e27742075736520656c656374726963697479000000000000000000000000000000000000000000000000000000000000000000000000000f497420706c616e74732074726565730000000000000000000000000000000000000000000000000000000000000000000000000000000000000000000000000e5375737461696e6162696c697479000000000000000000000000000000000000",
        "nonce": "0x3b",
        "chainId": "0xaa044c"
      },
      "additionalContracts": [],
      "isFixedGasLimit": false
    },
    {
      "hash": "0x0b386ae715f1f41a0ae0c66bbed8abf5647caa77d2c56abbb4ce0453e5434a77",
      "transactionType": "CALL",
      "contractName": null,
      "contractAddress": "0x31d785d1866e0345f134606df75046f565f62ec1",
      "function": "addQuestion(string,string[4],uint8,string)",
      "arguments": [
        "How does Celo enable easy wallet recovery?",
        "[Email verification, Phone number mapping to wallet addresses, Fingerprint scanning, Face recognition]",
        "1",
        "Features"
      ],
      "transaction": {
        "from": "0x1ff9ea9f062c31cff19ade558e34894f07cf7817",
        "to": "0x31d785d1866e0345f134606df75046f565f62ec1",
        "gas": "0x67e1d",
        "value": "0x0",
        "input": "0xd6a70487000000000000000000000000000000000000000000000000000000000000008000000000000000000000000000000000000000000000000000000000000000e000000000000000000000000000000000000000000000000000000000000000010000000000000000000000000000000000000000000000000000000000000280000000000000000000000000000000000000000000000000000000000000002a486f7720646f65732043656c6f20656e61626c6520656173792077616c6c6574207265636f766572793f00000000000000000000000000000000000000000000000000000000000000000000000000000000000000000000000000000000008000000000000000000000000000000000000000000000000000000000000000c0000000000000000000000000000000000000000000000000000000000000012000000000000000000000000000000000000000000000000000000000000001600000000000000000000000000000000000000000000000000000000000000012456d61696c20766572696669636174696f6e0000000000000000000000000000000000000000000000000000000000000000000000000000000000000000002850686f6e65206e756d626572206d617070696e6720746f2077616c6c657420616464726573736573000000000000000000000000000000000000000000000000000000000000000000000000000000000000000000000000000000000000001446696e6765727072696e74207363616e6e696e67000000000000000000000000000000000000000000000000000000000000000000000000000000000000001046616365207265636f676e6974696f6e0000000000000000000000000000000000000000000000000000000000000000000000000000000000000000000000084665617475726573000000000000000000000000000000000000000000000000",
        "nonce": "0x3c",
        "chainId": "0xaa044c"
      },
      "additionalContracts": [],
      "isFixedGasLimit": false
    },
    {
      "hash": "0x3b4db29aa77f55286f42c70143a9b06aa58ce7712aba1c9608cfd13936f77c11",
      "transactionType": "CALL",
      "contractName": null,
      "contractAddress": "0x31d785d1866e0345f134606df75046f565f62ec1",
      "function": "addQuestion(string,string[4],uint8,string)",
      "arguments": [
        "What is Celo\\'s governance token called?",
        "[CELO, CEL, CGOV, CUSD]",
        "0",
        "Tokens"
      ],
      "transaction": {
        "from": "0x1ff9ea9f062c31cff19ade558e34894f07cf7817",
        "to": "0x31d785d1866e0345f134606df75046f565f62ec1",
        "gas": "0x51ce5",
        "value": "0x0",
        "input": "0xd6a70487000000000000000000000000000000000000000000000000000000000000008000000000000000000000000000000000000000000000000000000000000000e0000000000000000000000000000000000000000000000000000000000000000000000000000000000000000000000000000000000000000000000000000002600000000000000000000000000000000000000000000000000000000000000027576861742069732043656c6f277320676f7665726e616e636520746f6b656e2063616c6c65643f00000000000000000000000000000000000000000000000000000000000000000000000000000000000000000000000000000000000000008000000000000000000000000000000000000000000000000000000000000000c000000000000000000000000000000000000000000000000000000000000001000000000000000000000000000000000000000000000000000000000000000140000000000000000000000000000000000000000000000000000000000000000443454c4f00000000000000000000000000000000000000000000000000000000000000000000000000000000000000000000000000000000000000000000000343454c0000000000000000000000000000000000000000000000000000000000000000000000000000000000000000000000000000000000000000000000000443474f5600000000000000000000000000000000000000000000000000000000000000000000000000000000000000000000000000000000000000000000000443555344000000000000000000000000000000000000000000000000000000000000000000000000000000000000000000000000000000000000000000000006546f6b656e730000000000000000000000000000000000000000000000000000",
        "nonce": "0x3d",
        "chainId": "0xaa044c"
      },
      "additionalContracts": [],
      "isFixedGasLimit": false
    },
    {
      "hash": "0xbfcabf2c19bd0b87af949d4bb7b01094644d44427489653e00e8cf1e06c42e7c",
      "transactionType": "CALL",
      "contractName": null,
      "contractAddress": "0x31d785d1866e0345f134606df75046f565f62ec1",
      "function": "addQuestion(string,string[4],uint8,string)",
      "arguments": [
        "What can be used to pay for transaction fees on Celo?",
        "[Only CELO tokens, Only cUSD, Any Celo stablecoin or CELO, Bitcoin]",
        "2",
        "Features"
      ],
      "transaction": {
        "from": "0x1ff9ea9f062c31cff19ade558e34894f07cf7817",
        "to": "0x31d785d1866e0345f134606df75046f565f62ec1",
        "gas": "0x58c38",
        "value": "0x0",
        "input": "0xd6a70487000000000000000000000000000000000000000000000000000000000000008000000000000000000000000000000000000000000000000000000000000000e0000000000000000000000000000000000000000000000000000000000000000200000000000000000000000000000000000000000000000000000000000002600000000000000000000000000000000000000000000000000000000000000035576861742063616e206265207573656420746f2070617920666f72207472616e73616374696f6e2066656573206f6e2043656c6f3f0000000000000000000000000000000000000000000000000000000000000000000000000000000000008000000000000000000000000000000000000000000000000000000000000000c00000000000000000000000000000000000000000000000000000000000000100000000000000000000000000000000000000000000000000000000000000014000000000000000000000000000000000000000000000000000000000000000104f6e6c792043454c4f20746f6b656e730000000000000000000000000000000000000000000000000000000000000000000000000000000000000000000000094f6e6c7920635553440000000000000000000000000000000000000000000000000000000000000000000000000000000000000000000000000000000000001b416e792043656c6f20737461626c65636f696e206f722043454c4f00000000000000000000000000000000000000000000000000000000000000000000000007426974636f696e0000000000000000000000000000000000000000000000000000000000000000000000000000000000000000000000000000000000000000084665617475726573000000000000000000000000000000000000000000000000",
        "nonce": "0x3e",
        "chainId": "0xaa044c"
      },
      "additionalContracts": [],
      "isFixedGasLimit": false
    },
    {
      "hash": "0x15ab7854328fa9910a2e4b9b7ddb32e1b9cd6023c55f9e3189fb4a0bfe3ab392",
      "transactionType": "CALL",
      "contractName": null,
      "contractAddress": "0x31d785d1866e0345f134606df75046f565f62ec1",
      "function": "addQuestion(string,string[4],uint8,string)",
      "arguments": [
        "Is Celo compatible with Ethereum smart contracts?",
        "[No, completely different, Yes, it\\'s EVM compatible, Only partially compatible, It uses a different programming language]",
        "1",
        "Technology"
      ],
      "transaction": {
        "from": "0x1ff9ea9f062c31cff19ade558e34894f07cf7817",
        "to": "0x31d785d1866e0345f134606df75046f565f62ec1",
        "gas": "0x67fdc",
        "value": "0x0",
        "input": "0xd6a70487000000000000000000000000000000000000000000000000000000000000008000000000000000000000000000000000000000000000000000000000000000e000000000000000000000000000000000000000000000000000000000000000010000000000000000000000000000000000000000000000000000000000000280000000000000000000000000000000000000000000000000000000000000003149732043656c6f20636f6d70617469626c65207769746820457468657265756d20736d61727420636f6e7472616374733f000000000000000000000000000000000000000000000000000000000000000000000000000000000000000000008000000000000000000000000000000000000000000000000000000000000000c00000000000000000000000000000000000000000000000000000000000000100000000000000000000000000000000000000000000000000000000000000014000000000000000000000000000000000000000000000000000000000000000184e6f2c20636f6d706c6574656c7920646966666572656e74000000000000000000000000000000000000000000000000000000000000000000000000000000185965732c20697427732045564d20636f6d70617469626c65000000000000000000000000000000000000000000000000000000000000000000000000000000194f6e6c79207061727469616c6c7920636f6d70617469626c6500000000000000000000000000000000000000000000000000000000000000000000000000002849742075736573206120646966666572656e742070726f6772616d6d696e67206c616e6775616765000000000000000000000000000000000000000000000000000000000000000000000000000000000000000000000000000000000000000a546563686e6f6c6f677900000000000000000000000000000000000000000000",
        "nonce": "0x3f",
        "chainId": "0xaa044c"
      },
      "additionalContracts": [],
      "isFixedGasLimit": false
    },
    {
      "hash": "0x0cffd3f5c0f7382825c057f6bf141a0e5edc2c542c53ce5e2b8e22a33b52fae4",
      "transactionType": "CALL",
      "contractName": null,
      "contractAddress": "0x31d785d1866e0345f134606df75046f565f62ec1",
      "function": "addQuestion(string,string[4],uint8,string)",
      "arguments": [
        "What is MiniPay?",
        "[A Celo mining pool, A mobile wallet built on Celo, A payment gateway, A stablecoin]",
        "1",
        "Ecosystem"
      ],
      "transaction": {
        "from": "0x1ff9ea9f062c31cff19ade558e34894f07cf7817",
        "to": "0x31d785d1866e0345f134606df75046f565f62ec1",
        "gas": "0x49ac2",
        "value": "0x0",
        "input": "0xd6a70487000000000000000000000000000000000000000000000000000000000000008000000000000000000000000000000000000000000000000000000000000000c000000000000000000000000000000000000000000000000000000000000000010000000000000000000000000000000000000000000000000000000000000240000000000000000000000000000000000000000000000000000000000000001057686174206973204d696e695061793f00000000000000000000000000000000000000000000000000000000000000000000000000000000000000000000008000000000000000000000000000000000000000000000000000000000000000c0000000000000000000000000000000000000000000000000000000000000010000000000000000000000000000000000000000000000000000000000000001400000000000000000000000000000000000000000000000000000000000000012412043656c6f206d696e696e6720706f6f6c0000000000000000000000000000000000000000000000000000000000000000000000000000000000000000001d41206d6f62696c652077616c6c6574206275696c74206f6e2043656c6f000000000000000000000000000000000000000000000000000000000000000000001141207061796d656e742067617465776179000000000000000000000000000000000000000000000000000000000000000000000000000000000000000000000c4120737461626c65636f696e0000000000000000000000000000000000000000000000000000000000000000000000000000000000000000000000000000000945636f73797374656d0000000000000000000000000000000000000000000000",
        "nonce": "0x40",
        "chainId": "0xaa044c"
      },
      "additionalContracts": [],
      "isFixedGasLimit": false
    },
    {
      "hash": "0xaf22721a42733e379152b983738350e472982839f7375fb0eb2f1a1f56f03177",
      "transactionType": "CALL",
      "contractName": null,
      "contractAddress": "0x31d785d1866e0345f134606df75046f565f62ec1",
      "function": "addQuestion(string,string[4],uint8,string)",
      "arguments": [
        "What backs Celo stablecoins?",
        "[US Dollar reserves in banks, Gold reserves, A diversified crypto reserve, Nothing, they are algorithmic]",
        "2",
        "Stablecoins"
      ],
      "transaction": {
        "from": "0x1ff9ea9f062c31cff19ade558e34894f07cf7817",
        "to": "0x31d785d1866e0345f134606df75046f565f62ec1",
        "gas": "0x4e27f",
        "value": "0x0",
        "input": "0xd6a70487000000000000000000000000000000000000000000000000000000000000008000000000000000000000000000000000000000000000000000000000000000c000000000000000000000000000000000000000000000000000000000000000020000000000000000000000000000000000000000000000000000000000000240000000000000000000000000000000000000000000000000000000000000001c57686174206261636b732043656c6f20737461626c65636f696e733f00000000000000000000000000000000000000000000000000000000000000000000008000000000000000000000000000000000000000000000000000000000000000c000000000000000000000000000000000000000000000000000000000000001000000000000000000000000000000000000000000000000000000000000000140000000000000000000000000000000000000000000000000000000000000001b555320446f6c6c617220726573657276657320696e2062616e6b730000000000000000000000000000000000000000000000000000000000000000000000000d476f6c6420726573657276657300000000000000000000000000000000000000000000000000000000000000000000000000000000000000000000000000001c412064697665727369666965642063727970746f207265736572766500000000000000000000000000000000000000000000000000000000000000000000001d4e6f7468696e672c20746865792061726520616c676f726974686d6963000000000000000000000000000000000000000000000000000000000000000000000b537461626c65636f696e73000000000000000000000000000000000000000000",
        "nonce": "0x41",
        "chainId": "0xaa044c"
      },
      "additionalContracts": [],
      "isFixedGasLimit": false
    },
    {
      "hash": "0xcf198f2fba180480e00ea878c8d386f1b858c136b6442a53ca43cf65386f6a3c",
      "transactionType": "CALL",
      "contractName": null,
      "contractAddress": "0x31d785d1866e0345f134606df75046f565f62ec1",
      "function": "addQuestion(string,string[4],uint8,string)",
      "arguments": [
        "What is a blockchain?",
        "[A type of database, A distributed ledger technology, A cryptocurrency, A mining algorithm]",
        "1",
        "Blockchain"
      ],
      "transaction": {
        "from": "0x1ff9ea9f062c31cff19ade558e34894f07cf7817",
        "to": "0x31d785d1866e0345f134606df75046f565f62ec1",
        "gas": "0x4e0fd",
        "value": "0x0",
        "input": "0xd6a70487000000000000000000000000000000000000000000000000000000000000008000000000000000000000000000000000000000000000000000000000000000c000000000000000000000000000000000000000000000000000000000000000010000000000000000000000000000000000000000000000000000000000000240000000000000000000000000000000000000000000000000000000000000001557686174206973206120626c6f636b636861696e3f0000000000000000000000000000000000000000000000000000000000000000000000000000000000008000000000000000000000000000000000000000000000000000000000000000c0000000000000000000000000000000000000000000000000000000000000010000000000000000000000000000000000000000000000000000000000000001400000000000000000000000000000000000000000000000000000000000000012412074797065206f662064617461626173650000000000000000000000000000000000000000000000000000000000000000000000000000000000000000001f41206469737472696275746564206c656467657220746563686e6f6c6f6779000000000000000000000000000000000000000000000000000000000000000010412063727970746f63757272656e637900000000000000000000000000000000000000000000000000000000000000000000000000000000000000000000001241206d696e696e6720616c676f726974686d0000000000000000000000000000000000000000000000000000000000000000000000000000000000000000000a426c6f636b636861696e00000000000000000000000000000000000000000000",
        "nonce": "0x42",
        "chainId": "0xaa044c"
      },
      "additionalContracts": [],
      "isFixedGasLimit": false
    },
    {
      "hash": "0x9f7f8467b8c8a9c343c2c9980f9173c1dd45c137913207d2d57bfd5c159ac0f2",
      "transactionType": "CALL",
      "contractName": null,
      "contractAddress": "0x31d785d1866e0345f134606df75046f565f62ec1",
      "function": "addQuestion(string,string[4],uint8,string)",
      "arguments": [
        "What is a smart contract?",
        "[A legal document, Self-executing code on the blockchain, A type of cryptocurrency, A wallet application]",
        "1",
        "Blockchain"
      ],
      "transaction": {
        "from": "0x1ff9ea9f062c31cff19ade558e34894f07cf7817",
        "to": "0x31d785d1866e0345f134606df75046f565f62ec1",
        "gas": "0x58d1b",
        "value": "0x0",
        "input": "0xd6a70487000000000000000000000000000000000000000000000000000000000000008000000000000000000000000000000000000000000000000000000000000000c000000000000000000000000000000000000000000000000000000000000000010000000000000000000000000000000000000000000000000000000000000260000000000000000000000000000000000000000000000000000000000000001957686174206973206120736d61727420636f6e74726163743f00000000000000000000000000000000000000000000000000000000000000000000000000008000000000000000000000000000000000000000000000000000000000000000c000000000000000000000000000000000000000000000000000000000000001200000000000000000000000000000000000000000000000000000000000000160000000000000000000000000000000000000000000000000000000000000001041206c6567616c20646f63756d656e7400000000000000000000000000000000000000000000000000000000000000000000000000000000000000000000002553656c662d657865637574696e6720636f6465206f6e2074686520626c6f636b636861696e0000000000000000000000000000000000000000000000000000000000000000000000000000000000000000000000000000000000000000000018412074797065206f662063727970746f63757272656e637900000000000000000000000000000000000000000000000000000000000000000000000000000014412077616c6c6574206170706c69636174696f6e000000000000000000000000000000000000000000000000000000000000000000000000000000000000000a426c6f636b636861696e00000000000000000000000000000000000000000000",
        "nonce": "0x43",
        "chainId": "0xaa044c"
      },
      "additionalContracts": [],
      "isFixedGasLimit": false
    },
    {
      "hash": "0x5595829f6d7c8cb1b47126d83f48d96ee9e865310418405745561909f91a9c05",
      "transactionType": "CALL",
      "contractName": null,
      "contractAddress": "0x31d785d1866e0345f134606df75046f565f62ec1",
      "function": "addQuestion(string,string[4],uint8,string)",
      "arguments": [
        "What does \\'decentralized\\' mean in blockchain?",
        "[Controlled by one company, No single point of control, Faster transactions, Lower fees]",
        "1",
        "Blockchain"
      ],
      "transaction": {
        "from": "0x1ff9ea9f062c31cff19ade558e34894f07cf7817",
        "to": "0x31d785d1866e0345f134606df75046f565f62ec1",
        "gas": "0x5e0ca",
        "value": "0x0",
        "input": "0xd6a70487000000000000000000000000000000000000000000000000000000000000008000000000000000000000000000000000000000000000000000000000000000e000000000000000000000000000000000000000000000000000000000000000010000000000000000000000000000000000000000000000000000000000000260000000000000000000000000000000000000000000000000000000000000002d5768617420646f65732027646563656e7472616c697a656427206d65616e20696e20626c6f636b636861696e3f00000000000000000000000000000000000000000000000000000000000000000000000000000000000000000000000000008000000000000000000000000000000000000000000000000000000000000000c0000000000000000000000000000000000000000000000000000000000000010000000000000000000000000000000000000000000000000000000000000001400000000000000000000000000000000000000000000000000000000000000019436f6e74726f6c6c6564206279206f6e6520636f6d70616e7900000000000000000000000000000000000000000000000000000000000000000000000000001a4e6f2073696e676c6520706f696e74206f6620636f6e74726f6c0000000000000000000000000000000000000000000000000000000000000000000000000013466173746572207472616e73616374696f6e7300000000000000000000000000000000000000000000000000000000000000000000000000000000000000000a4c6f776572206665657300000000000000000000000000000000000000000000000000000000000000000000000000000000000000000000000000000000000a426c6f636b636861696e00000000000000000000000000000000000000000000",
        "nonce": "0x44",
        "chainId": "0xaa044c"
      },
      "additionalContracts": [],
      "isFixedGasLimit": false
    }
  ],
  "receipts": [
    {
      "status": "0x1",
      "cumulativeGasUsed": "0xe130e",
      "logs": [
        {
          "address": "0x31d785d1866e0345f134606df75046f565f62ec1",
          "topics": [
            "0x99cdf36f9fc716110deb2ca0ea14e450ea70c719d430c86a653299701ee57dd7",
            "0x0000000000000000000000000000000000000000000000000000000000000000"
          ],
          "data": "0x000000000000000000000000000000000000000000000000000000000000002000000000000000000000000000000000000000000000000000000000000000064261736963730000000000000000000000000000000000000000000000000000",
          "blockHash": "0x24d0764d6d96784258dce7255d48e84023979f5a521ef48aa1e1d7e83871ba3f",
          "blockNumber": "0x9f7edb",
          "transactionHash": "0xdae6756c6f0b29ab2e6d6e93e6cdcdc7a84952d190e79b670b5e922d65aec446",
          "transactionIndex": "0x2",
          "logIndex": "0xa",
          "removed": false
        }
      ],
      "logsBloom": "0x00000000000000000000000000000000000000000000000000000000000000000000000000000000000000000000000000000008000000000000000000000000000000000000000000000000000000000000000000000000040000000000000000000000020000000000000200000800000000000000000000000000000000000000000000000000000000000000000000000000000000000000000000000000000000000800000000000000000000000000000000000000000000000000000000000000000000000000000000000000000000000000000000000000000020000000000000000000000000000000000020000000000008000000000000000000",
      "type": "0x0",
      "transactionHash": "0xdae6756c6f0b29ab2e6d6e93e6cdcdc7a84952d190e79b670b5e922d65aec446",
      "transactionIndex": "0x2",
      "blockHash": "0x24d0764d6d96784258dce7255d48e84023979f5a521ef48aa1e1d7e83871ba3f",
      "blockNumber": "0x9f7edb",
      "gasUsed": "0x3f974",
      "effectiveGasPrice": "0x5d22cfc40",
      "from": "0x1ff9ea9f062c31cff19ade558e34894f07cf7817",
      "to": "0x31d785d1866e0345f134606df75046f565f62ec1",
      "contractAddress": null,
      "l1BaseFeeScalar": "0x0",
      "l1BlobBaseFee": "0x3",
      "l1BlobBaseFeeScalar": "0x0",
      "l1Fee": "0x0",
      "l1GasPrice": "0x13",
      "l1GasUsed": "0xe97"
    },
    {
      "status": "0x1",
      "cumulativeGasUsed": "0x121589",
      "logs": [
        {
          "address": "0x31d785d1866e0345f134606df75046f565f62ec1",
          "topics": [
            "0x99cdf36f9fc716110deb2ca0ea14e450ea70c719d430c86a653299701ee57dd7",
            "0x0000000000000000000000000000000000000000000000000000000000000001"
          ],
          "data": "0x0000000000000000000000000000000000000000000000000000000000000020000000000000000000000000000000000000000000000000000000000000000b537461626c65636f696e73000000000000000000000000000000000000000000",
          "blockHash": "0x24d0764d6d96784258dce7255d48e84023979f5a521ef48aa1e1d7e83871ba3f",
          "blockNumber": "0x9f7edb",
          "transactionHash": "0xa48cc03b4ee73ea0ce76f68bbc6d2505f9d3c4a613eb6a7e345a47bc2d8c2238",
          "transactionIndex": "0x3",
          "logIndex": "0xb",
          "removed": false
        }
      ],
      "logsBloom": "0x00000000000000000000000000000000000000000000000000000000000000000000000000000000000000000000000000000008000000000000000000040000000000000000000000000000000000000000000000040000040000000000000000000000000000000000000200000000000000000000000000000000000000000000000000000000000000000000000000000000000000000000000000000000000000000800000000000000000000000000000000000000000000000000000000000000000000000000000000000000000000000000000000000000000040000000000000000000000000000000000020000000000008000000000000000000",
      "type": "0x0",
      "transactionHash": "0xa48cc03b4ee73ea0ce76f68bbc6d2505f9d3c4a613eb6a7e345a47bc2d8c2238",
      "transactionIndex": "0x3",
      "blockHash": "0x24d0764d6d96784258dce7255d48e84023979f5a521ef48aa1e1d7e83871ba3f",
      "blockNumber": "0x9f7edb",
      "gasUsed": "0x4027b",
      "effectiveGasPrice": "0x5d22cfc40",
      "from": "0x1ff9ea9f062c31cff19ade558e34894f07cf7817",
      "to": "0x31d785d1866e0345f134606df75046f565f62ec1",
      "contractAddress": null,
      "l1BaseFeeScalar": "0x0",
      "l1BlobBaseFee": "0x3",
      "l1BlobBaseFeeScalar": "0x0",
      "l1Fee": "0x0",
      "l1GasPrice": "0x13",
      "l1GasUsed": "0xcf8"
    },
    {
      "status": "0x1",
      "cumulativeGasUsed": "0x1619a8",
      "logs": [
        {
          "address": "0x31d785d1866e0345f134606df75046f565f62ec1",
          "topics": [
            "0x99cdf36f9fc716110deb2ca0ea14e450ea70c719d430c86a653299701ee57dd7",
            "0x0000000000000000000000000000000000000000000000000000000000000002"
          ],
          "data": "0x0000000000000000000000000000000000000000000000000000000000000020000000000000000000000000000000000000000000000000000000000000000a546563686e6f6c6f677900000000000000000000000000000000000000000000",
          "blockHash": "0x24d0764d6d96784258dce7255d48e84023979f5a521ef48aa1e1d7e83871ba3f",
          "blockNumber": "0x9f7edb",
          "transactionHash": "0x961188ace98f860f15b4e5eb306774afc09c090f270538ca51d6c0ade0f4652d",
          "transactionIndex": "0x4",
          "logIndex": "0xc",
          "removed": false
        }
      ],
      "logsBloom": "0x04000000000000000000000000000000000000000000000000000000000000000000000000000000000000000000000000000008000000000000000000000000000000000000000000000000000000000000000000000000040000000000000000000000000000000000000200000000000000000000000000000000000000000000000000000000000000000000000000000000000000000000000000000000000000000800000000000100000000000000000000000000000000000000000000000000000000000000000000000000000000000000000000000000000000000000000000000000000000000000000020000000008008000000000000000000",
      "type": "0x0",
      "transactionHash": "0x961188ace98f860f15b4e5eb306774afc09c090f270538ca51d6c0ade0f4652d",
      "transactionIndex": "0x4",
      "blockHash": "0x24d0764d6d96784258dce7255d48e84023979f5a521ef48aa1e1d7e83871ba3f",
      "blockNumber": "0x9f7edb",
      "gasUsed": "0x4041f",
      "effectiveGasPrice": "0x5d22cfc40",
      "from": "0x1ff9ea9f062c31cff19ade558e34894f07cf7817",
      "to": "0x31d785d1866e0345f134606df75046f565f62ec1",
      "contractAddress": null,
      "l1BaseFeeScalar": "0x0",
      "l1BlobBaseFee": "0x3",
      "l1BlobBaseFeeScalar": "0x0",
      "l1Fee": "0x0",
      "l1GasPrice": "0x13",
      "l1GasUsed": "0xd63"
    },
    {
      "status": "0x1",
      "cumulativeGasUsed": "0x1b7d7e",
      "logs": [
        {
          "address": "0x31d785d1866e0345f134606df75046f565f62ec1",
          "topics": [
            "0x99cdf36f9fc716110deb2ca0ea14e450ea70c719d430c86a653299701ee57dd7",
            "0x0000000000000000000000000000000000000000000000000000000000000003"
          ],
          "data": "0x000000000000000000000000000000000000000000000000000000000000002000000000000000000000000000000000000000000000000000000000000000074d697373696f6e00000000000000000000000000000000000000000000000000",
          "blockHash": "0x24d0764d6d96784258dce7255d48e84023979f5a521ef48aa1e1d7e83871ba3f",
          "blockNumber": "0x9f7edb",
          "transactionHash": "0x84d03f978a48e8ff17b10bcf60042a851fa9893e603fbd1873480dc00d851792",
          "transactionIndex": "0x5",
          "logIndex": "0xd",
          "removed": false
        }
      ],
      "logsBloom": "0x00000000000000000000000000000000000000000000000000000000000000000000000000000000000000000000000000000008020000000000000000000000000000000000000000000000000000000000000000000000040000000000000000000000000000000000000200000000000000000000000000000000000000000000000000000000000000000000000000000000000000000000000000000000000000000800000000000000000000000000000000800000000000000000400000000000000000000000000000000000000000000000000000000000000000000000000000000000000000000000000020000000000008000000000000000000",
      "type": "0x0",
      "transactionHash": "0x84d03f978a48e8ff17b10bcf60042a851fa9893e603fbd1873480dc00d851792",
      "transactionIndex": "0x5",
      "blockHash": "0x24d0764d6d96784258dce7255d48e84023979f5a521ef48aa1e1d7e83871ba3f",
      "blockNumber": "0x9f7edb",
      "gasUsed": "0x563d6",
      "effectiveGasPrice": "0x5d22cfc40",
      "from": "0x1ff9ea9f062c31cff19ade558e34894f07cf7817",
      "to": "0x31d785d1866e0345f134606df75046f565f62ec1",
      "contractAddress": null,
      "l1BaseFeeScalar": "0x0",
      "l1BlobBaseFee": "0x3",
      "l1BlobBaseFeeScalar": "0x0",
      "l1Fee": "0x0",
      "l1GasPrice": "0x13",
      "l1GasUsed": "0x11e2"
    },
    {
      "status": "0x1",
      "cumulativeGasUsed": "0x1f8266",
      "logs": [
        {
          "address": "0x31d785d1866e0345f134606df75046f565f62ec1",
          "topics": [
            "0x99cdf36f9fc716110deb2ca0ea14e450ea70c719d430c86a653299701ee57dd7",
            "0x0000000000000000000000000000000000000000000000000000000000000004"
          ],
          "data": "0x0000000000000000000000000000000000000000000000000000000000000020000000000000000000000000000000000000000000000000000000000000000a546563686e6f6c6f677900000000000000000000000000000000000000000000",
          "blockHash": "0x24d0764d6d96784258dce7255d48e84023979f5a521ef48aa1e1d7e83871ba3f",
          "blockNumber": "0x9f7edb",
          "transactionHash": "0x1cbfb99c13975a71ab2ad1acddf8b5580ea10c221f477025189eb9b22bd80325",
          "transactionIndex": "0x6",
          "logIndex": "0xe",
          "removed": false
        }
      ],
      "logsBloom": "0x00000000000000000000000000000000000000000000000000000000000000000000000000000000000000000000000000000008000000000000000000000000000000000000000000000000000000000000000000000000040000000000000008000000000000000000000200000000000000000000000000000000000000000000000000000000000000000000000000000000000000000000000000000000000000000800000000000000000000000000000000000000002000000000000000000000000000000000000000000000000000008000000000000000000000000000000000000000000000000000000020000000000008000000000000000000",
      "type": "0x0",
      "transactionHash": "0x1cbfb99c13975a71ab2ad1acddf8b5580ea10c221f477025189eb9b22bd80325",
      "transactionIndex": "0x6",
      "blockHash": "0x24d0764d6d96784258dce7255d48e84023979f5a521ef48aa1e1d7e83871ba3f",
      "blockNumber": "0x9f7edb",
      "gasUsed": "0x404e8",
      "effectiveGasPrice": "0x5d22cfc40",
      "from": "0x1ff9ea9f062c31cff19ade558e34894f07cf7817",
      "to": "0x31d785d1866e0345f134606df75046f565f62ec1",
      "contractAddress": null,
      "l1BaseFeeScalar": "0x0",
      "l1BlobBaseFee": "0x3",
      "l1BlobBaseFeeScalar": "0x0",
      "l1Fee": "0x0",
      "l1GasPrice": "0x13",
      "l1GasUsed": "0xe54"
    },
    {
      "status": "0x1",
      "cumulativeGasUsed": "0x238811",
      "logs": [
        {
          "address": "0x31d785d1866e0345f134606df75046f565f62ec1",
          "topics": [
            "0x99cdf36f9fc716110deb2ca0ea14e450ea70c719d430c86a653299701ee57dd7",
            "0x0000000000000000000000000000000000000000000000000000000000000005"
          ],
          "data": "0x0000000000000000000000000000000000000000000000000000000000000020000000000000000000000000000000000000000000000000000000000000000e5375737461696e6162696c697479000000000000000000000000000000000000",
          "blockHash": "0x24d0764d6d96784258dce7255d48e84023979f5a521ef48aa1e1d7e83871ba3f",
          "blockNumber": "0x9f7edb",
          "transactionHash": "0xaac564338215a91cf21f893bc4394d8cfa30695415472ad4c195806b71cee6b3",
          "transactionIndex": "0x7",
          "logIndex": "0xf",
          "removed": false
        }
      ],
      "logsBloom": "0x00000000000000000000000000000000000000000000000000000000000000000000000000000000000000000000000000000008000000000000000000000000000010000000000000000000000000000000000000000000040000000000000000000000000000000000000200000000000000000000000000000000000000000000000000000000000000000000001000000800000000000000000000000000000000000800000000000000000000000000000000000000000000000000000000000000000000000000000000000000000000000000000000000000000000000000000000000000000000000000000020000000000008000000000000000000",
      "type": "0x0",
      "transactionHash": "0xaac564338215a91cf21f893bc4394d8cfa30695415472ad4c195806b71cee6b3",
      "transactionIndex": "0x7",
      "blockHash": "0x24d0764d6d96784258dce7255d48e84023979f5a521ef48aa1e1d7e83871ba3f",
      "blockNumber": "0x9f7edb",
      "gasUsed": "0x405ab",
      "effectiveGasPrice": "0x5d22cfc40",
      "from": "0x1ff9ea9f062c31cff19ade558e34894f07cf7817",
      "to": "0x31d785d1866e0345f134606df75046f565f62ec1",
      "contractAddress": null,
      "l1BaseFeeScalar": "0x0",
      "l1BlobBaseFee": "0x3",
      "l1BlobBaseFeeScalar": "0x0",
      "l1Fee": "0x0",
      "l1GasPrice": "0x13",
      "l1GasUsed": "0x1079"
    },
    {
      "status": "0x1",
      "cumulativeGasUsed": "0x283b69",
      "logs": [
        {
          "address": "0x31d785d1866e0345f134606df75046f565f62ec1",
          "topics": [
            "0x99cdf36f9fc716110deb2ca0ea14e450ea70c719d430c86a653299701ee57dd7",
            "0x0000000000000000000000000000000000000000000000000000000000000006"
          ],
          "data": "0x000000000000000000000000000000000000000000000000000000000000002000000000000000000000000000000000000000000000000000000000000000084665617475726573000000000000000000000000000000000000000000000000",
          "blockHash": "0x24d0764d6d96784258dce7255d48e84023979f5a521ef48aa1e1d7e83871ba3f",
          "blockNumber": "0x9f7edb",
          "transactionHash": "0x0b386ae715f1f41a0ae0c66bbed8abf5647caa77d2c56abbb4ce0453e5434a77",
          "transactionIndex": "0x8",
          "logIndex": "0x10",
          "removed": false
        }
      ],
      "logsBloom": "0x00000000000000000000000000000000000000000000000000000000000000000000000000000000000000000000000000000008000400000000000000000000000000000000000000000000000000000000000000000000040000000000000000000000000000000000000200000000000000000000000000000000000000000000000400000000000000000000000000000000000000000000000000000000000000000800000000000000000000000000000000000000000000080000000000000000000000000000000000000000000000000000000000000000000000000000000000000000000000000000000020000000000008000000000000000000",
      "type": "0x0",
      "transactionHash": "0x0b386ae715f1f41a0ae0c66bbed8abf5647caa77d2c56abbb4ce0453e5434a77",
      "transactionIndex": "0x8",
      "blockHash": "0x24d0764d6d96784258dce7255d48e84023979f5a521ef48aa1e1d7e83871ba3f",
      "blockNumber": "0x9f7edb",
      "gasUsed": "0x4b358",
      "effectiveGasPrice": "0x5d22cfc40",
      "from": "0x1ff9ea9f062c31cff19ade558e34894f07cf7817",
      "to": "0x31d785d1866e0345f134606df75046f565f62ec1",
      "contractAddress": null,
      "l1BaseFeeScalar": "0x0",
      "l1BlobBaseFee": "0x3",
      "l1BlobBaseFeeScalar": "0x0",
      "l1Fee": "0x0",
      "l1GasPrice": "0x13",
      "l1GasUsed": "0xf52"
    },
    {
      "status": "0x1",
      "cumulativeGasUsed": "0x2bef08",
      "logs": [
        {
          "address": "0x31d785d1866e0345f134606df75046f565f62ec1",
          "topics": [
            "0x99cdf36f9fc716110deb2ca0ea14e450ea70c719d430c86a653299701ee57dd7",
            "0x0000000000000000000000000000000000000000000000000000000000000007"
          ],
          "data": "0x00000000000000000000000000000000000000000000000000000000000000200000000000000000000000000000000000000000000000000000000000000006546f6b656e730000000000000000000000000000000000000000000000000000",
          "blockHash": "0x24d0764d6d96784258dce7255d48e84023979f5a521ef48aa1e1d7e83871ba3f",
          "blockNumber": "0x9f7edb",
          "transactionHash": "0x3b4db29aa77f55286f42c70143a9b06aa58ce7712aba1c9608cfd13936f77c11",
          "transactionIndex": "0x9",
          "logIndex": "0x11",
          "removed": false
        }
      ],
      "logsBloom": "0x00000000000000000000000000000000000000000000000000000000000000000000000000000000000000000000000000001008000000000000000000000000000020000000000000000000000000000000000000000000040000000000000000000000000000000000000200000000000000000000000000000000000000000000000000000000000000000000000000000000000000000000000000000000000000000800000000000000000000000000000000000000000000000000000000000000000000000000000000000000000000000000000000000100000000000000000000000000000000000000000020000000000008000000000000000000",
      "type": "0x0",
      "transactionHash": "0x3b4db29aa77f55286f42c70143a9b06aa58ce7712aba1c9608cfd13936f77c11",
      "transactionIndex": "0x9",
      "blockHash": "0x24d0764d6d96784258dce7255d48e84023979f5a521ef48aa1e1d7e83871ba3f",
      "blockNumber": "0x9f7edb",
      "gasUsed": "0x3b39f",
      "effectiveGasPrice": "0x5d22cfc40",
      "from": "0x1ff9ea9f062c31cff19ade558e34894f07cf7817",
      "to": "0x31d785d1866e0345f134606df75046f565f62ec1",
      "contractAddress": null,
      "l1BaseFeeScalar": "0x0",
      "l1BlobBaseFee": "0x3",
      "l1BlobBaseFeeScalar": "0x0",
      "l1Fee": "0x0",
      "l1GasPrice": "0x13",
      "l1GasUsed": "0xb66"
    },
    {
      "status": "0x1",
      "cumulativeGasUsed": "0x2ff33f",
      "logs": [
        {
          "address": "0x31d785d1866e0345f134606df75046f565f62ec1",
          "topics": [
            "0x99cdf36f9fc716110deb2ca0ea14e450ea70c719d430c86a653299701ee57dd7",
            "0x0000000000000000000000000000000000000000000000000000000000000008"
          ],
          "data": "0x000000000000000000000000000000000000000000000000000000000000002000000000000000000000000000000000000000000000000000000000000000084665617475726573000000000000000000000000000000000000000000000000",
          "blockHash": "0x24d0764d6d96784258dce7255d48e84023979f5a521ef48aa1e1d7e83871ba3f",
          "blockNumber": "0x9f7edb",
          "transactionHash": "0xbfcabf2c19bd0b87af949d4bb7b01094644d44427489653e00e8cf1e06c42e7c",
          "transactionIndex": "0xa",
          "logIndex": "0x12",
          "removed": false
        }
      ],
      "logsBloom": "0x00000000000000000000000000000000000000000000000000000000000000000000000000000000000000000000000000000008000080000000000000000000000000000000000000000000000000000000000000000000040000000000000000000000000000000000000200000000000000000000000000000000000000000080000000000000000000000000000000000000000000000000000000000000000000000800000000000000000000000000000000000000000000000000000040000000000000000000000000000000000000000000000000000000000000000000000000000000000000000000000020000000000008000000000000000000",
      "type": "0x0",
      "transactionHash": "0xbfcabf2c19bd0b87af949d4bb7b01094644d44427489653e00e8cf1e06c42e7c",
      "transactionIndex": "0xa",
      "blockHash": "0x24d0764d6d96784258dce7255d48e84023979f5a521ef48aa1e1d7e83871ba3f",
      "blockNumber": "0x9f7edb",
      "gasUsed": "0x40437",
      "effectiveGasPrice": "0x5d22cfc40",
      "from": "0x1ff9ea9f062c31cff19ade558e34894f07cf7817",
      "to": "0x31d785d1866e0345f134606df75046f565f62ec1",
      "contractAddress": null,
      "l1BaseFeeScalar": "0x0",
      "l1BlobBaseFee": "0x3",
      "l1BlobBaseFeeScalar": "0x0",
      "l1Fee": "0x0",
      "l1GasPrice": "0x13",
      "l1GasUsed": "0xeda"
    },
    {
      "status": "0x1",
      "cumulativeGasUsed": "0x34a7db",
      "logs": [
        {
          "address": "0x31d785d1866e0345f134606df75046f565f62ec1",
          "topics": [
            "0x99cdf36f9fc716110deb2ca0ea14e450ea70c719d430c86a653299701ee57dd7",
            "0x0000000000000000000000000000000000000000000000000000000000000009"
          ],
          "data": "0x0000000000000000000000000000000000000000000000000000000000000020000000000000000000000000000000000000000000000000000000000000000a546563686e6f6c6f677900000000000000000000000000000000000000000000",
          "blockHash": "0x24d0764d6d96784258dce7255d48e84023979f5a521ef48aa1e1d7e83871ba3f",
          "blockNumber": "0x9f7edb",
          "transactionHash": "0x15ab7854328fa9910a2e4b9b7ddb32e1b9cd6023c55f9e3189fb4a0bfe3ab392",
          "transactionIndex": "0xb",
          "logIndex": "0x13",
          "removed": false
        }
      ],
      "logsBloom": "0x00000000000000000000000000000000000000000000000000000000000000000000000000000000000000000000000000000008000000000000000000200000000000000000000000000000000000000000000000000000040000000000000000000000000000000000000200000000000000000000000000000000000000000000000000000000000000000000000000001000000000000000000000000000000000000800000000000000000000000000000000000000000000000000000000000000000000000000000000000000000000000000000000000000000000000000000000000000000000000000000020000000000008000000000000800000",
      "type": "0x0",
      "transactionHash": "0x15ab7854328fa9910a2e4b9b7ddb32e1b9cd6023c55f9e3189fb4a0bfe3ab392",
      "transactionIndex": "0xb",
      "blockHash": "0x24d0764d6d96784258dce7255d48e84023979f5a521ef48aa1e1d7e83871ba3f",
      "blockNumber": "0x9f7edb",
      "gasUsed": "0x4b49c",
      "effectiveGasPrice": "0x5d22cfc40",
      "from": "0x1ff9ea9f062c31cff19ade558e34894f07cf7817",
      "to": "0x31d785d1866e0345f134606df75046f565f62ec1",
      "contractAddress": null,
      "l1BaseFeeScalar": "0x0",
      "l1BlobBaseFee": "0x3",
      "l1BlobBaseFeeScalar": "0x0",
      "l1Fee": "0x0",
      "l1GasPrice": "0x13",
      "l1GasUsed": "0x1036"
    },
    {
      "status": "0x1",
      "cumulativeGasUsed": "0x37fd42",
      "logs": [
        {
          "address": "0x31d785d1866e0345f134606df75046f565f62ec1",
          "topics": [
            "0x99cdf36f9fc716110deb2ca0ea14e450ea70c719d430c86a653299701ee57dd7",
            "0x000000000000000000000000000000000000000000000000000000000000000a"
          ],
          "data": "0x0000000000000000000000000000000000000000000000000000000000000020000000000000000000000000000000000000000000000000000000000000000945636f73797374656d0000000000000000000000000000000000000000000000",
          "blockHash": "0x24d0764d6d96784258dce7255d48e84023979f5a521ef48aa1e1d7e83871ba3f",
          "blockNumber": "0x9f7edb",
          "transactionHash": "0x0cffd3f5c0f7382825c057f6bf141a0e5edc2c542c53ce5e2b8e22a33b52fae4",
          "transactionIndex": "0xc",
          "logIndex": "0x14",
          "removed": false
        }
      ],
      "logsBloom": "0x00000000000000000000000000000000000000000000000000000000000000000000000000000000000000000000000000000008040000000020000000000000000000000000000000000000000000000000000000000000040000000000000000000000000000000000000200000000000000000000000000000000000000000000000000000000010000000000000000000000000000000000000000000000000000000800000000000000000000000000000000000000000000000000000000000000000000000000000000000000000000000000000000000000000000000000000000000000000000000000000020000000000008000000000000000000",
      "type": "0x0",
      "transactionHash": "0x0cffd3f5c0f7382825c057f6bf141a0e5edc2c542c53ce5e2b8e22a33b52fae4",
      "transactionIndex": "0xc",
      "blockHash": "0x24d0764d6d96784258dce7255d48e84023979f5a521ef48aa1e1d7e83871ba3f",
      "blockNumber": "0x9f7edb",
      "gasUsed": "0x35567",
      "effectiveGasPrice": "0x5d22cfc40",
      "from": "0x1ff9ea9f062c31cff19ade558e34894f07cf7817",
      "to": "0x31d785d1866e0345f134606df75046f565f62ec1",
      "contractAddress": null,
      "l1BaseFeeScalar": "0x0",
      "l1BlobBaseFee": "0x3",
      "l1BlobBaseFeeScalar": "0x0",
      "l1Fee": "0x0",
      "l1GasPrice": "0x13",
      "l1GasUsed": "0xd20"
    },
    {
      "status": "0x1",
      "cumulativeGasUsed": "0x3b544d",
      "logs": [
        {
          "address": "0x31d785d1866e0345f134606df75046f565f62ec1",
          "topics": [
            "0x99cdf36f9fc716110deb2ca0ea14e450ea70c719d430c86a653299701ee57dd7",
            "0x000000000000000000000000000000000000000000000000000000000000000b"
          ],
          "data": "0x0000000000000000000000000000000000000000000000000000000000000020000000000000000000000000000000000000000000000000000000000000000b537461626c65636f696e73000000000000000000000000000000000000000000",
          "blockHash": "0x24d0764d6d96784258dce7255d48e84023979f5a521ef48aa1e1d7e83871ba3f",
          "blockNumber": "0x9f7edb",
          "transactionHash": "0xaf22721a42733e379152b983738350e472982839f7375fb0eb2f1a1f56f03177",
          "transactionIndex": "0xd",
          "logIndex": "0x15",
          "removed": false
        }
      ],
      "logsBloom": "0x00000000000000000000004000000000000000000000000000000000000000000000000000000000000000000000000000000008000000000000000000000000000000000000000000000000000000000000000000000000040000000000000000000000000000000000000200000000000000000000000000000000000000000000000000000000000000000000000000000000000000000000000000000000000000000800000000000000000000000000000000000000000000000000000000000000000000000000000000000000002000000000000000000000000000000000000000000000000000000000000020000000000008040000000000000000",
      "type": "0x0",
      "transactionHash": "0xaf22721a42733e379152b983738350e472982839f7375fb0eb2f1a1f56f03177",
      "transactionIndex": "0xd",
      "blockHash": "0x24d0764d6d96784258dce7255d48e84023979f5a521ef48aa1e1d7e83871ba3f",
      "blockNumber": "0x9f7edb",
      "gasUsed": "0x3570b",
      "effectiveGasPrice": "0x5d22cfc40",
      "from": "0x1ff9ea9f062c31cff19ade558e34894f07cf7817",
      "to": "0x31d785d1866e0345f134606df75046f565f62ec1",
      "contractAddress": null,
      "l1BaseFeeScalar": "0x0",
      "l1BlobBaseFee": "0x3",
      "l1BlobBaseFeeScalar": "0x0",
      "l1Fee": "0x0",
      "l1GasPrice": "0x13",
      "l1GasUsed": "0xe11"
    },
    {
      "status": "0x1",
      "cumulativeGasUsed": "0x3eaa50",
      "logs": [
        {
          "address": "0x31d785d1866e0345f134606df75046f565f62ec1",
          "topics": [
            "0x99cdf36f9fc716110deb2ca0ea14e450ea70c719d430c86a653299701ee57dd7",
            "0x000000000000000000000000000000000000000000000000000000000000000c"
          ],
          "data": "0x0000000000000000000000000000000000000000000000000000000000000020000000000000000000000000000000000000000000000000000000000000000a426c6f636b636861696e00000000000000000000000000000000000000000000",
          "blockHash": "0x24d0764d6d96784258dce7255d48e84023979f5a521ef48aa1e1d7e83871ba3f",
          "blockNumber": "0x9f7edb",
          "transactionHash": "0xcf198f2fba180480e00ea878c8d386f1b858c136b6442a53ca43cf65386f6a3c",
          "transactionIndex": "0xe",
          "logIndex": "0x16",
          "removed": false
        }
      ],
      "logsBloom": "0x00000000000000000000000000000000000002000000000000000000000000000000000000000200000000000000000000000008000000000000000000000000000000000000000000000000000000000000000000000000040000000000000000000000000000000000000200000000000000000000000000000000000000000000000000000000000000000000000000000000000000000000000000000000000000000800000000000000000000000000000000000000000000000000000000000000000000000000000000000000000000000000000000000000000000200000000000000000000000000000000020000000000008000000000000000000",
      "type": "0x0",
      "transactionHash": "0xcf198f2fba180480e00ea878c8d386f1b858c136b6442a53ca43cf65386f6a3c",
      "transactionIndex": "0xe",
      "blockHash": "0x24d0764d6d96784258dce7255d48e84023979f5a521ef48aa1e1d7e83871ba3f",
      "blockNumber": "0x9f7edb",
      "gasUsed": "0x35603",
      "effectiveGasPrice": "0x5d22cfc40",
      "from": "0x1ff9ea9f062c31cff19ade558e34894f07cf7817",
      "to": "0x31d785d1866e0345f134606df75046f565f62ec1",
      "contractAddress": null,
      "l1BaseFeeScalar": "0x0",
      "l1BlobBaseFee": "0x3",
      "l1BlobBaseFeeScalar": "0x0",
      "l1Fee": "0x0",
      "l1GasPrice": "0x13",
      "l1GasUsed": "0xd8b"
    },
    {
      "status": "0x1",
      "cumulativeGasUsed": "0x42af2c",
      "logs": [
        {
          "address": "0x31d785d1866e0345f134606df75046f565f62ec1",
          "topics": [
            "0x99cdf36f9fc716110deb2ca0ea14e450ea70c719d430c86a653299701ee57dd7",
            "0x000000000000000000000000000000000000000000000000000000000000000d"
          ],
          "data": "0x0000000000000000000000000000000000000000000000000000000000000020000000000000000000000000000000000000000000000000000000000000000a426c6f636b636861696e00000000000000000000000000000000000000000000",
          "blockHash": "0x24d0764d6d96784258dce7255d48e84023979f5a521ef48aa1e1d7e83871ba3f",
          "blockNumber": "0x9f7edb",
          "transactionHash": "0x9f7f8467b8c8a9c343c2c9980f9173c1dd45c137913207d2d57bfd5c159ac0f2",
          "transactionIndex": "0xf",
          "logIndex": "0x17",
          "removed": false
        }
      ],
      "logsBloom": "0x00000000000000000040000000000000000000000000000000000000000000000000000000000000000000000000000000000008000000000000000000000000000000000000000000000000000000000002000000000000040000000000000000000000000000000000000200000000000000000000000000000000000000000000000000000000000000000000000000000000000000000000000000000000000000000800000000000000000000000000000000000000000000000000000000000000000000000000000000000000000000000000000000000000000000020000000000000000000000000000000020000000000008000000000000000000",
      "type": "0x0",
      "transactionHash": "0x9f7f8467b8c8a9c343c2c9980f9173c1dd45c137913207d2d57bfd5c159ac0f2",
      "transactionIndex": "0xf",
      "blockHash": "0x24d0764d6d96784258dce7255d48e84023979f5a521ef48aa1e1d7e83871ba3f",
      "blockNumber": "0x9f7edb",
      "gasUsed": "0x404dc",
      "effectiveGasPrice": "0x5d22cfc40",
      "from": "0x1ff9ea9f062c31cff19ade558e34894f07cf7817",
      "to": "0x31d785d1866e0345f134606df75046f565f62ec1",
      "contractAddress": null,
      "l1BaseFeeScalar": "0x0",
      "l1BlobBaseFee": "0x3",
      "l1BlobBaseFeeScalar": "0x0",
      "l1Fee": "0x0",
      "l1GasPrice": "0x13",
      "l1GasUsed": "0xea4"
    },
    {
      "status": "0x1",
      "cumulativeGasUsed": "0x4b8bf",
      "logs": [
        {
          "address": "0x31d785d1866e0345f134606df75046f565f62ec1",
          "topics": [
            "0x99cdf36f9fc716110deb2ca0ea14e450ea70c719d430c86a653299701ee57dd7",
            "0x000000000000000000000000000000000000000000000000000000000000000e"
          ],
          "data": "0x0000000000000000000000000000000000000000000000000000000000000020000000000000000000000000000000000000000000000000000000000000000a426c6f636b636861696e00000000000000000000000000000000000000000000",
          "blockHash": "0x4f8af450bce0c3457b6c03ca82f33a72bbfddcf048f4cc08fc55605e88fa4b8e",
          "blockNumber": "0x9f7edc",
          "transactionHash": "0x5595829f6d7c8cb1b47126d83f48d96ee9e865310418405745561909f91a9c05",
          "transactionIndex": "0x1",
          "logIndex": "0x0",
          "removed": false
        }
      ],
      "logsBloom": "0x00000000000000000000000000000000000000000000000000000000000000000000000000000000000000000000000000000008000000000000000000000000000000000000000800000000000000000000000000000000040000000000000000000000000000000000000200000000000000000000000000000000000000000000000000000000000000000000000008000000000000000000000000000000000000000800000000000000000000000000000000000020000000000000000000000000000000000000000000000000000000000000000000000000000000000000000000000000000000000000000020000000000008000000000000000000",
      "type": "0x0",
      "transactionHash": "0x5595829f6d7c8cb1b47126d83f48d96ee9e865310418405745561909f91a9c05",
      "transactionIndex": "0x1",
      "blockHash": "0x4f8af450bce0c3457b6c03ca82f33a72bbfddcf048f4cc08fc55605e88fa4b8e",
      "blockNumber": "0x9f7edc",
      "gasUsed": "0x404eb",
      "effectiveGasPrice": "0x5d22cfc40",
      "from": "0x1ff9ea9f062c31cff19ade558e34894f07cf7817",
      "to": "0x31d785d1866e0345f134606df75046f565f62ec1",
      "contractAddress": null,
      "l1BaseFeeScalar": "0x0",
      "l1BlobBaseFee": "0x3",
      "l1BlobBaseFeeScalar": "0x0",
      "l1Fee": "0x0",
      "l1GasPrice": "0x13",
      "l1GasUsed": "0xf6d"
    }
  ],
  "libraries": [],
  "pending": [],
  "returns": {},
  "timestamp": 1763736689183,
  "chain": 11142220,
  "commit": "87be542"
}