{
  "transactions": [
    {
      "hash": "0x64345d7a42037c7986fb50698d714c5cee2bebe450d5554099078fffa2eae493",
      "transactionType": "CALL",
      "contractName": null,
      "contractAddress": "0xc4ae01295cfae3da96b044f1a4284a93837a644c",
      "function": "addQuestion(string,string[4],uint8,string)",
      "arguments": [
        "What is Celo?",
        "[A mobile-first blockchain platform, A cryptocurrency exchange, A digital wallet app, A mining hardware company]",
        "0",
        "Basics"
      ],
      "transaction": {
        "from": "0x1ff9ea9f062c31cff19ade558e34894f07cf7817",
        "to": "0xc4ae01295cfae3da96b044f1a4284a93837a644c",
        "gas": "0x57d5b",
        "value": "0x0",
        "input": "0xd6a70487000000000000000000000000000000000000000000000000000000000000008000000000000000000000000000000000000000000000000000000000000000c000000000000000000000000000000000000000000000000000000000000000000000000000000000000000000000000000000000000000000000000000000260000000000000000000000000000000000000000000000000000000000000000d576861742069732043656c6f3f00000000000000000000000000000000000000000000000000000000000000000000000000000000000000000000000000008000000000000000000000000000000000000000000000000000000000000000e000000000000000000000000000000000000000000000000000000000000001200000000000000000000000000000000000000000000000000000000000000160000000000000000000000000000000000000000000000000000000000000002241206d6f62696c652d666972737420626c6f636b636861696e20706c6174666f726d0000000000000000000000000000000000000000000000000000000000000000000000000000000000000000000000000000000000000000000000000019412063727970746f63757272656e63792065786368616e676500000000000000000000000000000000000000000000000000000000000000000000000000001441206469676974616c2077616c6c657420617070000000000000000000000000000000000000000000000000000000000000000000000000000000000000001941206d696e696e6720686172647761726520636f6d70616e790000000000000000000000000000000000000000000000000000000000000000000000000000064261736963730000000000000000000000000000000000000000000000000000",
        "nonce": "0x10",
        "chainId": "0xaa044c"
      },
      "additionalContracts": [],
      "isFixedGasLimit": false
    },
    {
      "hash": "0xf1267214f1e8630eb018b412e3b9128f2a927683bcd659509907ceada4e06c7e",
      "transactionType": "CALL",
      "contractName": null,
      "contractAddress": "0xc4ae01295cfae3da96b044f1a4284a93837a644c",
      "function": "addQuestion(string,string[4],uint8,string)",
      "arguments": [
        "What is Celo\\'s native stablecoin pegged to the US Dollar?",
        "[USDT, USDC, cUSD, DAI]",
        "2",
        "Stablecoins"
      ],
      "transaction": {
        "from": "0x1ff9ea9f062c31cff19ade558e34894f07cf7817",
        "to": "0xc4ae01295cfae3da96b044f1a4284a93837a644c",
        "gas": "0x5dd39",
        "value": "0x0",
        "input": "0xd6a70487000000000000000000000000000000000000000000000000000000000000008000000000000000000000000000000000000000000000000000000000000000e0000000000000000000000000000000000000000000000000000000000000000200000000000000000000000000000000000000000000000000000000000002600000000000000000000000000000000000000000000000000000000000000039576861742069732043656c6f2773206e617469766520737461626c65636f696e2070656767656420746f2074686520555320446f6c6c61723f00000000000000000000000000000000000000000000000000000000000000000000000000008000000000000000000000000000000000000000000000000000000000000000c00000000000000000000000000000000000000000000000000000000000000100000000000000000000000000000000000000000000000000000000000000014000000000000000000000000000000000000000000000000000000000000000045553445400000000000000000000000000000000000000000000000000000000000000000000000000000000000000000000000000000000000000000000000455534443000000000000000000000000000000000000000000000000000000000000000000000000000000000000000000000000000000000000000000000004635553440000000000000000000000000000000000000000000000000000000000000000000000000000000000000000000000000000000000000000000000034441490000000000000000000000000000000000000000000000000000000000000000000000000000000000000000000000000000000000000000000000000b537461626c65636f696e73000000000000000000000000000000000000000000",
        "nonce": "0x11",
        "chainId": "0xaa044c"
      },
      "additionalContracts": [],
      "isFixedGasLimit": false
    },
    {
      "hash": "0x9da4e1b67aa1e0382698ede06b5919dfb1816a9db8fa0dcf2f569d1216660d0d",
      "transactionType": "CALL",
      "contractName": null,
      "contractAddress": "0xc4ae01295cfae3da96b044f1a4284a93837a644c",
      "function": "addQuestion(string,string[4],uint8,string)",
      "arguments": [
        "What consensus mechanism does Celo use?",
        "[Proof of Work, Proof of Stake, Delegated Proof of Stake, Proof of Authority]",
        "1",
        "Technology"
      ],
      "transaction": {
        "from": "0x1ff9ea9f062c31cff19ade558e34894f07cf7817",
        "to": "0xc4ae01295cfae3da96b044f1a4284a93837a644c",
        "gas": "0x58c16",
        "value": "0x0",
        "input": "0xd6a70487000000000000000000000000000000000000000000000000000000000000008000000000000000000000000000000000000000000000000000000000000000e00000000000000000000000000000000000000000000000000000000000000001000000000000000000000000000000000000000000000000000000000000026000000000000000000000000000000000000000000000000000000000000000275768617420636f6e73656e737573206d656368616e69736d20646f65732043656c6f207573653f00000000000000000000000000000000000000000000000000000000000000000000000000000000000000000000000000000000000000008000000000000000000000000000000000000000000000000000000000000000c000000000000000000000000000000000000000000000000000000000000001000000000000000000000000000000000000000000000000000000000000000140000000000000000000000000000000000000000000000000000000000000000d50726f6f66206f6620576f726b00000000000000000000000000000000000000000000000000000000000000000000000000000000000000000000000000000e50726f6f66206f66205374616b65000000000000000000000000000000000000000000000000000000000000000000000000000000000000000000000000001844656c6567617465642050726f6f66206f66205374616b650000000000000000000000000000000000000000000000000000000000000000000000000000001250726f6f66206f6620417574686f726974790000000000000000000000000000000000000000000000000000000000000000000000000000000000000000000a546563686e6f6c6f677900000000000000000000000000000000000000000000",
        "nonce": "0x12",
        "chainId": "0xaa044c"
      },
      "additionalContracts": [],
      "isFixedGasLimit": false
    },
    {
      "hash": "0x84cfb38dc19dddc0148ea4a0dd9d0af1a4179a8eb52785a8a965351f698afc01",
      "transactionType": "CALL",
      "contractName": null,
      "contractAddress": "0xc4ae01295cfae3da96b044f1a4284a93837a644c",
      "function": "addQuestion(string,string[4],uint8,string)",
      "arguments": [
        "What is Celo\\'s primary mission?",
        "[To create the fastest blockchain, To build financial tools accessible to anyone with a mobile phone, To replace all traditional banks, To mine Bitcoin more efficiently]",
        "1",
        "Mission"
      ],
      "transaction": {
        "from": "0x1ff9ea9f062c31cff19ade558e34894f07cf7817",
        "to": "0xc4ae01295cfae3da96b044f1a4284a93837a644c",
        "gas": "0x771e5",
        "value": "0x0",
        "input": "0xd6a70487000000000000000000000000000000000000000000000000000000000000008000000000000000000000000000000000000000000000000000000000000000c000000000000000000000000000000000000000000000000000000000000000010000000000000000000000000000000000000000000000000000000000000280000000000000000000000000000000000000000000000000000000000000001f576861742069732043656c6f2773207072696d617279206d697373696f6e3f00000000000000000000000000000000000000000000000000000000000000008000000000000000000000000000000000000000000000000000000000000000c0000000000000000000000000000000000000000000000000000000000000014000000000000000000000000000000000000000000000000000000000000001800000000000000000000000000000000000000000000000000000000000000020546f2063726561746520746865206661737465737420626c6f636b636861696e0000000000000000000000000000000000000000000000000000000000000041546f206275696c642066696e616e6369616c20746f6f6c732061636365737369626c6520746f20616e796f6e6520776974682061206d6f62696c652070686f6e65000000000000000000000000000000000000000000000000000000000000000000000000000000000000000000000000000000000000000000000000000020546f207265706c61636520616c6c20747261646974696f6e616c2062616e6b730000000000000000000000000000000000000000000000000000000000000020546f206d696e6520426974636f696e206d6f726520656666696369656e746c7900000000000000000000000000000000000000000000000000000000000000074d697373696f6e00000000000000000000000000000000000000000000000000",
        "nonce": "0x13",
        "chainId": "0xaa044c"
      },
      "additionalContracts": [],
      "isFixedGasLimit": false
    },
    {
      "hash": "0x5ff36845b7e7fecc2fe58a82379d040ab93c70894496483932b47cebe1350ed3",
      "transactionType": "CALL",
      "contractName": null,
      "contractAddress": "0xc4ae01295cfae3da96b044f1a4284a93837a644c",
      "function": "addQuestion(string,string[4],uint8,string)",
      "arguments": [
        "What do Celo validators do?",
        "[Mine new blocks, Secure the network and validate transactions, Create new tokens, Manage user accounts]",
        "1",
        "Technology"
      ],
      "transaction": {
        "from": "0x1ff9ea9f062c31cff19ade558e34894f07cf7817",
        "to": "0xc4ae01295cfae3da96b044f1a4284a93837a644c",
        "gas": "0x58d2c",
        "value": "0x0",
        "input": "0xd6a70487000000000000000000000000000000000000000000000000000000000000008000000000000000000000000000000000000000000000000000000000000000c000000000000000000000000000000000000000000000000000000000000000010000000000000000000000000000000000000000000000000000000000000260000000000000000000000000000000000000000000000000000000000000001b5768617420646f2043656c6f2076616c696461746f727320646f3f0000000000000000000000000000000000000000000000000000000000000000000000008000000000000000000000000000000000000000000000000000000000000000c000000000000000000000000000000000000000000000000000000000000001200000000000000000000000000000000000000000000000000000000000000160000000000000000000000000000000000000000000000000000000000000000f4d696e65206e657720626c6f636b730000000000000000000000000000000000000000000000000000000000000000000000000000000000000000000000002c53656375726520746865206e6574776f726b20616e642076616c6964617465207472616e73616374696f6e7300000000000000000000000000000000000000000000000000000000000000000000000000000000000000000000000000000011437265617465206e657720746f6b656e7300000000000000000000000000000000000000000000000000000000000000000000000000000000000000000000144d616e6167652075736572206163636f756e7473000000000000000000000000000000000000000000000000000000000000000000000000000000000000000a546563686e6f6c6f677900000000000000000000000000000000000000000000",
        "nonce": "0x14",
        "chainId": "0xaa044c"
      },
      "additionalContracts": [],
      "isFixedGasLimit": false
    },
    {
      "hash": "0x809071d5a9cd43884caed63f83c83945eed5d115c51b9d77a851df36e5e690a4",
      "transactionType": "CALL",
      "contractName": null,
      "contractAddress": "0xc4ae01295cfae3da96b044f1a4284a93837a644c",
      "function": "addQuestion(string,string[4],uint8,string)",
      "arguments": [
        "What makes Celo unique in terms of environmental impact?",
        "[It uses solar power, It is carbon negative, It doesn\\'t use electricity, It plants trees]",
        "1",
        "Sustainability"
      ],
      "transaction": {
        "from": "0x1ff9ea9f062c31cff19ade558e34894f07cf7817",
        "to": "0xc4ae01295cfae3da96b044f1a4284a93837a644c",
        "gas": "0x5e1e3",
        "value": "0x0",
        "input": "0xd6a70487000000000000000000000000000000000000000000000000000000000000008000000000000000000000000000000000000000000000000000000000000000e000000000000000000000000000000000000000000000000000000000000000010000000000000000000000000000000000000000000000000000000000000260000000000000000000000000000000000000000000000000000000000000003857686174206d616b65732043656c6f20756e6971756520696e207465726d73206f6620656e7669726f6e6d656e74616c20696d706163743f0000000000000000000000000000000000000000000000000000000000000000000000000000008000000000000000000000000000000000000000000000000000000000000000c00000000000000000000000000000000000000000000000000000000000000100000000000000000000000000000000000000000000000000000000000000014000000000000000000000000000000000000000000000000000000000000000134974207573657320736f6c617220706f776572000000000000000000000000000000000000000000000000000000000000000000000000000000000000000015497420697320636172626f6e206e656761746976650000000000000000000000000000000000000000000000000000000000000000000000000000000000001a497420646f65736e27742075736520656c656374726963697479000000000000000000000000000000000000000000000000000000000000000000000000000f497420706c616e74732074726565730000000000000000000000000000000000000000000000000000000000000000000000000000000000000000000000000e5375737461696e6162696c697479000000000000000000000000000000000000",
        "nonce": "0x15",
        "chainId": "0xaa044c"
      },
      "additionalContracts": [],
      "isFixedGasLimit": false
    },
    {
      "hash": "0xafa8cd54e6c9fb24113f3f870a42f236079ce4d6a5c5883c6f6a2a6e6d0833de",
      "transactionType": "CALL",
      "contractName": null,
      "contractAddress": "0xc4ae01295cfae3da96b044f1a4284a93837a644c",
      "function": "addQuestion(string,string[4],uint8,string)",
      "arguments": [
        "How does Celo enable easy wallet recovery?",
        "[Email verification, Phone number mapping to wallet addresses, Fingerprint scanning, Face recognition]",
        "1",
        "Features"
      ],
      "transaction": {
        "from": "0x1ff9ea9f062c31cff19ade558e34894f07cf7817",
        "to": "0xc4ae01295cfae3da96b044f1a4284a93837a644c",
        "gas": "0x67e1d",
        "value": "0x0",
        "input": "0xd6a70487000000000000000000000000000000000000000000000000000000000000008000000000000000000000000000000000000000000000000000000000000000e000000000000000000000000000000000000000000000000000000000000000010000000000000000000000000000000000000000000000000000000000000280000000000000000000000000000000000000000000000000000000000000002a486f7720646f65732043656c6f20656e61626c6520656173792077616c6c6574207265636f766572793f00000000000000000000000000000000000000000000000000000000000000000000000000000000000000000000000000000000008000000000000000000000000000000000000000000000000000000000000000c0000000000000000000000000000000000000000000000000000000000000012000000000000000000000000000000000000000000000000000000000000001600000000000000000000000000000000000000000000000000000000000000012456d61696c20766572696669636174696f6e0000000000000000000000000000000000000000000000000000000000000000000000000000000000000000002850686f6e65206e756d626572206d617070696e6720746f2077616c6c657420616464726573736573000000000000000000000000000000000000000000000000000000000000000000000000000000000000000000000000000000000000001446696e6765727072696e74207363616e6e696e67000000000000000000000000000000000000000000000000000000000000000000000000000000000000001046616365207265636f676e6974696f6e0000000000000000000000000000000000000000000000000000000000000000000000000000000000000000000000084665617475726573000000000000000000000000000000000000000000000000",
        "nonce": "0x16",
        "chainId": "0xaa044c"
      },
      "additionalContracts": [],
      "isFixedGasLimit": false
    },
    {
      "hash": "0xb6a069d5d19a0057330fbcc5000b8c6cd460bff5d1a247ea1acafd76510bb304",
      "transactionType": "CALL",
      "contractName": null,
      "contractAddress": "0xc4ae01295cfae3da96b044f1a4284a93837a644c",
      "function": "addQuestion(string,string[4],uint8,string)",
      "arguments": [
        "What is Celo\\'s governance token called?",
        "[CELO, CEL, CGOV, CUSD]",
        "0",
        "Tokens"
      ],
      "transaction": {
        "from": "0x1ff9ea9f062c31cff19ade558e34894f07cf7817",
        "to": "0xc4ae01295cfae3da96b044f1a4284a93837a644c",
        "gas": "0x51ce5",
        "value": "0x0",
        "input": "0xd6a70487000000000000000000000000000000000000000000000000000000000000008000000000000000000000000000000000000000000000000000000000000000e0000000000000000000000000000000000000000000000000000000000000000000000000000000000000000000000000000000000000000000000000000002600000000000000000000000000000000000000000000000000000000000000027576861742069732043656c6f277320676f7665726e616e636520746f6b656e2063616c6c65643f00000000000000000000000000000000000000000000000000000000000000000000000000000000000000000000000000000000000000008000000000000000000000000000000000000000000000000000000000000000c000000000000000000000000000000000000000000000000000000000000001000000000000000000000000000000000000000000000000000000000000000140000000000000000000000000000000000000000000000000000000000000000443454c4f00000000000000000000000000000000000000000000000000000000000000000000000000000000000000000000000000000000000000000000000343454c0000000000000000000000000000000000000000000000000000000000000000000000000000000000000000000000000000000000000000000000000443474f5600000000000000000000000000000000000000000000000000000000000000000000000000000000000000000000000000000000000000000000000443555344000000000000000000000000000000000000000000000000000000000000000000000000000000000000000000000000000000000000000000000006546f6b656e730000000000000000000000000000000000000000000000000000",
        "nonce": "0x17",
        "chainId": "0xaa044c"
      },
      "additionalContracts": [],
      "isFixedGasLimit": false
    },
    {
      "hash": "0x10b9edac8433f4d4d8bbe64146d6049aab489921b765f30fa324daffe02533fc",
      "transactionType": "CALL",
      "contractName": null,
      "contractAddress": "0xc4ae01295cfae3da96b044f1a4284a93837a644c",
      "function": "addQuestion(string,string[4],uint8,string)",
      "arguments": [
        "What can be used to pay for transaction fees on Celo?",
        "[Only CELO tokens, Only cUSD, Any Celo stablecoin or CELO, Bitcoin]",
        "2",
        "Features"
      ],
      "transaction": {
        "from": "0x1ff9ea9f062c31cff19ade558e34894f07cf7817",
        "to": "0xc4ae01295cfae3da96b044f1a4284a93837a644c",
        "gas": "0x58c38",
        "value": "0x0",
        "input": "0xd6a70487000000000000000000000000000000000000000000000000000000000000008000000000000000000000000000000000000000000000000000000000000000e0000000000000000000000000000000000000000000000000000000000000000200000000000000000000000000000000000000000000000000000000000002600000000000000000000000000000000000000000000000000000000000000035576861742063616e206265207573656420746f2070617920666f72207472616e73616374696f6e2066656573206f6e2043656c6f3f0000000000000000000000000000000000000000000000000000000000000000000000000000000000008000000000000000000000000000000000000000000000000000000000000000c00000000000000000000000000000000000000000000000000000000000000100000000000000000000000000000000000000000000000000000000000000014000000000000000000000000000000000000000000000000000000000000000104f6e6c792043454c4f20746f6b656e730000000000000000000000000000000000000000000000000000000000000000000000000000000000000000000000094f6e6c7920635553440000000000000000000000000000000000000000000000000000000000000000000000000000000000000000000000000000000000001b416e792043656c6f20737461626c65636f696e206f722043454c4f00000000000000000000000000000000000000000000000000000000000000000000000007426974636f696e0000000000000000000000000000000000000000000000000000000000000000000000000000000000000000000000000000000000000000084665617475726573000000000000000000000000000000000000000000000000",
        "nonce": "0x18",
        "chainId": "0xaa044c"
      },
      "additionalContracts": [],
      "isFixedGasLimit": false
    },
    {
      "hash": "0xedab122f019ee893c1bde9fdac711b75c48c69450969e4e395dd6284c1a275c5",
      "transactionType": "CALL",
      "contractName": null,
      "contractAddress": "0xc4ae01295cfae3da96b044f1a4284a93837a644c",
      "function": "addQuestion(string,string[4],uint8,string)",
      "arguments": [
        "Is Celo compatible with Ethereum smart contracts?",
        "[No, completely different, Yes, it\\'s EVM compatible, Only partially compatible, It uses a different programming language]",
        "1",
        "Technology"
      ],
      "transaction": {
        "from": "0x1ff9ea9f062c31cff19ade558e34894f07cf7817",
        "to": "0xc4ae01295cfae3da96b044f1a4284a93837a644c",
        "gas": "0x67fdc",
        "value": "0x0",
        "input": "0xd6a70487000000000000000000000000000000000000000000000000000000000000008000000000000000000000000000000000000000000000000000000000000000e000000000000000000000000000000000000000000000000000000000000000010000000000000000000000000000000000000000000000000000000000000280000000000000000000000000000000000000000000000000000000000000003149732043656c6f20636f6d70617469626c65207769746820457468657265756d20736d61727420636f6e7472616374733f000000000000000000000000000000000000000000000000000000000000000000000000000000000000000000008000000000000000000000000000000000000000000000000000000000000000c00000000000000000000000000000000000000000000000000000000000000100000000000000000000000000000000000000000000000000000000000000014000000000000000000000000000000000000000000000000000000000000000184e6f2c20636f6d706c6574656c7920646966666572656e74000000000000000000000000000000000000000000000000000000000000000000000000000000185965732c20697427732045564d20636f6d70617469626c65000000000000000000000000000000000000000000000000000000000000000000000000000000194f6e6c79207061727469616c6c7920636f6d70617469626c6500000000000000000000000000000000000000000000000000000000000000000000000000002849742075736573206120646966666572656e742070726f6772616d6d696e67206c616e6775616765000000000000000000000000000000000000000000000000000000000000000000000000000000000000000000000000000000000000000a546563686e6f6c6f677900000000000000000000000000000000000000000000",
        "nonce": "0x19",
        "chainId": "0xaa044c"
      },
      "additionalContracts": [],
      "isFixedGasLimit": false
    },
    {
      "hash": "0x50aed19e9a33f9e4775d54f9bebd45785d85bd9e70c49a3c196a711d5546f9bb",
      "transactionType": "CALL",
      "contractName": null,
      "contractAddress": "0xc4ae01295cfae3da96b044f1a4284a93837a644c",
      "function": "addQuestion(string,string[4],uint8,string)",
      "arguments": [
        "What is MiniPay?",
        "[A Celo mining pool, A mobile wallet built on Celo, A payment gateway, A stablecoin]",
        "1",
        "Ecosystem"
      ],
      "transaction": {
        "from": "0x1ff9ea9f062c31cff19ade558e34894f07cf7817",
        "to": "0xc4ae01295cfae3da96b044f1a4284a93837a644c",
        "gas": "0x49ac2",
        "value": "0x0",
        "input": "0xd6a70487000000000000000000000000000000000000000000000000000000000000008000000000000000000000000000000000000000000000000000000000000000c000000000000000000000000000000000000000000000000000000000000000010000000000000000000000000000000000000000000000000000000000000240000000000000000000000000000000000000000000000000000000000000001057686174206973204d696e695061793f00000000000000000000000000000000000000000000000000000000000000000000000000000000000000000000008000000000000000000000000000000000000000000000000000000000000000c0000000000000000000000000000000000000000000000000000000000000010000000000000000000000000000000000000000000000000000000000000001400000000000000000000000000000000000000000000000000000000000000012412043656c6f206d696e696e6720706f6f6c0000000000000000000000000000000000000000000000000000000000000000000000000000000000000000001d41206d6f62696c652077616c6c6574206275696c74206f6e2043656c6f000000000000000000000000000000000000000000000000000000000000000000001141207061796d656e742067617465776179000000000000000000000000000000000000000000000000000000000000000000000000000000000000000000000c4120737461626c65636f696e0000000000000000000000000000000000000000000000000000000000000000000000000000000000000000000000000000000945636f73797374656d0000000000000000000000000000000000000000000000",
        "nonce": "0x1a",
        "chainId": "0xaa044c"
      },
      "additionalContracts": [],
      "isFixedGasLimit": false
    },
    {
      "hash": "0xb98064c97448597f92c2b4ca0770ed556bff6153ef88d76a3003ae258df0b5a0",
      "transactionType": "CALL",
      "contractName": null,
      "contractAddress": "0xc4ae01295cfae3da96b044f1a4284a93837a644c",
      "function": "addQuestion(string,string[4],uint8,string)",
      "arguments": [
        "What backs Celo stablecoins?",
        "[US Dollar reserves in banks, Gold reserves, A diversified crypto reserve, Nothing, they are algorithmic]",
        "2",
        "Stablecoins"
      ],
      "transaction": {
        "from": "0x1ff9ea9f062c31cff19ade558e34894f07cf7817",
        "to": "0xc4ae01295cfae3da96b044f1a4284a93837a644c",
        "gas": "0x4e27f",
        "value": "0x0",
        "input": "0xd6a70487000000000000000000000000000000000000000000000000000000000000008000000000000000000000000000000000000000000000000000000000000000c000000000000000000000000000000000000000000000000000000000000000020000000000000000000000000000000000000000000000000000000000000240000000000000000000000000000000000000000000000000000000000000001c57686174206261636b732043656c6f20737461626c65636f696e733f00000000000000000000000000000000000000000000000000000000000000000000008000000000000000000000000000000000000000000000000000000000000000c000000000000000000000000000000000000000000000000000000000000001000000000000000000000000000000000000000000000000000000000000000140000000000000000000000000000000000000000000000000000000000000001b555320446f6c6c617220726573657276657320696e2062616e6b730000000000000000000000000000000000000000000000000000000000000000000000000d476f6c6420726573657276657300000000000000000000000000000000000000000000000000000000000000000000000000000000000000000000000000001c412064697665727369666965642063727970746f207265736572766500000000000000000000000000000000000000000000000000000000000000000000001d4e6f7468696e672c20746865792061726520616c676f726974686d6963000000000000000000000000000000000000000000000000000000000000000000000b537461626c65636f696e73000000000000000000000000000000000000000000",
        "nonce": "0x1b",
        "chainId": "0xaa044c"
      },
      "additionalContracts": [],
      "isFixedGasLimit": false
    },
    {
      "hash": "0x39b81070db1c125dd0d48bae966c02a74276b43c85c227ed34bdac84dff52d04",
      "transactionType": "CALL",
      "contractName": null,
      "contractAddress": "0xc4ae01295cfae3da96b044f1a4284a93837a644c",
      "function": "addQuestion(string,string[4],uint8,string)",
      "arguments": [
        "What is the approximate block time on Celo?",
        "[1 second, 5 seconds, 15 seconds, 1 minute]",
        "1",
        "Technology"
      ],
      "transaction": {
        "from": "0x1ff9ea9f062c31cff19ade558e34894f07cf7817",
        "to": "0xc4ae01295cfae3da96b044f1a4284a93837a644c",
        "gas": "0x58a25",
        "value": "0x0",
        "input": "0xd6a70487000000000000000000000000000000000000000000000000000000000000008000000000000000000000000000000000000000000000000000000000000000e000000000000000000000000000000000000000000000000000000000000000010000000000000000000000000000000000000000000000000000000000000260000000000000000000000000000000000000000000000000000000000000002b576861742069732074686520617070726f78696d61746520626c6f636b2074696d65206f6e2043656c6f3f000000000000000000000000000000000000000000000000000000000000000000000000000000000000000000000000000000008000000000000000000000000000000000000000000000000000000000000000c000000000000000000000000000000000000000000000000000000000000001000000000000000000000000000000000000000000000000000000000000000140000000000000000000000000000000000000000000000000000000000000000831207365636f6e64000000000000000000000000000000000000000000000000000000000000000000000000000000000000000000000000000000000000000935207365636f6e64730000000000000000000000000000000000000000000000000000000000000000000000000000000000000000000000000000000000000a3135207365636f6e647300000000000000000000000000000000000000000000000000000000000000000000000000000000000000000000000000000000000831206d696e757465000000000000000000000000000000000000000000000000000000000000000000000000000000000000000000000000000000000000000a546563686e6f6c6f677900000000000000000000000000000000000000000000",
        "nonce": "0x1c",
        "chainId": "0xaa044c"
      },
      "additionalContracts": [],
      "isFixedGasLimit": false
    },
    {
      "hash": "0x5d4b657daf58d951752ec25e6701f7d88ca03c1cfda0cb7bf8f483e5f46f5969",
      "transactionType": "CALL",
      "contractName": null,
      "contractAddress": "0xc4ae01295cfae3da96b044f1a4284a93837a644c",
      "function": "addQuestion(string,string[4],uint8,string)",
      "arguments": [
        "What is the Celo Alliance for Prosperity?",
        "[A mining consortium, A coalition of organizations building on Celo, A charity foundation, A validator group]",
        "1",
        "Ecosystem"
      ],
      "transaction": {
        "from": "0x1ff9ea9f062c31cff19ade558e34894f07cf7817",
        "to": "0xc4ae01295cfae3da96b044f1a4284a93837a644c",
        "gas": "0x67e91",
        "value": "0x0",
        "input": "0xd6a70487000000000000000000000000000000000000000000000000000000000000008000000000000000000000000000000000000000000000000000000000000000e000000000000000000000000000000000000000000000000000000000000000010000000000000000000000000000000000000000000000000000000000000280000000000000000000000000000000000000000000000000000000000000002957686174206973207468652043656c6f20416c6c69616e636520666f722050726f737065726974793f0000000000000000000000000000000000000000000000000000000000000000000000000000000000000000000000000000000000008000000000000000000000000000000000000000000000000000000000000000c000000000000000000000000000000000000000000000000000000000000001200000000000000000000000000000000000000000000000000000000000000160000000000000000000000000000000000000000000000000000000000000001341206d696e696e6720636f6e736f727469756d00000000000000000000000000000000000000000000000000000000000000000000000000000000000000002d4120636f616c6974696f6e206f66206f7267616e697a6174696f6e73206275696c64696e67206f6e2043656c6f00000000000000000000000000000000000000000000000000000000000000000000000000000000000000000000000000001441206368617269747920666f756e646174696f6e0000000000000000000000000000000000000000000000000000000000000000000000000000000000000011412076616c696461746f722067726f7570000000000000000000000000000000000000000000000000000000000000000000000000000000000000000000000945636f73797374656d0000000000000000000000000000000000000000000000",
        "nonce": "0x1d",
        "chainId": "0xaa044c"
      },
      "additionalContracts": [],
      "isFixedGasLimit": false
    },
    {
      "hash": "0x1f8cc7678303b91898686a1bc78d9c6ac19683a6cb5886a1f1452ec51c852f07",
      "transactionType": "CALL",
      "contractName": null,
      "contractAddress": "0xc4ae01295cfae3da96b044f1a4284a93837a644c",
      "function": "addQuestion(string,string[4],uint8,string)",
      "arguments": [
        "Which region is Celo particularly focused on serving?",
        "[North America only, Europe only, Global, with emphasis on emerging markets, Asia only]",
        "2",
        "Mission"
      ],
      "transaction": {
        "from": "0x1ff9ea9f062c31cff19ade558e34894f07cf7817",
        "to": "0xc4ae01295cfae3da96b044f1a4284a93837a644c",
        "gas": "0x67dba",
        "value": "0x0",
        "input": "0xd6a70487000000000000000000000000000000000000000000000000000000000000008000000000000000000000000000000000000000000000000000000000000000e0000000000000000000000000000000000000000000000000000000000000000200000000000000000000000000000000000000000000000000000000000002800000000000000000000000000000000000000000000000000000000000000035576869636820726567696f6e2069732043656c6f20706172746963756c61726c7920666f6375736564206f6e2073657276696e673f0000000000000000000000000000000000000000000000000000000000000000000000000000000000008000000000000000000000000000000000000000000000000000000000000000c00000000000000000000000000000000000000000000000000000000000000100000000000000000000000000000000000000000000000000000000000000016000000000000000000000000000000000000000000000000000000000000000124e6f72746820416d6572696361206f6e6c790000000000000000000000000000000000000000000000000000000000000000000000000000000000000000000b4575726f7065206f6e6c790000000000000000000000000000000000000000000000000000000000000000000000000000000000000000000000000000000029476c6f62616c2c207769746820656d706861736973206f6e20656d657267696e67206d61726b6574730000000000000000000000000000000000000000000000000000000000000000000000000000000000000000000000000000000000000941736961206f6e6c79000000000000000000000000000000000000000000000000000000000000000000000000000000000000000000000000000000000000074d697373696f6e00000000000000000000000000000000000000000000000000",
        "nonce": "0x1e",
        "chainId": "0xaa044c"
      },
      "additionalContracts": [],
      "isFixedGasLimit": false
    }
  ],
  "receipts": [
    {
      "status": "0x1",
      "cumulativeGasUsed": "0x4b068",
      "logs": [
        {
          "address": "0xc4ae01295cfae3da96b044f1a4284a93837a644c",
          "topics": [
            "0x99cdf36f9fc716110deb2ca0ea14e450ea70c719d430c86a653299701ee57dd7",
            "0x0000000000000000000000000000000000000000000000000000000000000000"
          ],
          "data": "0x000000000000000000000000000000000000000000000000000000000000002000000000000000000000000000000000000000000000000000000000000000064261736963730000000000000000000000000000000000000000000000000000",
          "blockHash": "0x92fc76422f97bc41749d372afc15870e5fc1d1168eafc7d0391bca287fd8352d",
          "blockNumber": "0x9edac7",
          "transactionHash": "0x64345d7a42037c7986fb50698d714c5cee2bebe450d5554099078fffa2eae493",
          "transactionIndex": "0x1",
          "logIndex": "0x0",
          "removed": false
        }
      ],
      "logsBloom": "0x00000000000000000000000000000000000000000000000000001000000000000000000000000000000000000000000000040000000000000000000000000000000000000000000000000000000000000000000000000000040000000000000000000000020000000000000000000800000000000000000000000000000000000000000000000000000000000000000000000000000000000000000000000000000000000800000000000000000000000000000000000000000000000000000000000000000000000000000000000000000000000000000000000000000020000000000000000000000000000002000000000000000008000000000000000000",
      "type": "0x0",
      "transactionHash": "0x64345d7a42037c7986fb50698d714c5cee2bebe450d5554099078fffa2eae493",
      "transactionIndex": "0x1",
      "blockHash": "0x92fc76422f97bc41749d372afc15870e5fc1d1168eafc7d0391bca287fd8352d",
      "blockNumber": "0x9edac7",
      "gasUsed": "0x3f974",
      "effectiveGasPrice": "0x5d22cfc40",
      "from": "0x1ff9ea9f062c31cff19ade558e34894f07cf7817",
      "to": "0xc4ae01295cfae3da96b044f1a4284a93837a644c",
      "contractAddress": null,
      "l1BaseFeeScalar": "0x0",
      "l1BlobBaseFee": "0x2",
      "l1BlobBaseFeeScalar": "0x0",
      "l1Fee": "0x0",
      "l1GasPrice": "0xc",
      "l1GasUsed": "0xe97"
    },
    {
      "status": "0x1",
      "cumulativeGasUsed": "0x8b2e3",
      "logs": [
        {
          "address": "0xc4ae01295cfae3da96b044f1a4284a93837a644c",
          "topics": [
            "0x99cdf36f9fc716110deb2ca0ea14e450ea70c719d430c86a653299701ee57dd7",
            "0x0000000000000000000000000000000000000000000000000000000000000001"
          ],
          "data": "0x0000000000000000000000000000000000000000000000000000000000000020000000000000000000000000000000000000000000000000000000000000000b537461626c65636f696e73000000000000000000000000000000000000000000",
          "blockHash": "0x92fc76422f97bc41749d372afc15870e5fc1d1168eafc7d0391bca287fd8352d",
          "blockNumber": "0x9edac7",
          "transactionHash": "0xf1267214f1e8630eb018b412e3b9128f2a927683bcd659509907ceada4e06c7e",
          "transactionIndex": "0x2",
          "logIndex": "0x1",
          "removed": false
        }
      ],
      "logsBloom": "0x00000000000000000000000000000000000000000000000000001000000000000000000000000000000000000000000000040000000000000000000000040000000000000000000000000000000000000000000000040000040000000000000000000000000000000000000000000000000000000000000000000000000000000000000000000000000000000000000000000000000000000000000000000000000000000800000000000000000000000000000000000000000000000000000000000000000000000000000000000000000000000000000000000000000040000000000000000000000000000002000000000000000008000000000000000000",
      "type": "0x0",
      "transactionHash": "0xf1267214f1e8630eb018b412e3b9128f2a927683bcd659509907ceada4e06c7e",
      "transactionIndex": "0x2",
      "blockHash": "0x92fc76422f97bc41749d372afc15870e5fc1d1168eafc7d0391bca287fd8352d",
      "blockNumber": "0x9edac7",
      "gasUsed": "0x4027b",
      "effectiveGasPrice": "0x5d22cfc40",
      "from": "0x1ff9ea9f062c31cff19ade558e34894f07cf7817",
      "to": "0xc4ae01295cfae3da96b044f1a4284a93837a644c",
      "contractAddress": null,
      "l1BaseFeeScalar": "0x0",
      "l1BlobBaseFee": "0x2",
      "l1BlobBaseFeeScalar": "0x0",
      "l1Fee": "0x0",
      "l1GasPrice": "0xc",
      "l1GasUsed": "0xcf8"
    },
    {
      "status": "0x1",
      "cumulativeGasUsed": "0xcb702",
      "logs": [
        {
          "address": "0xc4ae01295cfae3da96b044f1a4284a93837a644c",
          "topics": [
            "0x99cdf36f9fc716110deb2ca0ea14e450ea70c719d430c86a653299701ee57dd7",
            "0x0000000000000000000000000000000000000000000000000000000000000002"
          ],
          "data": "0x0000000000000000000000000000000000000000000000000000000000000020000000000000000000000000000000000000000000000000000000000000000a546563686e6f6c6f677900000000000000000000000000000000000000000000",
          "blockHash": "0x92fc76422f97bc41749d372afc15870e5fc1d1168eafc7d0391bca287fd8352d",
          "blockNumber": "0x9edac7",
          "transactionHash": "0x9da4e1b67aa1e0382698ede06b5919dfb1816a9db8fa0dcf2f569d1216660d0d",
          "transactionIndex": "0x3",
          "logIndex": "0x2",
          "removed": false
        }
      ],
      "logsBloom": "0x04000000000000000000000000000000000000000000000000001000000000000000000000000000000000000000000000040000000000000000000000000000000000000000000000000000000000000000000000000000040000000000000000000000000000000000000000000000000000000000000000000000000000000000000000000000000000000000000000000000000000000000000000000000000000000800000000000100000000000000000000000000000000000000000000000000000000000000000000000000000000000000000000000000000000000000000000000000000000000002000000000000008008000000000000000000",
      "type": "0x0",
      "transactionHash": "0x9da4e1b67aa1e0382698ede06b5919dfb1816a9db8fa0dcf2f569d1216660d0d",
      "transactionIndex": "0x3",
      "blockHash": "0x92fc76422f97bc41749d372afc15870e5fc1d1168eafc7d0391bca287fd8352d",
      "blockNumber": "0x9edac7",
      "gasUsed": "0x4041f",
      "effectiveGasPrice": "0x5d22cfc40",
      "from": "0x1ff9ea9f062c31cff19ade558e34894f07cf7817",
      "to": "0xc4ae01295cfae3da96b044f1a4284a93837a644c",
      "contractAddress": null,
      "l1BaseFeeScalar": "0x0",
      "l1BlobBaseFee": "0x2",
      "l1BlobBaseFeeScalar": "0x0",
      "l1Fee": "0x0",
      "l1GasPrice": "0xc",
      "l1GasUsed": "0xd63"
    },
    {
      "status": "0x1",
      "cumulativeGasUsed": "0x121ad8",
      "logs": [
        {
          "address": "0xc4ae01295cfae3da96b044f1a4284a93837a644c",
          "topics": [
            "0x99cdf36f9fc716110deb2ca0ea14e450ea70c719d430c86a653299701ee57dd7",
            "0x0000000000000000000000000000000000000000000000000000000000000003"
          ],
          "data": "0x000000000000000000000000000000000000000000000000000000000000002000000000000000000000000000000000000000000000000000000000000000074d697373696f6e00000000000000000000000000000000000000000000000000",
          "blockHash": "0x92fc76422f97bc41749d372afc15870e5fc1d1168eafc7d0391bca287fd8352d",
          "blockNumber": "0x9edac7",
          "transactionHash": "0x84cfb38dc19dddc0148ea4a0dd9d0af1a4179a8eb52785a8a965351f698afc01",
          "transactionIndex": "0x4",
          "logIndex": "0x3",
          "removed": false
        }
      ],
      "logsBloom": "0x00000000000000000000000000000000000000000000000000001000000000000000000000000000000000000000000000040000020000000000000000000000000000000000000000000000000000000000000000000000040000000000000000000000000000000000000000000000000000000000000000000000000000000000000000000000000000000000000000000000000000000000000000000000000000000800000000000000000000000000000000800000000000000000400000000000000000000000000000000000000000000000000000000000000000000000000000000000000000000002000000000000000008000000000000000000",
      "type": "0x0",
      "transactionHash": "0x84cfb38dc19dddc0148ea4a0dd9d0af1a4179a8eb52785a8a965351f698afc01",
      "transactionIndex": "0x4",
      "blockHash": "0x92fc76422f97bc41749d372afc15870e5fc1d1168eafc7d0391bca287fd8352d",
      "blockNumber": "0x9edac7",
      "gasUsed": "0x563d6",
      "effectiveGasPrice": "0x5d22cfc40",
      "from": "0x1ff9ea9f062c31cff19ade558e34894f07cf7817",
      "to": "0xc4ae01295cfae3da96b044f1a4284a93837a644c",
      "contractAddress": null,
      "l1BaseFeeScalar": "0x0",
      "l1BlobBaseFee": "0x2",
      "l1BlobBaseFeeScalar": "0x0",
      "l1Fee": "0x0",
      "l1GasPrice": "0xc",
      "l1GasUsed": "0x11e2"
    },
    {
      "status": "0x1",
      "cumulativeGasUsed": "0x161fc0",
      "logs": [
        {
          "address": "0xc4ae01295cfae3da96b044f1a4284a93837a644c",
          "topics": [
            "0x99cdf36f9fc716110deb2ca0ea14e450ea70c719d430c86a653299701ee57dd7",
            "0x0000000000000000000000000000000000000000000000000000000000000004"
          ],
          "data": "0x0000000000000000000000000000000000000000000000000000000000000020000000000000000000000000000000000000000000000000000000000000000a546563686e6f6c6f677900000000000000000000000000000000000000000000",
          "blockHash": "0x92fc76422f97bc41749d372afc15870e5fc1d1168eafc7d0391bca287fd8352d",
          "blockNumber": "0x9edac7",
          "transactionHash": "0x5ff36845b7e7fecc2fe58a82379d040ab93c70894496483932b47cebe1350ed3",
          "transactionIndex": "0x5",
          "logIndex": "0x4",
          "removed": false
        }
      ],
      "logsBloom": "0x00000000000000000000000000000000000000000000000000001000000000000000000000000000000000000000000000040000000000000000000000000000000000000000000000000000000000000000000000000000040000000000000008000000000000000000000000000000000000000000000000000000000000000000000000000000000000000000000000000000000000000000000000000000000000000800000000000000000000000000000000000000002000000000000000000000000000000000000000000000000000008000000000000000000000000000000000000000000000000002000000000000000008000000000000000000",
      "type": "0x0",
      "transactionHash": "0x5ff36845b7e7fecc2fe58a82379d040ab93c70894496483932b47cebe1350ed3",
      "transactionIndex": "0x5",
      "blockHash": "0x92fc76422f97bc41749d372afc15870e5fc1d1168eafc7d0391bca287fd8352d",
      "blockNumber": "0x9edac7",
      "gasUsed": "0x404e8",
      "effectiveGasPrice": "0x5d22cfc40",
      "from": "0x1ff9ea9f062c31cff19ade558e34894f07cf7817",
      "to": "0xc4ae01295cfae3da96b044f1a4284a93837a644c",
      "contractAddress": null,
      "l1BaseFeeScalar": "0x0",
      "l1BlobBaseFee": "0x2",
      "l1BlobBaseFeeScalar": "0x0",
      "l1Fee": "0x0",
      "l1GasPrice": "0xc",
      "l1GasUsed": "0xe54"
    },
    {
      "status": "0x1",
      "cumulativeGasUsed": "0x1a256b",
      "logs": [
        {
          "address": "0xc4ae01295cfae3da96b044f1a4284a93837a644c",
          "topics": [
            "0x99cdf36f9fc716110deb2ca0ea14e450ea70c719d430c86a653299701ee57dd7",
            "0x0000000000000000000000000000000000000000000000000000000000000005"
          ],
          "data": "0x0000000000000000000000000000000000000000000000000000000000000020000000000000000000000000000000000000000000000000000000000000000e5375737461696e6162696c697479000000000000000000000000000000000000",
          "blockHash": "0x92fc76422f97bc41749d372afc15870e5fc1d1168eafc7d0391bca287fd8352d",
          "blockNumber": "0x9edac7",
          "transactionHash": "0x809071d5a9cd43884caed63f83c83945eed5d115c51b9d77a851df36e5e690a4",
          "transactionIndex": "0x6",
          "logIndex": "0x5",
          "removed": false
        }
      ],
      "logsBloom": "0x00000000000000000000000000000000000000000000000000001000000000000000000000000000000000000000000000040000000000000000000000000000000010000000000000000000000000000000000000000000040000000000000000000000000000000000000000000000000000000000000000000000000000000000000000000000000000000000001000000800000000000000000000000000000000000800000000000000000000000000000000000000000000000000000000000000000000000000000000000000000000000000000000000000000000000000000000000000000000000002000000000000000008000000000000000000",
      "type": "0x0",
      "transactionHash": "0x809071d5a9cd43884caed63f83c83945eed5d115c51b9d77a851df36e5e690a4",
      "transactionIndex": "0x6",
      "blockHash": "0x92fc76422f97bc41749d372afc15870e5fc1d1168eafc7d0391bca287fd8352d",
      "blockNumber": "0x9edac7",
      "gasUsed": "0x405ab",
      "effectiveGasPrice": "0x5d22cfc40",
      "from": "0x1ff9ea9f062c31cff19ade558e34894f07cf7817",
      "to": "0xc4ae01295cfae3da96b044f1a4284a93837a644c",
      "contractAddress": null,
      "l1BaseFeeScalar": "0x0",
      "l1BlobBaseFee": "0x2",
      "l1BlobBaseFeeScalar": "0x0",
      "l1Fee": "0x0",
      "l1GasPrice": "0xc",
      "l1GasUsed": "0x1079"
    },
    {
      "status": "0x1",
      "cumulativeGasUsed": "0x1ed8c3",
      "logs": [
        {
          "address": "0xc4ae01295cfae3da96b044f1a4284a93837a644c",
          "topics": [
            "0x99cdf36f9fc716110deb2ca0ea14e450ea70c719d430c86a653299701ee57dd7",
            "0x0000000000000000000000000000000000000000000000000000000000000006"
          ],
          "data": "0x000000000000000000000000000000000000000000000000000000000000002000000000000000000000000000000000000000000000000000000000000000084665617475726573000000000000000000000000000000000000000000000000",
          "blockHash": "0x92fc76422f97bc41749d372afc15870e5fc1d1168eafc7d0391bca287fd8352d",
          "blockNumber": "0x9edac7",
          "transactionHash": "0xafa8cd54e6c9fb24113f3f870a42f236079ce4d6a5c5883c6f6a2a6e6d0833de",
          "transactionIndex": "0x7",
          "logIndex": "0x6",
          "removed": false
        }
      ],
      "logsBloom": "0x00000000000000000000000000000000000000000000000000001000000000000000000000000000000000000000000000040000000400000000000000000000000000000000000000000000000000000000000000000000040000000000000000000000000000000000000000000000000000000000000000000000000000000000000400000000000000000000000000000000000000000000000000000000000000000800000000000000000000000000000000000000000000080000000000000000000000000000000000000000000000000000000000000000000000000000000000000000000000000002000000000000000008000000000000000000",
      "type": "0x0",
      "transactionHash": "0xafa8cd54e6c9fb24113f3f870a42f236079ce4d6a5c5883c6f6a2a6e6d0833de",
      "transactionIndex": "0x7",
      "blockHash": "0x92fc76422f97bc41749d372afc15870e5fc1d1168eafc7d0391bca287fd8352d",
      "blockNumber": "0x9edac7",
      "gasUsed": "0x4b358",
      "effectiveGasPrice": "0x5d22cfc40",
      "from": "0x1ff9ea9f062c31cff19ade558e34894f07cf7817",
      "to": "0xc4ae01295cfae3da96b044f1a4284a93837a644c",
      "contractAddress": null,
      "l1BaseFeeScalar": "0x0",
      "l1BlobBaseFee": "0x2",
      "l1BlobBaseFeeScalar": "0x0",
      "l1Fee": "0x0",
      "l1GasPrice": "0xc",
      "l1GasUsed": "0xf52"
    },
    {
      "status": "0x1",
      "cumulativeGasUsed": "0x47263",
      "logs": [
        {
          "address": "0xc4ae01295cfae3da96b044f1a4284a93837a644c",
          "topics": [
            "0x99cdf36f9fc716110deb2ca0ea14e450ea70c719d430c86a653299701ee57dd7",
            "0x0000000000000000000000000000000000000000000000000000000000000007"
          ],
          "data": "0x00000000000000000000000000000000000000000000000000000000000000200000000000000000000000000000000000000000000000000000000000000006546f6b656e730000000000000000000000000000000000000000000000000000",
          "blockHash": "0x926e576b53ea9792f931983b8bd2532bcc3e0532ce49a805b7bdeccc2007984f",
          "blockNumber": "0x9edac8",
          "transactionHash": "0xb6a069d5d19a0057330fbcc5000b8c6cd460bff5d1a247ea1acafd76510bb304",
          "transactionIndex": "0x1",
          "logIndex": "0x0",
          "removed": false
        }
      ],
      "logsBloom": "0x00000000000000000000000000000000000000000000000000001000000000000000000000000000000000000000000000041000000000000000000000000000000020000000000000000000000000000000000000000000040000000000000000000000000000000000000000000000000000000000000000000000000000000000000000000000000000000000000000000000000000000000000000000000000000000800000000000000000000000000000000000000000000000000000000000000000000000000000000000000000000000000000000000100000000000000000000000000000000000002000000000000000008000000000000000000",
      "type": "0x0",
      "transactionHash": "0xb6a069d5d19a0057330fbcc5000b8c6cd460bff5d1a247ea1acafd76510bb304",
      "transactionIndex": "0x1",
      "blockHash": "0x926e576b53ea9792f931983b8bd2532bcc3e0532ce49a805b7bdeccc2007984f",
      "blockNumber": "0x9edac8",
      "gasUsed": "0x3b39f",
      "effectiveGasPrice": "0x5d22cfc40",
      "from": "0x1ff9ea9f062c31cff19ade558e34894f07cf7817",
      "to": "0xc4ae01295cfae3da96b044f1a4284a93837a644c",
      "contractAddress": null,
      "l1BaseFeeScalar": "0x0",
      "l1BlobBaseFee": "0x2",
      "l1BlobBaseFeeScalar": "0x0",
      "l1Fee": "0x0",
      "l1GasPrice": "0xc",
      "l1GasUsed": "0xb66"
    },
    {
      "status": "0x1",
      "cumulativeGasUsed": "0x8769a",
      "logs": [
        {
          "address": "0xc4ae01295cfae3da96b044f1a4284a93837a644c",
          "topics": [
            "0x99cdf36f9fc716110deb2ca0ea14e450ea70c719d430c86a653299701ee57dd7",
            "0x0000000000000000000000000000000000000000000000000000000000000008"
          ],
          "data": "0x000000000000000000000000000000000000000000000000000000000000002000000000000000000000000000000000000000000000000000000000000000084665617475726573000000000000000000000000000000000000000000000000",
          "blockHash": "0x926e576b53ea9792f931983b8bd2532bcc3e0532ce49a805b7bdeccc2007984f",
          "blockNumber": "0x9edac8",
          "transactionHash": "0x10b9edac8433f4d4d8bbe64146d6049aab489921b765f30fa324daffe02533fc",
          "transactionIndex": "0x2",
          "logIndex": "0x1",
          "removed": false
        }
      ],
      "logsBloom": "0x00000000000000000000000000000000000000000000000000001000000000000000000000000000000000000000000000040000000080000000000000000000000000000000000000000000000000000000000000000000040000000000000000000000000000000000000000000000000000000000000000000000000000000080000000000000000000000000000000000000000000000000000000000000000000000800000000000000000000000000000000000000000000000000000040000000000000000000000000000000000000000000000000000000000000000000000000000000000000000002000000000000000008000000000000000000",
      "type": "0x0",
      "transactionHash": "0x10b9edac8433f4d4d8bbe64146d6049aab489921b765f30fa324daffe02533fc",
      "transactionIndex": "0x2",
      "blockHash": "0x926e576b53ea9792f931983b8bd2532bcc3e0532ce49a805b7bdeccc2007984f",
      "blockNumber": "0x9edac8",
      "gasUsed": "0x40437",
      "effectiveGasPrice": "0x5d22cfc40",
      "from": "0x1ff9ea9f062c31cff19ade558e34894f07cf7817",
      "to": "0xc4ae01295cfae3da96b044f1a4284a93837a644c",
      "contractAddress": null,
      "l1BaseFeeScalar": "0x0",
      "l1BlobBaseFee": "0x2",
      "l1BlobBaseFeeScalar": "0x0",
      "l1Fee": "0x0",
      "l1GasPrice": "0xc",
      "l1GasUsed": "0xeda"
    },
    {
      "status": "0x1",
      "cumulativeGasUsed": "0xd2b36",
      "logs": [
        {
          "address": "0xc4ae01295cfae3da96b044f1a4284a93837a644c",
          "topics": [
            "0x99cdf36f9fc716110deb2ca0ea14e450ea70c719d430c86a653299701ee57dd7",
            "0x0000000000000000000000000000000000000000000000000000000000000009"
          ],
          "data": "0x0000000000000000000000000000000000000000000000000000000000000020000000000000000000000000000000000000000000000000000000000000000a546563686e6f6c6f677900000000000000000000000000000000000000000000",
          "blockHash": "0x926e576b53ea9792f931983b8bd2532bcc3e0532ce49a805b7bdeccc2007984f",
          "blockNumber": "0x9edac8",
          "transactionHash": "0xedab122f019ee893c1bde9fdac711b75c48c69450969e4e395dd6284c1a275c5",
          "transactionIndex": "0x3",
          "logIndex": "0x2",
          "removed": false
        }
      ],
      "logsBloom": "0x00000000000000000000000000000000000000000000000000001000000000000000000000000000000000000000000000040000000000000000000000200000000000000000000000000000000000000000000000000000040000000000000000000000000000000000000000000000000000000000000000000000000000000000000000000000000000000000000000001000000000000000000000000000000000000800000000000000000000000000000000000000000000000000000000000000000000000000000000000000000000000000000000000000000000000000000000000000000000000002000000000000000008000000000000800000",
      "type": "0x0",
      "transactionHash": "0xedab122f019ee893c1bde9fdac711b75c48c69450969e4e395dd6284c1a275c5",
      "transactionIndex": "0x3",
      "blockHash": "0x926e576b53ea9792f931983b8bd2532bcc3e0532ce49a805b7bdeccc2007984f",
      "blockNumber": "0x9edac8",
      "gasUsed": "0x4b49c",
      "effectiveGasPrice": "0x5d22cfc40",
      "from": "0x1ff9ea9f062c31cff19ade558e34894f07cf7817",
      "to": "0xc4ae01295cfae3da96b044f1a4284a93837a644c",
      "contractAddress": null,
      "l1BaseFeeScalar": "0x0",
      "l1BlobBaseFee": "0x2",
      "l1BlobBaseFeeScalar": "0x0",
      "l1Fee": "0x0",
      "l1GasPrice": "0xc",
      "l1GasUsed": "0x1036"
    },
    {
      "status": "0x1",
      "cumulativeGasUsed": "0x10809d",
      "logs": [
        {
          "address": "0xc4ae01295cfae3da96b044f1a4284a93837a644c",
          "topics": [
            "0x99cdf36f9fc716110deb2ca0ea14e450ea70c719d430c86a653299701ee57dd7",
            "0x000000000000000000000000000000000000000000000000000000000000000a"
          ],
          "data": "0x0000000000000000000000000000000000000000000000000000000000000020000000000000000000000000000000000000000000000000000000000000000945636f73797374656d0000000000000000000000000000000000000000000000",
          "blockHash": "0x926e576b53ea9792f931983b8bd2532bcc3e0532ce49a805b7bdeccc2007984f",
          "blockNumber": "0x9edac8",
          "transactionHash": "0x50aed19e9a33f9e4775d54f9bebd45785d85bd9e70c49a3c196a711d5546f9bb",
          "transactionIndex": "0x4",
          "logIndex": "0x3",
          "removed": false
        }
      ],
      "logsBloom": "0x00000000000000000000000000000000000000000000000000001000000000000000000000000000000000000000000000040000040000000020000000000000000000000000000000000000000000000000000000000000040000000000000000000000000000000000000000000000000000000000000000000000000000000000000000000000010000000000000000000000000000000000000000000000000000000800000000000000000000000000000000000000000000000000000000000000000000000000000000000000000000000000000000000000000000000000000000000000000000000002000000000000000008000000000000000000",
      "type": "0x0",
      "transactionHash": "0x50aed19e9a33f9e4775d54f9bebd45785d85bd9e70c49a3c196a711d5546f9bb",
      "transactionIndex": "0x4",
      "blockHash": "0x926e576b53ea9792f931983b8bd2532bcc3e0532ce49a805b7bdeccc2007984f",
      "blockNumber": "0x9edac8",
      "gasUsed": "0x35567",
      "effectiveGasPrice": "0x5d22cfc40",
      "from": "0x1ff9ea9f062c31cff19ade558e34894f07cf7817",
      "to": "0xc4ae01295cfae3da96b044f1a4284a93837a644c",
      "contractAddress": null,
      "l1BaseFeeScalar": "0x0",
      "l1BlobBaseFee": "0x2",
      "l1BlobBaseFeeScalar": "0x0",
      "l1Fee": "0x0",
      "l1GasPrice": "0xc",
      "l1GasUsed": "0xd20"
    },
    {
      "status": "0x1",
      "cumulativeGasUsed": "0x13d7a8",
      "logs": [
        {
          "address": "0xc4ae01295cfae3da96b044f1a4284a93837a644c",
          "topics": [
            "0x99cdf36f9fc716110deb2ca0ea14e450ea70c719d430c86a653299701ee57dd7",
            "0x000000000000000000000000000000000000000000000000000000000000000b"
          ],
          "data": "0x0000000000000000000000000000000000000000000000000000000000000020000000000000000000000000000000000000000000000000000000000000000b537461626c65636f696e73000000000000000000000000000000000000000000",
          "blockHash": "0x926e576b53ea9792f931983b8bd2532bcc3e0532ce49a805b7bdeccc2007984f",
          "blockNumber": "0x9edac8",
          "transactionHash": "0xb98064c97448597f92c2b4ca0770ed556bff6153ef88d76a3003ae258df0b5a0",
          "transactionIndex": "0x5",
          "logIndex": "0x4",
          "removed": false
        }
      ],
      "logsBloom": "0x00000000000000000000004000000000000000000000000000001000000000000000000000000000000000000000000000040000000000000000000000000000000000000000000000000000000000000000000000000000040000000000000000000000000000000000000000000000000000000000000000000000000000000000000000000000000000000000000000000000000000000000000000000000000000000800000000000000000000000000000000000000000000000000000000000000000000000000000000000000002000000000000000000000000000000000000000000000000000000002000000000000000008040000000000000000",
      "type": "0x0",
      "transactionHash": "0xb98064c97448597f92c2b4ca0770ed556bff6153ef88d76a3003ae258df0b5a0",
      "transactionIndex": "0x5",
      "blockHash": "0x926e576b53ea9792f931983b8bd2532bcc3e0532ce49a805b7bdeccc2007984f",
      "blockNumber": "0x9edac8",
      "gasUsed": "0x3570b",
      "effectiveGasPrice": "0x5d22cfc40",
      "from": "0x1ff9ea9f062c31cff19ade558e34894f07cf7817",
      "to": "0xc4ae01295cfae3da96b044f1a4284a93837a644c",
      "contractAddress": null,
      "l1BaseFeeScalar": "0x0",
      "l1BlobBaseFee": "0x2",
      "l1BlobBaseFeeScalar": "0x0",
      "l1Fee": "0x0",
      "l1GasPrice": "0xc",
      "l1GasUsed": "0xe11"
    },
    {
      "status": "0x1",
      "cumulativeGasUsed": "0x17da5f",
      "logs": [
        {
          "address": "0xc4ae01295cfae3da96b044f1a4284a93837a644c",
          "topics": [
            "0x99cdf36f9fc716110deb2ca0ea14e450ea70c719d430c86a653299701ee57dd7",
            "0x000000000000000000000000000000000000000000000000000000000000000c"
          ],
          "data": "0x0000000000000000000000000000000000000000000000000000000000000020000000000000000000000000000000000000000000000000000000000000000a546563686e6f6c6f677900000000000000000000000000000000000000000000",
          "blockHash": "0x926e576b53ea9792f931983b8bd2532bcc3e0532ce49a805b7bdeccc2007984f",
          "blockNumber": "0x9edac8",
          "transactionHash": "0x39b81070db1c125dd0d48bae966c02a74276b43c85c227ed34bdac84dff52d04",
          "transactionIndex": "0x6",
          "logIndex": "0x5",
          "removed": false
        }
      ],
      "logsBloom": "0x00000000000000000000000000000000000002000000000000001000000000000000000000000200000000000000000000040000000000000000000000000000000000000000000000000000000000000000000000000000040000000000000000000000000000000000000000000000000000000000000000000000000000000000000000000000000000000000000000000000000000000000000000000000000000000800000000000000000000000000000000000000000000000000000000000000000000000000000000000000000000000000000000000000000000200000000000000000000000000002000000000000000008000000000000000000",
      "type": "0x0",
      "transactionHash": "0x39b81070db1c125dd0d48bae966c02a74276b43c85c227ed34bdac84dff52d04",
      "transactionIndex": "0x6",
      "blockHash": "0x926e576b53ea9792f931983b8bd2532bcc3e0532ce49a805b7bdeccc2007984f",
      "blockNumber": "0x9edac8",
      "gasUsed": "0x402b7",
      "effectiveGasPrice": "0x5d22cfc40",
      "from": "0x1ff9ea9f062c31cff19ade558e34894f07cf7817",
      "to": "0xc4ae01295cfae3da96b044f1a4284a93837a644c",
      "contractAddress": null,
      "l1BaseFeeScalar": "0x0",
      "l1BlobBaseFee": "0x2",
      "l1BlobBaseFeeScalar": "0x0",
      "l1Fee": "0x0",
      "l1GasPrice": "0xc",
      "l1GasUsed": "0xc7f"
    },
    {
      "status": "0x1",
      "cumulativeGasUsed": "0x1c8e0b",
      "logs": [
        {
          "address": "0xc4ae01295cfae3da96b044f1a4284a93837a644c",
          "topics": [
            "0x99cdf36f9fc716110deb2ca0ea14e450ea70c719d430c86a653299701ee57dd7",
            "0x000000000000000000000000000000000000000000000000000000000000000d"
          ],
          "data": "0x0000000000000000000000000000000000000000000000000000000000000020000000000000000000000000000000000000000000000000000000000000000945636f73797374656d0000000000000000000000000000000000000000000000",
          "blockHash": "0x926e576b53ea9792f931983b8bd2532bcc3e0532ce49a805b7bdeccc2007984f",
          "blockNumber": "0x9edac8",
          "transactionHash": "0x5d4b657daf58d951752ec25e6701f7d88ca03c1cfda0cb7bf8f483e5f46f5969",
          "transactionIndex": "0x7",
          "logIndex": "0x6",
          "removed": false
        }
      ],
      "logsBloom": "0x00000000000000000040000000000000000000000000000000001000000000000000000000000000000000000000000000040000000000000000000000000000000000000000000000000000000000000002000000000000040000000000000000000000000000000000000000000000000000000000000000000000000000000000000000000000000000000000000000000000000000000000000000000000000000000800000000000000000000000000000000000000000000000000000000000000000000000000000000000000000000000000000000000000000000020000000000000000000000000002000000000000000008000000000000000000",
      "type": "0x0",
      "transactionHash": "0x5d4b657daf58d951752ec25e6701f7d88ca03c1cfda0cb7bf8f483e5f46f5969",
      "transactionIndex": "0x7",
      "blockHash": "0x926e576b53ea9792f931983b8bd2532bcc3e0532ce49a805b7bdeccc2007984f",
      "blockNumber": "0x9edac8",
      "gasUsed": "0x4b3ac",
      "effectiveGasPrice": "0x5d22cfc40",
      "from": "0x1ff9ea9f062c31cff19ade558e34894f07cf7817",
      "to": "0xc4ae01295cfae3da96b044f1a4284a93837a644c",
      "contractAddress": null,
      "l1BaseFeeScalar": "0x0",
      "l1BlobBaseFee": "0x2",
      "l1BlobBaseFeeScalar": "0x0",
      "l1Fee": "0x0",
      "l1GasPrice": "0xc",
      "l1GasUsed": "0xf95"
    },
    {
      "status": "0x1",
      "cumulativeGasUsed": "0x21411b",
      "logs": [
        {
          "address": "0xc4ae01295cfae3da96b044f1a4284a93837a644c",
          "topics": [
            "0x99cdf36f9fc716110deb2ca0ea14e450ea70c719d430c86a653299701ee57dd7",
            "0x000000000000000000000000000000000000000000000000000000000000000e"
          ],
          "data": "0x000000000000000000000000000000000000000000000000000000000000002000000000000000000000000000000000000000000000000000000000000000074d697373696f6e00000000000000000000000000000000000000000000000000",
          "blockHash": "0x926e576b53ea9792f931983b8bd2532bcc3e0532ce49a805b7bdeccc2007984f",
          "blockNumber": "0x9edac8",
          "transactionHash": "0x1f8cc7678303b91898686a1bc78d9c6ac19683a6cb5886a1f1452ec51c852f07",
          "transactionIndex": "0x8",
          "logIndex": "0x7",
          "removed": false
        }
      ],
      "logsBloom": "0x00000000000000000000000000000000000000000000000000001000000000000000000000000000000000000000000000040000000000000000000000000000000000000000000800000000000000000000000000000000040000000000000000000000000000000000000000000000000000000000000000000000000000000000000000000000000000000000000008000000000000000000000000000000000000000800000000000000000000000000000000000020000000000000000000000000000000000000000000000000000000000000000000000000000000000000000000000000000000000002000000000000000008000000000000000000",
      "type": "0x0",
      "transactionHash": "0x1f8cc7678303b91898686a1bc78d9c6ac19683a6cb5886a1f1452ec51c852f07",
      "transactionIndex": "0x8",
      "blockHash": "0x926e576b53ea9792f931983b8bd2532bcc3e0532ce49a805b7bdeccc2007984f",
      "blockNumber": "0x9edac8",
      "gasUsed": "0x4b310",
      "effectiveGasPrice": "0x5d22cfc40",
      "from": "0x1ff9ea9f062c31cff19ade558e34894f07cf7817",
      "to": "0xc4ae01295cfae3da96b044f1a4284a93837a644c",
      "contractAddress": null,
      "l1BaseFeeScalar": "0x0",
      "l1BlobBaseFee": "0x2",
      "l1BlobBaseFeeScalar": "0x0",
      "l1Fee": "0x0",
      "l1GasPrice": "0xc",
      "l1GasUsed": "0xf1d"
    }
  ],
  "libraries": [],
  "pending": [],
  "returns": {},
  "timestamp": 1763694685365,
  "chain": 11142220,
  "commit": "d779edb"
}