{
  "transactions": [
    {
      "hash": "0xdc529713737021c3cc3b957c2f2a2263931a55405efe0a14a3c1a166f2853e6a",
      "transactionType": "CREATE",
      "contractName": "SimpleTriviaGame",
      "contractAddress": "0x7409cbcb6577164e96a9b474efd4c32b9e17d59d",
      "function": null,
      "arguments": [
        "0x833589fCD6eDb6E08f4c7C32D4f71b54bdA02913"
      ],
      "transaction": {
        "from": "0x2c8d82a53f11b0e9b527a111b2f53c5d5e809806",
        "gas": "0xfbf1e",
        "value": "0x0",
        "input": "0x60a0346100ed57601f610dea38819003918201601f19168301916001600160401b038311848410176100f1578084926020946040528339810103126100ed57516001600160a01b038116908190036100ed5733156100da575f8054336001600160a01b0319821681178355604051939290916001600160a01b0316907f8be0079c531659141344cd1fd0a4f28419497f9722a3daafe3b4186f6b6457e09080a380156100cb57608052610ce4908161010682396080518181816107c1015281816109220152610a140152f35b630f58058360e11b5f5260045ffd5b631e4fbdf760e01b5f525f60045260245ffd5b5f80fd5b634e487b7160e01b5f52604160045260245ffdfe6080806040526004361015610012575f80fd5b5f3560e01c90816311eac85514610a02575080631413d4c0146109c6578063315a095d146108f157806331b1b97814610887578063715018a6146108305780638da5cb5b146108095780638dea1b32146106fb578063928c0a5e14610259578063b06a5c521461023c578063db88176f146101225763f2fde38b14610095575f80fd5b3461011e57602036600319011261011e576004356001600160a01b0381169081900361011e576100c3610c07565b801561010b575f80546001600160a01b03198116831782556001600160a01b0316907f8be0079c531659141344cd1fd0a4f28419497f9722a3daafe3b4186f6b6457e09080a3005b631e4fbdf760e01b5f525f60045260245ffd5b5f80fd5b3461011e57602036600319011261011e576004355f52600260205260405f20600181019060028101549160038201549161016360ff60048301541691610a9d565b9282549461017086610bb7565b9561017e6040519788610a7b565b8087526020870180955f5260205f205f915b83831061021f57505050506101b06040519560a0875260a0870190610b3d565b95858703602087015251808752602087019060208160051b89010195915f905b8282106101f3575050505084955060408501526060840152151560808301520390f35b909192966020806102116001938d601f199082030186528b51610b3d565b9901920192019092916101d0565b60016020819261022e85610a9d565b815201920192019190610190565b3461011e575f36600319011261011e576020600154604051908152f35b3461011e57608036600319011261011e5760043567ffffffffffffffff811161011e5761028a903690600401610b61565b6024359067ffffffffffffffff821161011e573660238301121561011e5781600401356102b681610bb7565b926102c46040519485610a7b565b8184526024602085019260051b8201019036821161011e5760248101925b8284106106cb5760643585876044356102f9610c07565b6001825111156106bc5781518110156106ad57610317600154610bcf565b91826001556040519160a0830183811067ffffffffffffffff82111761058457604052848352602083019182526040830190815260608301918683526080840194600186525f52600260205260405f20935180519067ffffffffffffffff8211610584576103858654610a43565b601f811161067d575b50602090601f831160011461061a576103be92915f918361060f575b50508160011b915f199060031b1c19161790565b84555b5180516001850191680100000000000000008211610584578254828455808310610598575b50602001915f5260205f20915f905b82821061046857897fd2e3647fc837479f6b62a71cf47916be70118af2f2e3a5680d7e5c0a6119114161045d8b8b60048c8c8c516002830155516003820155019051151560ff8019835416911617905560015493604051928392604084526040840190610b3d565b9060208301520390a2005b805180519067ffffffffffffffff8211610584576104868654610a43565b601f8111610549575b50602090601f83116001146104e057926104c6836001959460209487965f926104d55750508160011b915f199060031b1c19161790565b87555b019401910190926103f5565b015190505f806103aa565b90601f19831691875f52815f20925f5b8181106105315750936020936001969387969383889510610519575b505050811b0187556104c9565b01515f1960f88460031b161c191690558f808061050c565b929360206001819287860151815501950193016104f0565b61057490875f5260205f20601f850160051c8101916020861061057a575b601f0160051c0190610bf1565b8c61048f565b9091508190610567565b634e487b7160e01b5f52604160045260245ffd5b835f528260205f2091820191015b8181106105b357506103e6565b806105c060019254610a43565b806105cd575b50016105a6565b601f811183146105e257505f81555b8c6105c6565b6105fe90825f5283601f60205f20920160051c82019101610bf1565b805f525f60208120818355556105dc565b015190508a806103aa565b90601f19831691875f52815f20925f5b818110610665575090846001959493921061064d575b505050811b0184556103c1565b01515f1960f88460031b161c19169055898080610640565b9293602060018192878601518155019501930161062a565b6106a790875f5260205f20601f850160051c8101916020861061057a57601f0160051c0190610bf1565b8961038e565b63626ac72760e01b5f5260045ffd5b630280f17760e01b5f5260045ffd5b833567ffffffffffffffff811161011e576020916106f0839260243691870101610b61565b8152019301926102e2565b3461011e57604036600319011261011e57600435602435815f52600260205260405f209060ff600483015416156107fa5760018201548110156107eb576002820154149081610791575b81156107895760030154905b604051928352602083015260408201527f71d4404c14b73c8867a11b81e3d18142cb14a987aecfe7cf13e3bc3e227221a560603392a2005b505f90610751565b335f52600360205260405f206107a78154610bcf565b90556003810154806107ba575b50610745565b6107e590337f0000000000000000000000000000000000000000000000000000000000000000610c2d565b836107b4565b632a71953160e01b5f5260045ffd5b63f2f13e1560e01b5f5260045ffd5b3461011e575f36600319011261011e575f546040516001600160a01b039091168152602090f35b3461011e575f36600319011261011e57610848610c07565b5f80546001600160a01b0319811682556001600160a01b03167f8be0079c531659141344cd1fd0a4f28419497f9722a3daafe3b4186f6b6457e08280a3005b3461011e57602036600319011261011e576004355f5260026020526108db60405f206108b281610a9d565b9060028101549060ff600460038301549201541690604051948594608086526080860190610b3d565b9260208501526040840152151560608301520390f35b3461011e57602036600319011261011e5760043561090d610c07565b6040516370a0823160e01b81523060048201527f000000000000000000000000000000000000000000000000000000000000000091906020816024816001600160a01b0387165afa80156109bb5782915f91610986575b501061097757610975913390610c2d565b005b631e9acf1760e31b5f5260045ffd5b9150506020813d6020116109b3575b816109a260209383610a7b565b8101031261011e5781905184610964565b3d9150610995565b6040513d5f823e3d90fd5b3461011e57602036600319011261011e576004356001600160a01b0381169081900361011e575f526003602052602060405f2054604051908152f35b3461011e575f36600319011261011e577f00000000000000000000000000000000000000000000000000000000000000006001600160a01b03168152602090f35b90600182811c92168015610a71575b6020831014610a5d57565b634e487b7160e01b5f52602260045260245ffd5b91607f1691610a52565b90601f8019910116810190811067ffffffffffffffff82111761058457604052565b9060405191825f825492610ab084610a43565b8084529360018116908115610b1b5750600114610ad7575b50610ad592500383610a7b565b565b90505f9291925260205f20905f915b818310610aff575050906020610ad5928201015f610ac8565b6020919350806001915483858901015201910190918492610ae6565b905060209250610ad594915060ff191682840152151560051b8201015f610ac8565b805180835260209291819084018484015e5f828201840152601f01601f1916010190565b81601f8201121561011e5780359067ffffffffffffffff82116105845760405192610b96601f8401601f191660200185610a7b565b8284526020838301011161011e57815f926020809301838601378301015290565b67ffffffffffffffff81116105845760051b60200190565b5f198114610bdd5760010190565b634e487b7160e01b5f52601160045260245ffd5b818110610bfc575050565b5f8155600101610bf1565b5f546001600160a01b03163303610c1a57565b63118cdaa760e01b5f523360045260245ffd5b916040519163a9059cbb60e01b5f5260018060a01b031660045260245260205f60448180865af19060015f5114821615610c8d575b60405215610c6d5750565b635274afe760e01b5f9081526001600160a01b0391909116600452602490fd5b906001811516610ca557823b15153d15161690610c62565b503d5f823e3d90fdfea264697066735822122020768669407297bdf37979d1fcd8844253d4c039ef62e6a7dfd806e9bcc6428a64736f6c634300081e0033000000000000000000000000833589fcd6edb6e08f4c7c32d4f71b54bda02913",
        "nonce": "0x698",
        "chainId": "0x2105"
      },
      "additionalContracts": [],
      "isFixedGasLimit": false
    },
    {
      "hash": "0xacc24f61aa6819718ddc9e61fe9ac1fb066a616a1947d79e2981e43ecb5ff66a",
      "transactionType": "CALL",
      "contractName": "SimpleTriviaGame",
      "contractAddress": "0x7409cbcb6577164e96a9b474efd4c32b9e17d59d",
      "function": "addQuestion(string,string[],uint256,uint256)",
      "arguments": [
        "What blockchain is Base built on?",
        "[Ethereum, Solana, Polygon, Avalanche]",
        "0",
        "100000"
      ],
      "transaction": {
        "from": "0x2c8d82a53f11b0e9b527a111b2f53c5d5e809806",
        "to": "0x7409cbcb6577164e96a9b474efd4c32b9e17d59d",
        "gas": "0x5e7ab",
        "value": "0x0",
        "input": "0x928c0a5e000000000000000000000000000000000000000000000000000000000000008000000000000000000000000000000000000000000000000000000000000000e0000000000000000000000000000000000000000000000000000000000000000000000000000000000000000000000000000000000000000000000000000186a000000000000000000000000000000000000000000000000000000000000000215768617420626c6f636b636861696e2069732042617365206275696c74206f6e3f000000000000000000000000000000000000000000000000000000000000000000000000000000000000000000000000000000000000000000000000000004000000000000000000000000000000000000000000000000000000000000008000000000000000000000000000000000000000000000000000000000000000c0000000000000000000000000000000000000000000000000000000000000010000000000000000000000000000000000000000000000000000000000000001400000000000000000000000000000000000000000000000000000000000000008457468657265756d0000000000000000000000000000000000000000000000000000000000000000000000000000000000000000000000000000000000000006536f6c616e6100000000000000000000000000000000000000000000000000000000000000000000000000000000000000000000000000000000000000000007506f6c79676f6e0000000000000000000000000000000000000000000000000000000000000000000000000000000000000000000000000000000000000000094176616c616e6368650000000000000000000000000000000000000000000000",
        "nonce": "0x699",
        "chainId": "0x2105"
      },
      "additionalContracts": [],
      "isFixedGasLimit": false
    },
    {
      "hash": "0x73a1f6f00d71013c9b7a67a8c576901c22ac65fd0411f45969d2f3a8bb445ec5",
      "transactionType": "CALL",
      "contractName": "SimpleTriviaGame",
      "contractAddress": "0x7409cbcb6577164e96a9b474efd4c32b9e17d59d",
      "function": "addQuestion(string,string[],uint256,uint256)",
      "arguments": [
        "Who created Base?",
        "[Vitalik Buterin, Coinbase, Brian Armstrong, Jesse Pollak]",
        "1",
        "100000"
      ],
      "transaction": {
        "from": "0x2c8d82a53f11b0e9b527a111b2f53c5d5e809806",
        "to": "0x7409cbcb6577164e96a9b474efd4c32b9e17d59d",
        "gas": "0x50576",
        "value": "0x0",
        "input": "0x928c0a5e000000000000000000000000000000000000000000000000000000000000008000000000000000000000000000000000000000000000000000000000000000c0000000000000000000000000000000000000000000000000000000000000000100000000000000000000000000000000000000000000000000000000000186a0000000000000000000000000000000000000000000000000000000000000001157686f206372656174656420426173653f0000000000000000000000000000000000000000000000000000000000000000000000000000000000000000000004000000000000000000000000000000000000000000000000000000000000008000000000000000000000000000000000000000000000000000000000000000c000000000000000000000000000000000000000000000000000000000000001000000000000000000000000000000000000000000000000000000000000000140000000000000000000000000000000000000000000000000000000000000000f566974616c696b204275746572696e00000000000000000000000000000000000000000000000000000000000000000000000000000000000000000000000008436f696e62617365000000000000000000000000000000000000000000000000000000000000000000000000000000000000000000000000000000000000000f427269616e2041726d7374726f6e670000000000000000000000000000000000000000000000000000000000000000000000000000000000000000000000000c4a6573736520506f6c6c616b0000000000000000000000000000000000000000",
        "nonce": "0x69a",
        "chainId": "0x2105"
      },
      "additionalContracts": [],
      "isFixedGasLimit": false
    },
    {
      "hash": "0x69ee14b17d9674b7463e9a0759396a2abf7bb30d71963c6acd80b1a57414a6c2",
      "transactionType": "CALL",
      "contractName": "SimpleTriviaGame",
      "contractAddress": "0x7409cbcb6577164e96a9b474efd4c32b9e17d59d",
      "function": "addQuestion(string,string[],uint256,uint256)",
      "arguments": [
        "What type of Layer 2 is Base?",
        "[Proof of Work, Proof of Stake, Optimistic Rollup, ZK Rollup]",
        "2",
        "100000"
      ],
      "transaction": {
        "from": "0x2c8d82a53f11b0e9b527a111b2f53c5d5e809806",
        "to": "0x7409cbcb6577164e96a9b474efd4c32b9e17d59d",
        "gas": "0x5521b",
        "value": "0x0",
        "input": "0x928c0a5e000000000000000000000000000000000000000000000000000000000000008000000000000000000000000000000000000000000000000000000000000000c0000000000000000000000000000000000000000000000000000000000000000200000000000000000000000000000000000000000000000000000000000186a0000000000000000000000000000000000000000000000000000000000000001d576861742074797065206f66204c61796572203220697320426173653f0000000000000000000000000000000000000000000000000000000000000000000004000000000000000000000000000000000000000000000000000000000000008000000000000000000000000000000000000000000000000000000000000000c000000000000000000000000000000000000000000000000000000000000001000000000000000000000000000000000000000000000000000000000000000140000000000000000000000000000000000000000000000000000000000000000d50726f6f66206f6620576f726b00000000000000000000000000000000000000000000000000000000000000000000000000000000000000000000000000000e50726f6f66206f66205374616b6500000000000000000000000000000000000000000000000000000000000000000000000000000000000000000000000000114f7074696d697374696320526f6c6c757000000000000000000000000000000000000000000000000000000000000000000000000000000000000000000000095a4b20526f6c6c75700000000000000000000000000000000000000000000000",
        "nonce": "0x69b",
        "chainId": "0x2105"
      },
      "additionalContracts": [],
      "isFixedGasLimit": false
    },
    {
      "hash": "0x5c4bc174c9ecafe94fde0f8df1119fde37885ed50b9c55206d390e3d04bc30cb",
      "transactionType": "CALL",
      "contractName": "SimpleTriviaGame",
      "contractAddress": "0x7409cbcb6577164e96a9b474efd4c32b9e17d59d",
      "function": "addQuestion(string,string[],uint256,uint256)",
      "arguments": [
        "What is the main purpose of Base?",
        "[To increase fees, To make Ethereum slower, To scale Ethereum and reduce costs, To create a new blockchain]",
        "2",
        "100000"
      ],
      "transaction": {
        "from": "0x2c8d82a53f11b0e9b527a111b2f53c5d5e809806",
        "to": "0x7409cbcb6577164e96a9b474efd4c32b9e17d59d",
        "gas": "0x6eb8a",
        "value": "0x0",
        "input": "0x928c0a5e000000000000000000000000000000000000000000000000000000000000008000000000000000000000000000000000000000000000000000000000000000e0000000000000000000000000000000000000000000000000000000000000000200000000000000000000000000000000000000000000000000000000000186a000000000000000000000000000000000000000000000000000000000000000215768617420697320746865206d61696e20707572706f7365206f6620426173653f000000000000000000000000000000000000000000000000000000000000000000000000000000000000000000000000000000000000000000000000000004000000000000000000000000000000000000000000000000000000000000008000000000000000000000000000000000000000000000000000000000000000c0000000000000000000000000000000000000000000000000000000000000010000000000000000000000000000000000000000000000000000000000000001600000000000000000000000000000000000000000000000000000000000000010546f20696e6372656173652066656573000000000000000000000000000000000000000000000000000000000000000000000000000000000000000000000017546f206d616b6520457468657265756d20736c6f7765720000000000000000000000000000000000000000000000000000000000000000000000000000000022546f207363616c6520457468657265756d20616e642072656475636520636f737473000000000000000000000000000000000000000000000000000000000000000000000000000000000000000000000000000000000000000000000000001a546f206372656174652061206e657720626c6f636b636861696e000000000000",
        "nonce": "0x69c",
        "chainId": "0x2105"
      },
      "additionalContracts": [],
      "isFixedGasLimit": false
    },
    {
      "hash": "0x0bb2cae70b4f0a5b32df9cc266029651aca84bae2e9d601983c02d42556f5942",
      "transactionType": "CALL",
      "contractName": "SimpleTriviaGame",
      "contractAddress": "0x7409cbcb6577164e96a9b474efd4c32b9e17d59d",
      "function": "addQuestion(string,string[],uint256,uint256)",
      "arguments": [
        "Which stablecoin is native to Base?",
        "[USDC, USDT, DAI, All of the above]",
        "0",
        "100000"
      ],
      "transaction": {
        "from": "0x2c8d82a53f11b0e9b527a111b2f53c5d5e809806",
        "to": "0x7409cbcb6577164e96a9b474efd4c32b9e17d59d",
        "gas": "0x58b58",
        "value": "0x0",
        "input": "0x928c0a5e000000000000000000000000000000000000000000000000000000000000008000000000000000000000000000000000000000000000000000000000000000e0000000000000000000000000000000000000000000000000000000000000000000000000000000000000000000000000000000000000000000000000000186a00000000000000000000000000000000000000000000000000000000000000023576869636820737461626c65636f696e206973206e617469766520746f20426173653f00000000000000000000000000000000000000000000000000000000000000000000000000000000000000000000000000000000000000000000000004000000000000000000000000000000000000000000000000000000000000008000000000000000000000000000000000000000000000000000000000000000c0000000000000000000000000000000000000000000000000000000000000010000000000000000000000000000000000000000000000000000000000000001400000000000000000000000000000000000000000000000000000000000000004555344430000000000000000000000000000000000000000000000000000000000000000000000000000000000000000000000000000000000000000000000045553445400000000000000000000000000000000000000000000000000000000000000000000000000000000000000000000000000000000000000000000000344414900000000000000000000000000000000000000000000000000000000000000000000000000000000000000000000000000000000000000000000000010416c6c206f66207468652061626f766500000000000000000000000000000000",
        "nonce": "0x69d",
        "chainId": "0x2105"
      },
      "additionalContracts": [],
      "isFixedGasLimit": false
    }
  ],
  "receipts": [
    {
      "status": "0x1",
      "cumulativeGasUsed": "0x218608e",
      "logs": [
        {
          "address": "0x7409cbcb6577164e96a9b474efd4c32b9e17d59d",
          "topics": [
            "0x8be0079c531659141344cd1fd0a4f28419497f9722a3daafe3b4186f6b6457e0",
            "0x0000000000000000000000000000000000000000000000000000000000000000",
            "0x0000000000000000000000002c8d82a53f11b0e9b527a111b2f53c5d5e809806"
          ],
          "data": "0x",
          "blockHash": "0x4efe4da2aeac65d40d472dba6078e12d6c891f153bcfcbd0ad504e4c715e140b",
          "blockNumber": "0x25a5f33",
          "blockTimestamp": "0x693f1b49",
          "transactionHash": "0xdc529713737021c3cc3b957c2f2a2263931a55405efe0a14a3c1a166f2853e6a",
          "transactionIndex": "0x9c",
          "logIndex": "0x1e9",
          "removed": false
        }
      ],
      "logsBloom": "0x00000000000000000000000000000000000000000000000000800000000000000000000000000008000000000000000000000000000000000000000000000000000000000000000000000000000000000001002000000000000000000000000000000000020000000000000000004800000000000000000000000000000000400000000000000000000000000000000000000000000000000000000000000000000000000000000000000000000000000000000000000080000000000000000000000000000000000000000000000000000000000000000100000000000020000000000000000000000000400000000000000000000000000000000000000000",
      "type": "0x2",
      "transactionHash": "0xdc529713737021c3cc3b957c2f2a2263931a55405efe0a14a3c1a166f2853e6a",
      "transactionIndex": "0x9c",
      "blockHash": "0x4efe4da2aeac65d40d472dba6078e12d6c891f153bcfcbd0ad504e4c715e140b",
      "blockNumber": "0x25a5f33",
      "gasUsed": "0xc1cdc",
      "effectiveGasPrice": "0x22e847",
      "blobGasUsed": "0xadd30",
      "from": "0x2c8d82a53f11b0e9b527a111b2f53c5d5e809806",
      "to": null,
      "contractAddress": "0x7409cbcb6577164e96a9b474efd4c32b9e17d59d",
      "daFootprintGasScalar": "0x138",
      "l1BaseFeeScalar": "0x8dd",
      "l1BlobBaseFee": "0x28be3c",
      "l1BlobBaseFeeScalar": "0x101c12",
      "l1Fee": "0x2a4928f5",
      "l1GasPrice": "0x266a291",
      "l1GasUsed": "0x8eae"
    },
    {
      "status": "0x1",
      "cumulativeGasUsed": "0x21ca6fb",
      "logs": [
        {
          "address": "0x7409cbcb6577164e96a9b474efd4c32b9e17d59d",
          "topics": [
            "0xd2e3647fc837479f6b62a71cf47916be70118af2f2e3a5680d7e5c0a61191141",
            "0x0000000000000000000000000000000000000000000000000000000000000001"
          ],
          "data": "0x000000000000000000000000000000000000000000000000000000000000004000000000000000000000000000000000000000000000000000000000000186a000000000000000000000000000000000000000000000000000000000000000215768617420626c6f636b636861696e2069732042617365206275696c74206f6e3f00000000000000000000000000000000000000000000000000000000000000",
          "blockHash": "0x5ffde8e28fc35cc75873030b6a7827649950c8764556f69675043d16b8227b2e",
          "blockNumber": "0x25a5f33",
          "blockTimestamp": "0x693f1b49",
          "transactionHash": "0xacc24f61aa6819718ddc9e61fe9ac1fb066a616a1947d79e2981e43ecb5ff66a",
          "transactionIndex": "0x9d",
          "logIndex": "0x1ea",
          "removed": false
        }
      ],
      "logsBloom": "0x00000000000000000000002000000000000000000000000000000000000000000000000000000008000000000000000000000000000000000000000000040000000000000000000000000000000000000000000000040000000000000000000000000000000000000000000000004000000000000000000000000000100000000000000000000000000000000000000000000000000000000000000000000000000000000000000000000000000000000000000000000080000000000000000000000000000000000000000000000000000000000000000000200000000040000000000000000000000000000000000000000000000000000000000000000000",
      "type": "0x2",
      "transactionHash": "0xacc24f61aa6819718ddc9e61fe9ac1fb066a616a1947d79e2981e43ecb5ff66a",
      "transactionIndex": "0x9d",
      "blockHash": "0x5ffde8e28fc35cc75873030b6a7827649950c8764556f69675043d16b8227b2e",
      "blockNumber": "0x25a5f33",
      "gasUsed": "0x4466d",
      "effectiveGasPrice": "0x22e847",
      "blobGasUsed": "0xe520",
      "from": "0x2c8d82a53f11b0e9b527a111b2f53c5d5e809806",
      "to": "0x7409cbcb6577164e96a9b474efd4c32b9e17d59d",
      "contractAddress": null,
      "daFootprintGasScalar": "0x138",
      "l1BaseFeeScalar": "0x8dd",
      "l1BlobBaseFee": "0x28be3c",
      "l1BlobBaseFeeScalar": "0x101c12",
      "l1Fee": "0x300ca45b",
      "l1GasPrice": "0x266a291",
      "l1GasUsed": "0xbc4"
    },
    {
      "status": "0x1",
      "cumulativeGasUsed": "0x22049a2",
      "logs": [
        {
          "address": "0x7409cbcb6577164e96a9b474efd4c32b9e17d59d",
          "topics": [
            "0xd2e3647fc837479f6b62a71cf47916be70118af2f2e3a5680d7e5c0a61191141",
            "0x0000000000000000000000000000000000000000000000000000000000000002"
          ],
          "data": "0x000000000000000000000000000000000000000000000000000000000000004000000000000000000000000000000000000000000000000000000000000186a0000000000000000000000000000000000000000000000000000000000000001157686f206372656174656420426173653f000000000000000000000000000000",
          "blockHash": "0x4efe4da2aeac65d40d472dba6078e12d6c891f153bcfcbd0ad504e4c715e140b",
          "blockNumber": "0x25a5f33",
          "blockTimestamp": "0x693f1b49",
          "transactionHash": "0x73a1f6f00d71013c9b7a67a8c576901c22ac65fd0411f45969d2f3a8bb445ec5",
          "transactionIndex": "0x9e",
          "logIndex": "0x1eb",
          "removed": false
        }
      ],
      "logsBloom": "0x04000000000000000000002000000000000000000000000000000000000000000000000000000008000000000000000000000000000000000000000000000000000000000000000000000000000000000000000000000000000000000000000000000000000000000000000000004000000000000000000000000000100000000000000000000000000000000000000000000000000000000000000000000000000000000000000000000100000000000000000000000080000000000000000000000000000000000000000000000000000000000000000000200000000000000000000000000000000000000000000000000000008000000000000000000000",
      "type": "0x2",
      "transactionHash": "0x73a1f6f00d71013c9b7a67a8c576901c22ac65fd0411f45969d2f3a8bb445ec5",
      "transactionIndex": "0x9e",
      "blockHash": "0x4efe4da2aeac65d40d472dba6078e12d6c891f153bcfcbd0ad504e4c715e140b",
      "blockNumber": "0x25a5f33",
      "gasUsed": "0x3a2a7",
      "effectiveGasPrice": "0x22e847",
      "blobGasUsed": "0xec70",
      "from": "0x2c8d82a53f11b0e9b527a111b2f53c5d5e809806",
      "to": "0x7409cbcb6577164e96a9b474efd4c32b9e17d59d",
      "contractAddress": null,
      "daFootprintGasScalar": "0x138",
      "l1BaseFeeScalar": "0x8dd",
      "l1BlobBaseFee": "0x28be3c",
      "l1BlobBaseFeeScalar": "0x101c12",
      "l1Fee": "0x2a4928f5",
      "l1GasPrice": "0x266a291",
      "l1GasUsed": "0xc2f"
    },
    {
      "status": "0x1",
      "cumulativeGasUsed": "0x223ecfd",
      "logs": [
        {
          "address": "0x7409cbcb6577164e96a9b474efd4c32b9e17d59d",
          "topics": [
            "0xd2e3647fc837479f6b62a71cf47916be70118af2f2e3a5680d7e5c0a61191141",
            "0x0000000000000000000000000000000000000000000000000000000000000003"
          ],
          "data": "0x000000000000000000000000000000000000000000000000000000000000004000000000000000000000000000000000000000000000000000000000000186a0000000000000000000000000000000000000000000000000000000000000001d576861742074797065206f66204c61796572203220697320426173653f000000",
          "blockHash": "0x4efe4da2aeac65d40d472dba6078e12d6c891f153bcfcbd0ad504e4c715e140b",
          "blockNumber": "0x25a5f33",
          "blockTimestamp": "0x693f1b49",
          "transactionHash": "0x69ee14b17d9674b7463e9a0759396a2abf7bb30d71963c6acd80b1a57414a6c2",
          "transactionIndex": "0x9f",
          "logIndex": "0x1ec",
          "removed": false
        }
      ],
      "logsBloom": "0x00000000000000000000002000000000000000000000000000000000000000000000000000000008000000000000000000000000020000000000000000000000000000000000000000000000000000000000000000000000000000000000000000000000000000000000000000004000000000000000000000000000100000000000000000000000000000000000000000000000000000000000000000000000000000000000000000000000000000000000000000800080000000000000400000000000000000000000000000000000000000000000000000200000000000000000000000000000000000000000000000000000000000000000000000000000",
      "type": "0x2",
      "transactionHash": "0x69ee14b17d9674b7463e9a0759396a2abf7bb30d71963c6acd80b1a57414a6c2",
      "transactionIndex": "0x9f",
      "blockHash": "0x4efe4da2aeac65d40d472dba6078e12d6c891f153bcfcbd0ad504e4c715e140b",
      "blockNumber": "0x25a5f33",
      "gasUsed": "0x3a35b",
      "effectiveGasPrice": "0x22e847",
      "blobGasUsed": "0xeee0",
      "from": "0x2c8d82a53f11b0e9b527a111b2f53c5d5e809806",
      "to": "0x7409cbcb6577164e96a9b474efd4c32b9e17d59d",
      "contractAddress": null,
      "daFootprintGasScalar": "0x138",
      "l1BaseFeeScalar": "0x8dd",
      "l1BlobBaseFee": "0x28be3c",
      "l1BlobBaseFeeScalar": "0x101c12",
      "l1Fee": "0x2a4928f5",
      "l1GasPrice": "0x266a291",
      "l1GasUsed": "0xc4a"
    },
    {
      "status": "0x1",
      "cumulativeGasUsed": "0x228ef8d",
      "logs": [
        {
          "address": "0x7409cbcb6577164e96a9b474efd4c32b9e17d59d",
          "topics": [
            "0xd2e3647fc837479f6b62a71cf47916be70118af2f2e3a5680d7e5c0a61191141",
            "0x0000000000000000000000000000000000000000000000000000000000000004"
          ],
          "data": "0x000000000000000000000000000000000000000000000000000000000000004000000000000000000000000000000000000000000000000000000000000186a000000000000000000000000000000000000000000000000000000000000000215768617420697320746865206d61696e20707572706f7365206f6620426173653f00000000000000000000000000000000000000000000000000000000000000",
          "blockHash": "0x4efe4da2aeac65d40d472dba6078e12d6c891f153bcfcbd0ad504e4c715e140b",
          "blockNumber": "0x25a5f33",
          "blockTimestamp": "0x693f1b49",
          "transactionHash": "0x5c4bc174c9ecafe94fde0f8df1119fde37885ed50b9c55206d390e3d04bc30cb",
          "transactionIndex": "0xa0",
          "logIndex": "0x1ed",
          "removed": false
        }
      ],
      "logsBloom": "0x00000000000000000000002000000000000000000000000000000000000000000000000000000008000000000000000000000000000000000000000000000000000000000000000000000000000000000000000000000000000000000000000008000000000000000000000000004000000000000000000000000000100000000000000000000000000000000000000000000000000000000000000000000000000000000000000000000000000000000000000000000080002000000000000000000000000000000000000000000000000000008000000000200000000000000000000000000000000000000000000000000000000000000000000000000000",
      "type": "0x2",
      "transactionHash": "0x5c4bc174c9ecafe94fde0f8df1119fde37885ed50b9c55206d390e3d04bc30cb",
      "transactionIndex": "0xa0",
      "blockHash": "0x4efe4da2aeac65d40d472dba6078e12d6c891f153bcfcbd0ad504e4c715e140b",
      "blockNumber": "0x25a5f33",
      "gasUsed": "0x50290",
      "effectiveGasPrice": "0x22e847",
      "blobGasUsed": "0x126f0",
      "from": "0x2c8d82a53f11b0e9b527a111b2f53c5d5e809806",
      "to": "0x7409cbcb6577164e96a9b474efd4c32b9e17d59d",
      "contractAddress": null,
      "daFootprintGasScalar": "0x138",
      "l1BaseFeeScalar": "0x8dd",
      "l1BlobBaseFee": "0x28be3c",
      "l1BlobBaseFeeScalar": "0x101c12",
      "l1Fee": "0x2a4928f5",
      "l1GasPrice": "0x266a291",
      "l1GasUsed": "0xf2a"
    },
    {
      "status": "0x1",
      "cumulativeGasUsed": "0x2583301",
      "logs": [
        {
          "address": "0x7409cbcb6577164e96a9b474efd4c32b9e17d59d",
          "topics": [
            "0xd2e3647fc837479f6b62a71cf47916be70118af2f2e3a5680d7e5c0a61191141",
            "0x0000000000000000000000000000000000000000000000000000000000000005"
          ],
          "data": "0x000000000000000000000000000000000000000000000000000000000000004000000000000000000000000000000000000000000000000000000000000186a00000000000000000000000000000000000000000000000000000000000000023576869636820737461626c65636f696e206973206e617469766520746f20426173653f0000000000000000000000000000000000000000000000000000000000",
          "blockHash": "0xe48c3ce5fa66a5940aef0a8aca44238b11dddd621d1b5e8b063ee050a0ecd926",
          "blockNumber": "0x25a5f33",
          "blockTimestamp": "0x693f1b49",
          "transactionHash": "0x0bb2cae70b4f0a5b32df9cc266029651aca84bae2e9d601983c02d42556f5942",
          "transactionIndex": "0xb4",
          "logIndex": "0x227",
          "removed": false
        }
      ],
      "logsBloom": "0x00000000000000000000002000000000000000000000000000000000000000000000000000000008000000000000000000000000000000000000000000000000000010000000000000000000000000000000000000000000000000000000000000000000000000000000000000004000000000000000000000000000100000000000000000000000000000000000001000000800000000000000000000000000000000000000000000000000000000000000000000000080000000000000000000000000000000000000000000000000000000000000000000200000000000000000000000000000000000000000000000000000000000000000000000000000",
      "type": "0x2",
      "transactionHash": "0x0bb2cae70b4f0a5b32df9cc266029651aca84bae2e9d601983c02d42556f5942",
      "transactionIndex": "0xb4",
      "blockHash": "0xe48c3ce5fa66a5940aef0a8aca44238b11dddd621d1b5e8b063ee050a0ecd926",
      "blockNumber": "0x25a5f33",
      "gasUsed": "0x40395",
      "effectiveGasPrice": "0x22e847",
      "blobGasUsed": "0xe520",
      "from": "0x2c8d82a53f11b0e9b527a111b2f53c5d5e809806",
      "to": "0x7409cbcb6577164e96a9b474efd4c32b9e17d59d",
      "contractAddress": null,
      "daFootprintGasScalar": "0x138",
      "l1BaseFeeScalar": "0x8dd",
      "l1BlobBaseFee": "0x28be3c",
      "l1BlobBaseFeeScalar": "0x101c12",
      "l1Fee": "0x1d7a4fa0",
      "l1GasPrice": "0x266a291",
      "l1GasUsed": "0xbc4"
    }
  ],
  "libraries": [],
  "pending": [],
  "returns": {},
  "timestamp": 1765743435,
  "chain": 8453,
  "commit": "6e1a4b7"
}