{
  "transactions": [
    {
      "hash": "0x2ad73894329d1ca7c8955a8373fe5037cd73b606fa2938809805a0f589c4b2ee",
      "transactionType": "CALL",
      "contractName": null,
      "contractAddress": "0x80b56e7ac1841a3b099c13f85c8a092759e2909c",
      "function": "addQuestion(string,string[4],uint8,string)",
      "arguments": [
        "What is Celo?",
        "[A mobile-first blockchain platform, A cryptocurrency exchange, A digital wallet app, A mining hardware company]",
        "0",
        "Basics"
      ],
      "transaction": {
        "from": "0x1ff9ea9f062c31cff19ade558e34894f07cf7817",
        "to": "0x80b56e7ac1841a3b099c13f85c8a092759e2909c",
        "gas": "0x57d5b",
        "value": "0x0",
        "input": "0xd6a70487000000000000000000000000000000000000000000000000000000000000008000000000000000000000000000000000000000000000000000000000000000c000000000000000000000000000000000000000000000000000000000000000000000000000000000000000000000000000000000000000000000000000000260000000000000000000000000000000000000000000000000000000000000000d576861742069732043656c6f3f00000000000000000000000000000000000000000000000000000000000000000000000000000000000000000000000000008000000000000000000000000000000000000000000000000000000000000000e000000000000000000000000000000000000000000000000000000000000001200000000000000000000000000000000000000000000000000000000000000160000000000000000000000000000000000000000000000000000000000000002241206d6f62696c652d666972737420626c6f636b636861696e20706c6174666f726d0000000000000000000000000000000000000000000000000000000000000000000000000000000000000000000000000000000000000000000000000019412063727970746f63757272656e63792065786368616e676500000000000000000000000000000000000000000000000000000000000000000000000000001441206469676974616c2077616c6c657420617070000000000000000000000000000000000000000000000000000000000000000000000000000000000000001941206d696e696e6720686172647761726520636f6d70616e790000000000000000000000000000000000000000000000000000000000000000000000000000064261736963730000000000000000000000000000000000000000000000000000",
        "nonce": "0x48",
        "chainId": "0xaa044c"
      },
      "additionalContracts": [],
      "isFixedGasLimit": false
    },
    {
      "hash": "0xac406b0adb080fd2630e7a19183ba2a975deabe7b8c331bf9b4feb12a8d2cf13",
      "transactionType": "CALL",
      "contractName": null,
      "contractAddress": "0x80b56e7ac1841a3b099c13f85c8a092759e2909c",
      "function": "addQuestion(string,string[4],uint8,string)",
      "arguments": [
        "What is Celo\\'s native stablecoin pegged to the US Dollar?",
        "[USDT, USDC, cUSD, DAI]",
        "2",
        "Stablecoins"
      ],
      "transaction": {
        "from": "0x1ff9ea9f062c31cff19ade558e34894f07cf7817",
        "to": "0x80b56e7ac1841a3b099c13f85c8a092759e2909c",
        "gas": "0x5dd39",
        "value": "0x0",
        "input": "0xd6a70487000000000000000000000000000000000000000000000000000000000000008000000000000000000000000000000000000000000000000000000000000000e0000000000000000000000000000000000000000000000000000000000000000200000000000000000000000000000000000000000000000000000000000002600000000000000000000000000000000000000000000000000000000000000039576861742069732043656c6f2773206e617469766520737461626c65636f696e2070656767656420746f2074686520555320446f6c6c61723f00000000000000000000000000000000000000000000000000000000000000000000000000008000000000000000000000000000000000000000000000000000000000000000c00000000000000000000000000000000000000000000000000000000000000100000000000000000000000000000000000000000000000000000000000000014000000000000000000000000000000000000000000000000000000000000000045553445400000000000000000000000000000000000000000000000000000000000000000000000000000000000000000000000000000000000000000000000455534443000000000000000000000000000000000000000000000000000000000000000000000000000000000000000000000000000000000000000000000004635553440000000000000000000000000000000000000000000000000000000000000000000000000000000000000000000000000000000000000000000000034441490000000000000000000000000000000000000000000000000000000000000000000000000000000000000000000000000000000000000000000000000b537461626c65636f696e73000000000000000000000000000000000000000000",
        "nonce": "0x49",
        "chainId": "0xaa044c"
      },
      "additionalContracts": [],
      "isFixedGasLimit": false
    },
    {
      "hash": "0x5740eff1c17884cd53a845e7d6baf47c9e6f74feffe588166ef6ea8e1cc8efca",
      "transactionType": "CALL",
      "contractName": null,
      "contractAddress": "0x80b56e7ac1841a3b099c13f85c8a092759e2909c",
      "function": "addQuestion(string,string[4],uint8,string)",
      "arguments": [
        "What consensus mechanism does Celo use?",
        "[Proof of Work, Proof of Stake, Delegated Proof of Stake, Proof of Authority]",
        "1",
        "Technology"
      ],
      "transaction": {
        "from": "0x1ff9ea9f062c31cff19ade558e34894f07cf7817",
        "to": "0x80b56e7ac1841a3b099c13f85c8a092759e2909c",
        "gas": "0x58c16",
        "value": "0x0",
        "input": "0xd6a70487000000000000000000000000000000000000000000000000000000000000008000000000000000000000000000000000000000000000000000000000000000e00000000000000000000000000000000000000000000000000000000000000001000000000000000000000000000000000000000000000000000000000000026000000000000000000000000000000000000000000000000000000000000000275768617420636f6e73656e737573206d656368616e69736d20646f65732043656c6f207573653f00000000000000000000000000000000000000000000000000000000000000000000000000000000000000000000000000000000000000008000000000000000000000000000000000000000000000000000000000000000c000000000000000000000000000000000000000000000000000000000000001000000000000000000000000000000000000000000000000000000000000000140000000000000000000000000000000000000000000000000000000000000000d50726f6f66206f6620576f726b00000000000000000000000000000000000000000000000000000000000000000000000000000000000000000000000000000e50726f6f66206f66205374616b65000000000000000000000000000000000000000000000000000000000000000000000000000000000000000000000000001844656c6567617465642050726f6f66206f66205374616b650000000000000000000000000000000000000000000000000000000000000000000000000000001250726f6f66206f6620417574686f726974790000000000000000000000000000000000000000000000000000000000000000000000000000000000000000000a546563686e6f6c6f677900000000000000000000000000000000000000000000",
        "nonce": "0x4a",
        "chainId": "0xaa044c"
      },
      "additionalContracts": [],
      "isFixedGasLimit": false
    },
    {
      "hash": "0x6f2c284451ba5b21f0208ad6ff7fcc7f56515a9ef1a0ce9f180f59530ab5a3d0",
      "transactionType": "CALL",
      "contractName": null,
      "contractAddress": "0x80b56e7ac1841a3b099c13f85c8a092759e2909c",
      "function": "addQuestion(string,string[4],uint8,string)",
      "arguments": [
        "What is Celo\\'s primary mission?",
        "[To create the fastest blockchain, To build financial tools accessible to anyone with a mobile phone, To replace all traditional banks, To mine Bitcoin more efficiently]",
        "1",
        "Mission"
      ],
      "transaction": {
        "from": "0x1ff9ea9f062c31cff19ade558e34894f07cf7817",
        "to": "0x80b56e7ac1841a3b099c13f85c8a092759e2909c",
        "gas": "0x771e5",
        "value": "0x0",
        "input": "0xd6a70487000000000000000000000000000000000000000000000000000000000000008000000000000000000000000000000000000000000000000000000000000000c000000000000000000000000000000000000000000000000000000000000000010000000000000000000000000000000000000000000000000000000000000280000000000000000000000000000000000000000000000000000000000000001f576861742069732043656c6f2773207072696d617279206d697373696f6e3f00000000000000000000000000000000000000000000000000000000000000008000000000000000000000000000000000000000000000000000000000000000c0000000000000000000000000000000000000000000000000000000000000014000000000000000000000000000000000000000000000000000000000000001800000000000000000000000000000000000000000000000000000000000000020546f2063726561746520746865206661737465737420626c6f636b636861696e0000000000000000000000000000000000000000000000000000000000000041546f206275696c642066696e616e6369616c20746f6f6c732061636365737369626c6520746f20616e796f6e6520776974682061206d6f62696c652070686f6e65000000000000000000000000000000000000000000000000000000000000000000000000000000000000000000000000000000000000000000000000000020546f207265706c61636520616c6c20747261646974696f6e616c2062616e6b730000000000000000000000000000000000000000000000000000000000000020546f206d696e6520426974636f696e206d6f726520656666696369656e746c7900000000000000000000000000000000000000000000000000000000000000074d697373696f6e00000000000000000000000000000000000000000000000000",
        "nonce": "0x4b",
        "chainId": "0xaa044c"
      },
      "additionalContracts": [],
      "isFixedGasLimit": false
    },
    {
      "hash": "0x3c201b397460bbfab91a5cbc7246e39090aff77a5c915ee1b1f61ad71fd30d42",
      "transactionType": "CALL",
      "contractName": null,
      "contractAddress": "0x80b56e7ac1841a3b099c13f85c8a092759e2909c",
      "function": "addQuestion(string,string[4],uint8,string)",
      "arguments": [
        "What makes Celo unique in terms of environmental impact?",
        "[It uses solar power, It is carbon negative, It doesn\\'t use electricity, It plants trees]",
        "1",
        "Sustainability"
      ],
      "transaction": {
        "from": "0x1ff9ea9f062c31cff19ade558e34894f07cf7817",
        "to": "0x80b56e7ac1841a3b099c13f85c8a092759e2909c",
        "gas": "0x5e1e3",
        "value": "0x0",
        "input": "0xd6a70487000000000000000000000000000000000000000000000000000000000000008000000000000000000000000000000000000000000000000000000000000000e000000000000000000000000000000000000000000000000000000000000000010000000000000000000000000000000000000000000000000000000000000260000000000000000000000000000000000000000000000000000000000000003857686174206d616b65732043656c6f20756e6971756520696e207465726d73206f6620656e7669726f6e6d656e74616c20696d706163743f0000000000000000000000000000000000000000000000000000000000000000000000000000008000000000000000000000000000000000000000000000000000000000000000c00000000000000000000000000000000000000000000000000000000000000100000000000000000000000000000000000000000000000000000000000000014000000000000000000000000000000000000000000000000000000000000000134974207573657320736f6c617220706f776572000000000000000000000000000000000000000000000000000000000000000000000000000000000000000015497420697320636172626f6e206e656761746976650000000000000000000000000000000000000000000000000000000000000000000000000000000000001a497420646f65736e27742075736520656c656374726963697479000000000000000000000000000000000000000000000000000000000000000000000000000f497420706c616e74732074726565730000000000000000000000000000000000000000000000000000000000000000000000000000000000000000000000000e5375737461696e6162696c697479000000000000000000000000000000000000",
        "nonce": "0x4c",
        "chainId": "0xaa044c"
      },
      "additionalContracts": [],
      "isFixedGasLimit": false
    },
    {
      "hash": "0xf9585e6fed81495d3ac03a3a700f6e25557776be51d5b0b09b48e6df281d3f8b",
      "transactionType": "CALL",
      "contractName": null,
      "contractAddress": "0x80b56e7ac1841a3b099c13f85c8a092759e2909c",
      "function": "addQuestion(string,string[4],uint8,string)",
      "arguments": [
        "How does Celo enable easy wallet recovery?",
        "[Email verification, Phone number mapping to wallet addresses, Fingerprint scanning, Face recognition]",
        "1",
        "Features"
      ],
      "transaction": {
        "from": "0x1ff9ea9f062c31cff19ade558e34894f07cf7817",
        "to": "0x80b56e7ac1841a3b099c13f85c8a092759e2909c",
        "gas": "0x67e1d",
        "value": "0x0",
        "input": "0xd6a70487000000000000000000000000000000000000000000000000000000000000008000000000000000000000000000000000000000000000000000000000000000e000000000000000000000000000000000000000000000000000000000000000010000000000000000000000000000000000000000000000000000000000000280000000000000000000000000000000000000000000000000000000000000002a486f7720646f65732043656c6f20656e61626c6520656173792077616c6c6574207265636f766572793f00000000000000000000000000000000000000000000000000000000000000000000000000000000000000000000000000000000008000000000000000000000000000000000000000000000000000000000000000c0000000000000000000000000000000000000000000000000000000000000012000000000000000000000000000000000000000000000000000000000000001600000000000000000000000000000000000000000000000000000000000000012456d61696c20766572696669636174696f6e0000000000000000000000000000000000000000000000000000000000000000000000000000000000000000002850686f6e65206e756d626572206d617070696e6720746f2077616c6c657420616464726573736573000000000000000000000000000000000000000000000000000000000000000000000000000000000000000000000000000000000000001446696e6765727072696e74207363616e6e696e67000000000000000000000000000000000000000000000000000000000000000000000000000000000000001046616365207265636f676e6974696f6e0000000000000000000000000000000000000000000000000000000000000000000000000000000000000000000000084665617475726573000000000000000000000000000000000000000000000000",
        "nonce": "0x4d",
        "chainId": "0xaa044c"
      },
      "additionalContracts": [],
      "isFixedGasLimit": false
    },
    {
      "hash": "0xe82a1c40b887a4b2d37dee18e8ddd9e938d9b143a10cf854072d2c244dd06f6f",
      "transactionType": "CALL",
      "contractName": null,
      "contractAddress": "0x80b56e7ac1841a3b099c13f85c8a092759e2909c",
      "function": "addQuestion(string,string[4],uint8,string)",
      "arguments": [
        "What is Celo\\'s governance token called?",
        "[CELO, CEL, CGOV, CUSD]",
        "0",
        "Tokens"
      ],
      "transaction": {
        "from": "0x1ff9ea9f062c31cff19ade558e34894f07cf7817",
        "to": "0x80b56e7ac1841a3b099c13f85c8a092759e2909c",
        "gas": "0x51ce5",
        "value": "0x0",
        "input": "0xd6a70487000000000000000000000000000000000000000000000000000000000000008000000000000000000000000000000000000000000000000000000000000000e0000000000000000000000000000000000000000000000000000000000000000000000000000000000000000000000000000000000000000000000000000002600000000000000000000000000000000000000000000000000000000000000027576861742069732043656c6f277320676f7665726e616e636520746f6b656e2063616c6c65643f00000000000000000000000000000000000000000000000000000000000000000000000000000000000000000000000000000000000000008000000000000000000000000000000000000000000000000000000000000000c000000000000000000000000000000000000000000000000000000000000001000000000000000000000000000000000000000000000000000000000000000140000000000000000000000000000000000000000000000000000000000000000443454c4f00000000000000000000000000000000000000000000000000000000000000000000000000000000000000000000000000000000000000000000000343454c0000000000000000000000000000000000000000000000000000000000000000000000000000000000000000000000000000000000000000000000000443474f5600000000000000000000000000000000000000000000000000000000000000000000000000000000000000000000000000000000000000000000000443555344000000000000000000000000000000000000000000000000000000000000000000000000000000000000000000000000000000000000000000000006546f6b656e730000000000000000000000000000000000000000000000000000",
        "nonce": "0x4e",
        "chainId": "0xaa044c"
      },
      "additionalContracts": [],
      "isFixedGasLimit": false
    },
    {
      "hash": "0x95cc9ad3888418939ff4d7e847e06d10f1943dcaafecfd5019e979ba388d8c92",
      "transactionType": "CALL",
      "contractName": null,
      "contractAddress": "0x80b56e7ac1841a3b099c13f85c8a092759e2909c",
      "function": "addQuestion(string,string[4],uint8,string)",
      "arguments": [
        "Is Celo compatible with Ethereum smart contracts?",
        "[No, completely different, Yes, it\\'s EVM compatible, Only partially compatible, It uses a different programming language]",
        "1",
        "Technology"
      ],
      "transaction": {
        "from": "0x1ff9ea9f062c31cff19ade558e34894f07cf7817",
        "to": "0x80b56e7ac1841a3b099c13f85c8a092759e2909c",
        "gas": "0x67fdc",
        "value": "0x0",
        "input": "0xd6a70487000000000000000000000000000000000000000000000000000000000000008000000000000000000000000000000000000000000000000000000000000000e000000000000000000000000000000000000000000000000000000000000000010000000000000000000000000000000000000000000000000000000000000280000000000000000000000000000000000000000000000000000000000000003149732043656c6f20636f6d70617469626c65207769746820457468657265756d20736d61727420636f6e7472616374733f000000000000000000000000000000000000000000000000000000000000000000000000000000000000000000008000000000000000000000000000000000000000000000000000000000000000c00000000000000000000000000000000000000000000000000000000000000100000000000000000000000000000000000000000000000000000000000000014000000000000000000000000000000000000000000000000000000000000000184e6f2c20636f6d706c6574656c7920646966666572656e74000000000000000000000000000000000000000000000000000000000000000000000000000000185965732c20697427732045564d20636f6d70617469626c65000000000000000000000000000000000000000000000000000000000000000000000000000000194f6e6c79207061727469616c6c7920636f6d70617469626c6500000000000000000000000000000000000000000000000000000000000000000000000000002849742075736573206120646966666572656e742070726f6772616d6d696e67206c616e6775616765000000000000000000000000000000000000000000000000000000000000000000000000000000000000000000000000000000000000000a546563686e6f6c6f677900000000000000000000000000000000000000000000",
        "nonce": "0x4f",
        "chainId": "0xaa044c"
      },
      "additionalContracts": [],
      "isFixedGasLimit": false
    },
    {
      "hash": "0xb270e97e05aa33ce7c865ba2440b99058f2dfee2b7d2b2c2e06a399fd19b5e8f",
      "transactionType": "CALL",
      "contractName": null,
      "contractAddress": "0x80b56e7ac1841a3b099c13f85c8a092759e2909c",
      "function": "addQuestion(string,string[4],uint8,string)",
      "arguments": [
        "What is MiniPay?",
        "[A Celo mining pool, A mobile wallet built on Celo, A payment gateway, A stablecoin]",
        "1",
        "Ecosystem"
      ],
      "transaction": {
        "from": "0x1ff9ea9f062c31cff19ade558e34894f07cf7817",
        "to": "0x80b56e7ac1841a3b099c13f85c8a092759e2909c",
        "gas": "0x49ac2",
        "value": "0x0",
        "input": "0xd6a70487000000000000000000000000000000000000000000000000000000000000008000000000000000000000000000000000000000000000000000000000000000c000000000000000000000000000000000000000000000000000000000000000010000000000000000000000000000000000000000000000000000000000000240000000000000000000000000000000000000000000000000000000000000001057686174206973204d696e695061793f00000000000000000000000000000000000000000000000000000000000000000000000000000000000000000000008000000000000000000000000000000000000000000000000000000000000000c0000000000000000000000000000000000000000000000000000000000000010000000000000000000000000000000000000000000000000000000000000001400000000000000000000000000000000000000000000000000000000000000012412043656c6f206d696e696e6720706f6f6c0000000000000000000000000000000000000000000000000000000000000000000000000000000000000000001d41206d6f62696c652077616c6c6574206275696c74206f6e2043656c6f000000000000000000000000000000000000000000000000000000000000000000001141207061796d656e742067617465776179000000000000000000000000000000000000000000000000000000000000000000000000000000000000000000000c4120737461626c65636f696e0000000000000000000000000000000000000000000000000000000000000000000000000000000000000000000000000000000945636f73797374656d0000000000000000000000000000000000000000000000",
        "nonce": "0x50",
        "chainId": "0xaa044c"
      },
      "additionalContracts": [],
      "isFixedGasLimit": false
    },
    {
      "hash": "0xe8b2e2f05ac22bd04dfb4e1903b921af36d71bfadf988b06c88f871ca8f59fa2",
      "transactionType": "CALL",
      "contractName": null,
      "contractAddress": "0x80b56e7ac1841a3b099c13f85c8a092759e2909c",
      "function": "addQuestion(string,string[4],uint8,string)",
      "arguments": [
        "What backs Celo stablecoins?",
        "[US Dollar reserves in banks, Gold reserves, A diversified crypto reserve, Nothing, they are algorithmic]",
        "2",
        "Stablecoins"
      ],
      "transaction": {
        "from": "0x1ff9ea9f062c31cff19ade558e34894f07cf7817",
        "to": "0x80b56e7ac1841a3b099c13f85c8a092759e2909c",
        "gas": "0x4e27f",
        "value": "0x0",
        "input": "0xd6a70487000000000000000000000000000000000000000000000000000000000000008000000000000000000000000000000000000000000000000000000000000000c000000000000000000000000000000000000000000000000000000000000000020000000000000000000000000000000000000000000000000000000000000240000000000000000000000000000000000000000000000000000000000000001c57686174206261636b732043656c6f20737461626c65636f696e733f00000000000000000000000000000000000000000000000000000000000000000000008000000000000000000000000000000000000000000000000000000000000000c000000000000000000000000000000000000000000000000000000000000001000000000000000000000000000000000000000000000000000000000000000140000000000000000000000000000000000000000000000000000000000000001b555320446f6c6c617220726573657276657320696e2062616e6b730000000000000000000000000000000000000000000000000000000000000000000000000d476f6c6420726573657276657300000000000000000000000000000000000000000000000000000000000000000000000000000000000000000000000000001c412064697665727369666965642063727970746f207265736572766500000000000000000000000000000000000000000000000000000000000000000000001d4e6f7468696e672c20746865792061726520616c676f726974686d6963000000000000000000000000000000000000000000000000000000000000000000000b537461626c65636f696e73000000000000000000000000000000000000000000",
        "nonce": "0x51",
        "chainId": "0xaa044c"
      },
      "additionalContracts": [],
      "isFixedGasLimit": false
    }
  ],
  "receipts": [
    {
      "status": "0x1",
      "cumulativeGasUsed": "0x4ad54",
      "logs": [
        {
          "address": "0x80b56e7ac1841a3b099c13f85c8a092759e2909c",
          "topics": [
            "0x99cdf36f9fc716110deb2ca0ea14e450ea70c719d430c86a653299701ee57dd7",
            "0x0000000000000000000000000000000000000000000000000000000000000000"
          ],
          "data": "0x000000000000000000000000000000000000000000000000000000000000002000000000000000000000000000000000000000000000000000000000000000064261736963730000000000000000000000000000000000000000000000000000",
          "blockHash": "0x31bd72240e7ac3d7689fc1e6e6b6d4c83a0d5578dba2b9919a32a8807561fd67",
          "blockNumber": "0xa4a9f1",
          "transactionHash": "0x2ad73894329d1ca7c8955a8373fe5037cd73b606fa2938809805a0f589c4b2ee",
          "transactionIndex": "0x1",
          "logIndex": "0x0",
          "removed": false
        }
      ],
      "logsBloom": "0x00000000000000000000008000000000000000000000000000000000000000000000000000000000000000000000000000000000000000000000000000000000000000000000000010000000000000000000000000000000040000000020000000000000020000000000000000000800000000000000000000000000000000000000000000000000000000000000000000000000000000000000000000000000000000000800000000000000000000000000000000000000000000000000000000000000000000000000000000000000000000000000000000000000000020000000000000000000000000000000000000000000000008000000000000000000",
      "type": "0x2",
      "transactionHash": "0x2ad73894329d1ca7c8955a8373fe5037cd73b606fa2938809805a0f589c4b2ee",
      "transactionIndex": "0x1",
      "blockHash": "0x31bd72240e7ac3d7689fc1e6e6b6d4c83a0d5578dba2b9919a32a8807561fd67",
      "blockNumber": "0xa4a9f1",
      "gasUsed": "0x3f974",
      "effectiveGasPrice": "0x5d21dba01",
      "from": "0x1ff9ea9f062c31cff19ade558e34894f07cf7817",
      "to": "0x80b56e7ac1841a3b099c13f85c8a092759e2909c",
      "contractAddress": null,
      "l1BaseFeeScalar": "0x0",
      "l1BlobBaseFee": "0x1",
      "l1BlobBaseFeeScalar": "0x0",
      "l1Fee": "0x0",
      "l1GasPrice": "0xb",
      "l1GasUsed": "0xebf"
    },
    {
      "status": "0x1",
      "cumulativeGasUsed": "0x8afcf",
      "logs": [
        {
          "address": "0x80b56e7ac1841a3b099c13f85c8a092759e2909c",
          "topics": [
            "0x99cdf36f9fc716110deb2ca0ea14e450ea70c719d430c86a653299701ee57dd7",
            "0x0000000000000000000000000000000000000000000000000000000000000001"
          ],
          "data": "0x0000000000000000000000000000000000000000000000000000000000000020000000000000000000000000000000000000000000000000000000000000000b537461626c65636f696e73000000000000000000000000000000000000000000",
          "blockHash": "0x31bd72240e7ac3d7689fc1e6e6b6d4c83a0d5578dba2b9919a32a8807561fd67",
          "blockNumber": "0xa4a9f1",
          "transactionHash": "0xac406b0adb080fd2630e7a19183ba2a975deabe7b8c331bf9b4feb12a8d2cf13",
          "transactionIndex": "0x2",
          "logIndex": "0x1",
          "removed": false
        }
      ],
      "logsBloom": "0x00000000000000000000008000000000000000000000000000000000000000000000000000000000000000000000000000000000000000000000000000040000000000000000000010000000000000000000000000040000040000000020000000000000000000000000000000000000000000000000000000000000000000000000000000000000000000000000000000000000000000000000000000000000000000000800000000000000000000000000000000000000000000000000000000000000000000000000000000000000000000000000000000000000000040000000000000000000000000000000000000000000000008000000000000000000",
      "type": "0x2",
      "transactionHash": "0xac406b0adb080fd2630e7a19183ba2a975deabe7b8c331bf9b4feb12a8d2cf13",
      "transactionIndex": "0x2",
      "blockHash": "0x31bd72240e7ac3d7689fc1e6e6b6d4c83a0d5578dba2b9919a32a8807561fd67",
      "blockNumber": "0xa4a9f1",
      "gasUsed": "0x4027b",
      "effectiveGasPrice": "0x5d21dba01",
      "from": "0x1ff9ea9f062c31cff19ade558e34894f07cf7817",
      "to": "0x80b56e7ac1841a3b099c13f85c8a092759e2909c",
      "contractAddress": null,
      "l1BaseFeeScalar": "0x0",
      "l1BlobBaseFee": "0x1",
      "l1BlobBaseFeeScalar": "0x0",
      "l1Fee": "0x0",
      "l1GasPrice": "0xb",
      "l1GasUsed": "0xd20"
    },
    {
      "status": "0x1",
      "cumulativeGasUsed": "0xcb3ee",
      "logs": [
        {
          "address": "0x80b56e7ac1841a3b099c13f85c8a092759e2909c",
          "topics": [
            "0x99cdf36f9fc716110deb2ca0ea14e450ea70c719d430c86a653299701ee57dd7",
            "0x0000000000000000000000000000000000000000000000000000000000000002"
          ],
          "data": "0x0000000000000000000000000000000000000000000000000000000000000020000000000000000000000000000000000000000000000000000000000000000a546563686e6f6c6f677900000000000000000000000000000000000000000000",
          "blockHash": "0x31bd72240e7ac3d7689fc1e6e6b6d4c83a0d5578dba2b9919a32a8807561fd67",
          "blockNumber": "0xa4a9f1",
          "transactionHash": "0x5740eff1c17884cd53a845e7d6baf47c9e6f74feffe588166ef6ea8e1cc8efca",
          "transactionIndex": "0x3",
          "logIndex": "0x2",
          "removed": false
        }
      ],
      "logsBloom": "0x04000000000000000000008000000000000000000000000000000000000000000000000000000000000000000000000000000000000000000000000000000000000000000000000010000000000000000000000000000000040000000020000000000000000000000000000000000000000000000000000000000000000000000000000000000000000000000000000000000000000000000000000000000000000000000800000000000100000000000000000000000000000000000000000000000000000000000000000000000000000000000000000000000000000000000000000000000000000000000000000000000000008008000000000000000000",
      "type": "0x2",
      "transactionHash": "0x5740eff1c17884cd53a845e7d6baf47c9e6f74feffe588166ef6ea8e1cc8efca",
      "transactionIndex": "0x3",
      "blockHash": "0x31bd72240e7ac3d7689fc1e6e6b6d4c83a0d5578dba2b9919a32a8807561fd67",
      "blockNumber": "0xa4a9f1",
      "gasUsed": "0x4041f",
      "effectiveGasPrice": "0x5d21dba01",
      "from": "0x1ff9ea9f062c31cff19ade558e34894f07cf7817",
      "to": "0x80b56e7ac1841a3b099c13f85c8a092759e2909c",
      "contractAddress": null,
      "l1BaseFeeScalar": "0x0",
      "l1BlobBaseFee": "0x1",
      "l1BlobBaseFeeScalar": "0x0",
      "l1Fee": "0x0",
      "l1GasPrice": "0xb",
      "l1GasUsed": "0xd8b"
    },
    {
      "status": "0x1",
      "cumulativeGasUsed": "0x1217c4",
      "logs": [
        {
          "address": "0x80b56e7ac1841a3b099c13f85c8a092759e2909c",
          "topics": [
            "0x99cdf36f9fc716110deb2ca0ea14e450ea70c719d430c86a653299701ee57dd7",
            "0x0000000000000000000000000000000000000000000000000000000000000003"
          ],
          "data": "0x000000000000000000000000000000000000000000000000000000000000002000000000000000000000000000000000000000000000000000000000000000074d697373696f6e00000000000000000000000000000000000000000000000000",
          "blockHash": "0x31bd72240e7ac3d7689fc1e6e6b6d4c83a0d5578dba2b9919a32a8807561fd67",
          "blockNumber": "0xa4a9f1",
          "transactionHash": "0x6f2c284451ba5b21f0208ad6ff7fcc7f56515a9ef1a0ce9f180f59530ab5a3d0",
          "transactionIndex": "0x4",
          "logIndex": "0x3",
          "removed": false
        }
      ],
      "logsBloom": "0x00000000000000000000008000000000000000000000000000000000000000000000000000000000000000000000000000000000020000000000000000000000000000000000000010000000000000000000000000000000040000000020000000000000000000000000000000000000000000000000000000000000000000000000000000000000000000000000000000000000000000000000000000000000000000000800000000000000000000000000000000800000000000000000400000000000000000000000000000000000000000000000000000000000000000000000000000000000000000000000000000000000000008000000000000000000",
      "type": "0x2",
      "transactionHash": "0x6f2c284451ba5b21f0208ad6ff7fcc7f56515a9ef1a0ce9f180f59530ab5a3d0",
      "transactionIndex": "0x4",
      "blockHash": "0x31bd72240e7ac3d7689fc1e6e6b6d4c83a0d5578dba2b9919a32a8807561fd67",
      "blockNumber": "0xa4a9f1",
      "gasUsed": "0x563d6",
      "effectiveGasPrice": "0x5d21dba01",
      "from": "0x1ff9ea9f062c31cff19ade558e34894f07cf7817",
      "to": "0x80b56e7ac1841a3b099c13f85c8a092759e2909c",
      "contractAddress": null,
      "l1BaseFeeScalar": "0x0",
      "l1BlobBaseFee": "0x1",
      "l1BlobBaseFeeScalar": "0x0",
      "l1Fee": "0x0",
      "l1GasPrice": "0xb",
      "l1GasUsed": "0x120a"
    },
    {
      "status": "0x1",
      "cumulativeGasUsed": "0x161d6f",
      "logs": [
        {
          "address": "0x80b56e7ac1841a3b099c13f85c8a092759e2909c",
          "topics": [
            "0x99cdf36f9fc716110deb2ca0ea14e450ea70c719d430c86a653299701ee57dd7",
            "0x0000000000000000000000000000000000000000000000000000000000000004"
          ],
          "data": "0x0000000000000000000000000000000000000000000000000000000000000020000000000000000000000000000000000000000000000000000000000000000e5375737461696e6162696c697479000000000000000000000000000000000000",
          "blockHash": "0x31bd72240e7ac3d7689fc1e6e6b6d4c83a0d5578dba2b9919a32a8807561fd67",
          "blockNumber": "0xa4a9f1",
          "transactionHash": "0x3c201b397460bbfab91a5cbc7246e39090aff77a5c915ee1b1f61ad71fd30d42",
          "transactionIndex": "0x5",
          "logIndex": "0x4",
          "removed": false
        }
      ],
      "logsBloom": "0x00000000000000000000008000000000000000000000000000000000000000000000000000000000000000000000000000000000000000000000000000000000000000000000000010000000000000000000000000000000040000000020000008000000000000000000000000000000000000000000000000000000000000000000000000000000000000000000000000000000000000000000000000000000000000000800000000000000000000000000000000000000002000000000000000000000000000000000000000000000000000008000000000000000000000000000000000000000000000000000000000000000000008000000000000000000",
      "type": "0x2",
      "transactionHash": "0x3c201b397460bbfab91a5cbc7246e39090aff77a5c915ee1b1f61ad71fd30d42",
      "transactionIndex": "0x5",
      "blockHash": "0x31bd72240e7ac3d7689fc1e6e6b6d4c83a0d5578dba2b9919a32a8807561fd67",
      "blockNumber": "0xa4a9f1",
      "gasUsed": "0x405ab",
      "effectiveGasPrice": "0x5d21dba01",
      "from": "0x1ff9ea9f062c31cff19ade558e34894f07cf7817",
      "to": "0x80b56e7ac1841a3b099c13f85c8a092759e2909c",
      "contractAddress": null,
      "l1BaseFeeScalar": "0x0",
      "l1BlobBaseFee": "0x1",
      "l1BlobBaseFeeScalar": "0x0",
      "l1Fee": "0x0",
      "l1GasPrice": "0xb",
      "l1GasUsed": "0x10a1"
    },
    {
      "status": "0x1",
      "cumulativeGasUsed": "0x1ad0c7",
      "logs": [
        {
          "address": "0x80b56e7ac1841a3b099c13f85c8a092759e2909c",
          "topics": [
            "0x99cdf36f9fc716110deb2ca0ea14e450ea70c719d430c86a653299701ee57dd7",
            "0x0000000000000000000000000000000000000000000000000000000000000005"
          ],
          "data": "0x000000000000000000000000000000000000000000000000000000000000002000000000000000000000000000000000000000000000000000000000000000084665617475726573000000000000000000000000000000000000000000000000",
          "blockHash": "0x31bd72240e7ac3d7689fc1e6e6b6d4c83a0d5578dba2b9919a32a8807561fd67",
          "blockNumber": "0xa4a9f1",
          "transactionHash": "0xf9585e6fed81495d3ac03a3a700f6e25557776be51d5b0b09b48e6df281d3f8b",
          "transactionIndex": "0x6",
          "logIndex": "0x5",
          "removed": false
        }
      ],
      "logsBloom": "0x00000000000000000000008000000000000000000000000000000000000000000000000000000000000000000000000000000000000000000000000000000000000010000000000010000000000000000000000000000000040000000020000000000000000000000000000000000000000000000000000000000000000000000000000000000000000000000000001000000800000000000000000000000000000000000800000000000000000000000000000000000000000000000000000000000000000000000000000000000000000000000000000000000000000000000000000000000000000000000000000000000000000008000000000000000000",
      "type": "0x2",
      "transactionHash": "0xf9585e6fed81495d3ac03a3a700f6e25557776be51d5b0b09b48e6df281d3f8b",
      "transactionIndex": "0x6",
      "blockHash": "0x31bd72240e7ac3d7689fc1e6e6b6d4c83a0d5578dba2b9919a32a8807561fd67",
      "blockNumber": "0xa4a9f1",
      "gasUsed": "0x4b358",
      "effectiveGasPrice": "0x5d21dba01",
      "from": "0x1ff9ea9f062c31cff19ade558e34894f07cf7817",
      "to": "0x80b56e7ac1841a3b099c13f85c8a092759e2909c",
      "contractAddress": null,
      "l1BaseFeeScalar": "0x0",
      "l1BlobBaseFee": "0x1",
      "l1BlobBaseFeeScalar": "0x0",
      "l1Fee": "0x0",
      "l1GasPrice": "0xb",
      "l1GasUsed": "0xf7a"
    },
    {
      "status": "0x1",
      "cumulativeGasUsed": "0x1e8466",
      "logs": [
        {
          "address": "0x80b56e7ac1841a3b099c13f85c8a092759e2909c",
          "topics": [
            "0x99cdf36f9fc716110deb2ca0ea14e450ea70c719d430c86a653299701ee57dd7",
            "0x0000000000000000000000000000000000000000000000000000000000000006"
          ],
          "data": "0x00000000000000000000000000000000000000000000000000000000000000200000000000000000000000000000000000000000000000000000000000000006546f6b656e730000000000000000000000000000000000000000000000000000",
          "blockHash": "0x31bd72240e7ac3d7689fc1e6e6b6d4c83a0d5578dba2b9919a32a8807561fd67",
          "blockNumber": "0xa4a9f1",
          "transactionHash": "0xe82a1c40b887a4b2d37dee18e8ddd9e938d9b143a10cf854072d2c244dd06f6f",
          "transactionIndex": "0x7",
          "logIndex": "0x6",
          "removed": false
        }
      ],
      "logsBloom": "0x00000000000000000000008000000000000000000000000000000000000000000000000000000000000000000000000000000000000400000000000000000000000000000000000010000000000000000000000000000000040000000020000000000000000000000000000000000000000000000000000000000000000000000000000400000000000000000000000000000000000000000000000000000000000000000800000000000000000000000000000000000000000000080000000000000000000000000000000000000000000000000000000000000000000000000000000000000000000000000000000000000000000008000000000000000000",
      "type": "0x2",
      "transactionHash": "0xe82a1c40b887a4b2d37dee18e8ddd9e938d9b143a10cf854072d2c244dd06f6f",
      "transactionIndex": "0x7",
      "blockHash": "0x31bd72240e7ac3d7689fc1e6e6b6d4c83a0d5578dba2b9919a32a8807561fd67",
      "blockNumber": "0xa4a9f1",
      "gasUsed": "0x3b39f",
      "effectiveGasPrice": "0x5d21dba01",
      "from": "0x1ff9ea9f062c31cff19ade558e34894f07cf7817",
      "to": "0x80b56e7ac1841a3b099c13f85c8a092759e2909c",
      "contractAddress": null,
      "l1BaseFeeScalar": "0x0",
      "l1BlobBaseFee": "0x1",
      "l1BlobBaseFeeScalar": "0x0",
      "l1Fee": "0x0",
      "l1GasPrice": "0xb",
      "l1GasUsed": "0xb8f"
    },
    {
      "status": "0x1",
      "cumulativeGasUsed": "0x5687c",
      "logs": [
        {
          "address": "0x80b56e7ac1841a3b099c13f85c8a092759e2909c",
          "topics": [
            "0x99cdf36f9fc716110deb2ca0ea14e450ea70c719d430c86a653299701ee57dd7",
            "0x0000000000000000000000000000000000000000000000000000000000000007"
          ],
          "data": "0x0000000000000000000000000000000000000000000000000000000000000020000000000000000000000000000000000000000000000000000000000000000a546563686e6f6c6f677900000000000000000000000000000000000000000000",
          "blockHash": "0x6bf85ae3ab974bf41eb1381fb24417cb629abb5b932a2ee84af8a4ccf48ea2f0",
          "blockNumber": "0xa4a9f2",
          "transactionHash": "0x95cc9ad3888418939ff4d7e847e06d10f1943dcaafecfd5019e979ba388d8c92",
          "transactionIndex": "0x1",
          "logIndex": "0x0",
          "removed": false
        }
      ],
      "logsBloom": "0x00000000000000000000008000000000000000000000000000000000000000000000000000000000000000000000000000001000000000000000000000000000000020000000000010000000000000000000000000000000040000000020000000000000000000000000000000000000000000000000000000000000000000000000000000000000000000000000000000000000000000000000000000000000000000000800000000000000000000000000000000000000000000000000000000000000000000000000000000000000000000000000000000000100000000000000000000000000000000000000000000000000000008000000000000000000",
      "type": "0x2",
      "transactionHash": "0x95cc9ad3888418939ff4d7e847e06d10f1943dcaafecfd5019e979ba388d8c92",
      "transactionIndex": "0x1",
      "blockHash": "0x6bf85ae3ab974bf41eb1381fb24417cb629abb5b932a2ee84af8a4ccf48ea2f0",
      "blockNumber": "0xa4a9f2",
      "gasUsed": "0x4b49c",
      "effectiveGasPrice": "0x5d21dba01",
      "from": "0x1ff9ea9f062c31cff19ade558e34894f07cf7817",
      "to": "0x80b56e7ac1841a3b099c13f85c8a092759e2909c",
      "contractAddress": null,
      "l1BaseFeeScalar": "0x0",
      "l1BlobBaseFee": "0x1",
      "l1BlobBaseFeeScalar": "0x0",
      "l1Fee": "0x0",
      "l1GasPrice": "0xb",
      "l1GasUsed": "0x105e"
    },
    {
      "status": "0x1",
      "cumulativeGasUsed": "0x8bde3",
      "logs": [
        {
          "address": "0x80b56e7ac1841a3b099c13f85c8a092759e2909c",
          "topics": [
            "0x99cdf36f9fc716110deb2ca0ea14e450ea70c719d430c86a653299701ee57dd7",
            "0x0000000000000000000000000000000000000000000000000000000000000008"
          ],
          "data": "0x0000000000000000000000000000000000000000000000000000000000000020000000000000000000000000000000000000000000000000000000000000000945636f73797374656d0000000000000000000000000000000000000000000000",
          "blockHash": "0x6bf85ae3ab974bf41eb1381fb24417cb629abb5b932a2ee84af8a4ccf48ea2f0",
          "blockNumber": "0xa4a9f2",
          "transactionHash": "0xb270e97e05aa33ce7c865ba2440b99058f2dfee2b7d2b2c2e06a399fd19b5e8f",
          "transactionIndex": "0x2",
          "logIndex": "0x1",
          "removed": false
        }
      ],
      "logsBloom": "0x00000000000000000000008000000000000000000000000000000000000000000000000000000000000000000000000000000000000080000000000000000000000000000000000010000000000000000000000000000000040000000020000000000000000000000000000000000000000000000000000000000000000000000080000000000000000000000000000000000000000000000000000000000000000000000800000000000000000000000000000000000000000000000000000040000000000000000000000000000000000000000000000000000000000000000000000000000000000000000000000000000000000008000000000000000000",
      "type": "0x2",
      "transactionHash": "0xb270e97e05aa33ce7c865ba2440b99058f2dfee2b7d2b2c2e06a399fd19b5e8f",
      "transactionIndex": "0x2",
      "blockHash": "0x6bf85ae3ab974bf41eb1381fb24417cb629abb5b932a2ee84af8a4ccf48ea2f0",
      "blockNumber": "0xa4a9f2",
      "gasUsed": "0x35567",
      "effectiveGasPrice": "0x5d21dba01",
      "from": "0x1ff9ea9f062c31cff19ade558e34894f07cf7817",
      "to": "0x80b56e7ac1841a3b099c13f85c8a092759e2909c",
      "contractAddress": null,
      "l1BaseFeeScalar": "0x0",
      "l1BlobBaseFee": "0x1",
      "l1BlobBaseFeeScalar": "0x0",
      "l1Fee": "0x0",
      "l1GasPrice": "0xb",
      "l1GasUsed": "0xd48"
    },
    {
      "status": "0x1",
      "cumulativeGasUsed": "0xc14ee",
      "logs": [
        {
          "address": "0x80b56e7ac1841a3b099c13f85c8a092759e2909c",
          "topics": [
            "0x99cdf36f9fc716110deb2ca0ea14e450ea70c719d430c86a653299701ee57dd7",
            "0x0000000000000000000000000000000000000000000000000000000000000009"
          ],
          "data": "0x0000000000000000000000000000000000000000000000000000000000000020000000000000000000000000000000000000000000000000000000000000000b537461626c65636f696e73000000000000000000000000000000000000000000",
          "blockHash": "0x6bf85ae3ab974bf41eb1381fb24417cb629abb5b932a2ee84af8a4ccf48ea2f0",
          "blockNumber": "0xa4a9f2",
          "transactionHash": "0xe8b2e2f05ac22bd04dfb4e1903b921af36d71bfadf988b06c88f871ca8f59fa2",
          "transactionIndex": "0x3",
          "logIndex": "0x2",
          "removed": false
        }
      ],
      "logsBloom": "0x00000000000000000000008000000000000000000000000000000000000000000000000000000000000000000000000000000000000000000000000000200000000000000000000010000000000000000000000000000000040000000020000000000000000000000000000000000000000000000000000000000000000000000000000000000000000000000000000000001000000000000000000000000000000000000800000000000000000000000000000000000000000000000000000000000000000000000000000000000000000000000000000000000000000000000000000000000000000000000000000000000000000008000000000000800000",
      "type": "0x2",
      "transactionHash": "0xe8b2e2f05ac22bd04dfb4e1903b921af36d71bfadf988b06c88f871ca8f59fa2",
      "transactionIndex": "0x3",
      "blockHash": "0x6bf85ae3ab974bf41eb1381fb24417cb629abb5b932a2ee84af8a4ccf48ea2f0",
      "blockNumber": "0xa4a9f2",
      "gasUsed": "0x3570b",
      "effectiveGasPrice": "0x5d21dba01",
      "from": "0x1ff9ea9f062c31cff19ade558e34894f07cf7817",
      "to": "0x80b56e7ac1841a3b099c13f85c8a092759e2909c",
      "contractAddress": null,
      "l1BaseFeeScalar": "0x0",
      "l1BlobBaseFee": "0x1",
      "l1BlobBaseFeeScalar": "0x0",
      "l1Fee": "0x0",
      "l1GasPrice": "0xb",
      "l1GasUsed": "0xe39"
    }
  ],
  "libraries": [],
  "pending": [],
  "returns": {},
  "timestamp": 1764075399419,
  "chain": 11142220,
  "commit": "c1d0cc1"
}